{
  "contracts/TokenFarm.sol": {
    "TokenFarm": {
      "abi": [
        {
          "inputs": [],
          "stateMutability": "nonpayable",
          "type": "constructor"
        },
        {
          "inputs": [],
          "name": "EnforcedPause",
          "type": "error"
        },
        {
          "inputs": [],
          "name": "ExpectedPause",
          "type": "error"
        },
        {
          "inputs": [],
          "name": "InvalidInitialization",
          "type": "error"
        },
        {
          "inputs": [],
          "name": "NotInitializing",
          "type": "error"
        },
        {
          "inputs": [
            {
              "internalType": "address",
              "name": "owner",
              "type": "address"
            }
          ],
          "name": "OwnableInvalidOwner",
          "type": "error"
        },
        {
          "inputs": [
            {
              "internalType": "address",
              "name": "account",
              "type": "address"
            }
          ],
          "name": "OwnableUnauthorizedAccount",
          "type": "error"
        },
        {
          "inputs": [],
          "name": "TokenFarm__EmergencyStop",
          "type": "error"
        },
        {
          "inputs": [],
          "name": "TokenFarm__FarmStopped",
          "type": "error"
        },
        {
          "inputs": [],
          "name": "TokenFarm__InvalidAmount",
          "type": "error"
        },
        {
          "inputs": [],
          "name": "TokenFarm__InvalidConfiguration",
          "type": "error"
        },
        {
          "inputs": [],
          "name": "TokenFarm__MaxStakersReached",
          "type": "error"
        },
        {
          "inputs": [],
          "name": "TokenFarm__NoFees",
          "type": "error"
        },
        {
          "inputs": [],
          "name": "TokenFarm__NoRewards",
          "type": "error"
        },
        {
          "inputs": [],
          "name": "TokenFarm__NotStaking",
          "type": "error"
        },
        {
          "inputs": [],
          "name": "TokenFarm__OnlyOwner",
          "type": "error"
        },
        {
          "inputs": [],
          "name": "TokenFarm__StillLocked",
          "type": "error"
        },
        {
          "inputs": [],
          "name": "TokenFarm__TransferFailed",
          "type": "error"
        },
        {
          "anonymous": false,
          "inputs": [
            {
              "indexed": true,
              "internalType": "address",
              "name": "user",
              "type": "address"
            },
            {
              "indexed": false,
              "internalType": "uint256",
              "name": "amount",
              "type": "uint256"
            },
            {
              "indexed": false,
              "internalType": "uint256",
              "name": "timestamp",
              "type": "uint256"
            }
          ],
          "name": "Deposit",
          "type": "event"
        },
        {
          "anonymous": false,
          "inputs": [
            {
              "indexed": false,
              "internalType": "uint256",
              "name": "timestamp",
              "type": "uint256"
            }
          ],
          "name": "EmergencyStop",
          "type": "event"
        },
        {
          "anonymous": false,
          "inputs": [
            {
              "indexed": false,
              "internalType": "uint256",
              "name": "amount",
              "type": "uint256"
            },
            {
              "indexed": false,
              "internalType": "uint256",
              "name": "timestamp",
              "type": "uint256"
            }
          ],
          "name": "FeesWithdrawn",
          "type": "event"
        },
        {
          "anonymous": false,
          "inputs": [
            {
              "indexed": false,
              "internalType": "uint64",
              "name": "version",
              "type": "uint64"
            }
          ],
          "name": "Initialized",
          "type": "event"
        },
        {
          "anonymous": false,
          "inputs": [
            {
              "indexed": false,
              "internalType": "uint256",
              "name": "oldPeriod",
              "type": "uint256"
            },
            {
              "indexed": false,
              "internalType": "uint256",
              "name": "newPeriod",
              "type": "uint256"
            }
          ],
          "name": "LockPeriodUpdated",
          "type": "event"
        },
        {
          "anonymous": false,
          "inputs": [
            {
              "indexed": true,
              "internalType": "address",
              "name": "previousOwner",
              "type": "address"
            },
            {
              "indexed": true,
              "internalType": "address",
              "name": "newOwner",
              "type": "address"
            }
          ],
          "name": "OwnershipTransferred",
          "type": "event"
        },
        {
          "anonymous": false,
          "inputs": [
            {
              "indexed": false,
              "internalType": "address",
              "name": "account",
              "type": "address"
            }
          ],
          "name": "Paused",
          "type": "event"
        },
        {
          "anonymous": false,
          "inputs": [
            {
              "indexed": false,
              "internalType": "uint256",
              "name": "min",
              "type": "uint256"
            },
            {
              "indexed": false,
              "internalType": "uint256",
              "name": "max",
              "type": "uint256"
            },
            {
              "indexed": false,
              "internalType": "uint256",
              "name": "fee",
              "type": "uint256"
            }
          ],
          "name": "RewardConfigUpdated",
          "type": "event"
        },
        {
          "anonymous": false,
          "inputs": [
            {
              "indexed": true,
              "internalType": "address",
              "name": "user",
              "type": "address"
            },
            {
              "indexed": false,
              "internalType": "uint256",
              "name": "netAmount",
              "type": "uint256"
            },
            {
              "indexed": false,
              "internalType": "uint256",
              "name": "fee",
              "type": "uint256"
            }
          ],
          "name": "RewardsClaimed",
          "type": "event"
        },
        {
          "anonymous": false,
          "inputs": [
            {
              "indexed": false,
              "internalType": "uint256",
              "name": "totalUsers",
              "type": "uint256"
            },
            {
              "indexed": false,
              "internalType": "uint256",
              "name": "totalAmount",
              "type": "uint256"
            },
            {
              "indexed": false,
              "internalType": "uint256",
              "name": "timestamp",
              "type": "uint256"
            }
          ],
          "name": "RewardsDistributed",
          "type": "event"
        },
        {
          "anonymous": false,
          "inputs": [
            {
              "indexed": false,
              "internalType": "enum FarmState",
              "name": "oldState",
              "type": "uint8"
            },
            {
              "indexed": false,
              "internalType": "enum FarmState",
              "name": "newState",
              "type": "uint8"
            }
          ],
          "name": "StateChanged",
          "type": "event"
        },
        {
          "anonymous": false,
          "inputs": [
            {
              "indexed": false,
              "internalType": "address",
              "name": "oldStrategy",
              "type": "address"
            },
            {
              "indexed": false,
              "internalType": "address",
              "name": "newStrategy",
              "type": "address"
            }
          ],
          "name": "StrategyUpdated",
          "type": "event"
        },
        {
          "anonymous": false,
          "inputs": [
            {
              "indexed": false,
              "internalType": "address",
              "name": "account",
              "type": "address"
            }
          ],
          "name": "Unpaused",
          "type": "event"
        },
        {
          "anonymous": false,
          "inputs": [
            {
              "indexed": true,
              "internalType": "address",
              "name": "user",
              "type": "address"
            },
            {
              "indexed": false,
              "internalType": "uint256",
              "name": "amount",
              "type": "uint256"
            },
            {
              "indexed": false,
              "internalType": "uint256",
              "name": "timestamp",
              "type": "uint256"
            }
          ],
          "name": "Withdraw",
          "type": "event"
        },
        {
          "inputs": [],
          "name": "MAX_FEE_PERCENT",
          "outputs": [
            {
              "internalType": "uint256",
              "name": "",
              "type": "uint256"
            }
          ],
          "stateMutability": "view",
          "type": "function"
        },
        {
          "inputs": [],
          "name": "MAX_STAKERS",
          "outputs": [
            {
              "internalType": "uint256",
              "name": "",
              "type": "uint256"
            }
          ],
          "stateMutability": "view",
          "type": "function"
        },
        {
          "inputs": [],
          "name": "MIN_DEPOSIT",
          "outputs": [
            {
              "internalType": "uint256",
              "name": "",
              "type": "uint256"
            }
          ],
          "stateMutability": "view",
          "type": "function"
        },
        {
          "inputs": [
            {
              "internalType": "address",
              "name": "user",
              "type": "address"
            }
          ],
          "name": "canWithdraw",
          "outputs": [
            {
              "internalType": "bool",
              "name": "canWithdrawNow",
              "type": "bool"
            },
            {
              "internalType": "uint256",
              "name": "unlockTime",
              "type": "uint256"
            }
          ],
          "stateMutability": "view",
          "type": "function"
        },
        {
          "inputs": [],
          "name": "claimRewards",
          "outputs": [],
          "stateMutability": "nonpayable",
          "type": "function"
        },
        {
          "inputs": [],
          "name": "collectedFees",
          "outputs": [
            {
              "internalType": "uint256",
              "name": "",
              "type": "uint256"
            }
          ],
          "stateMutability": "view",
          "type": "function"
        },
        {
          "inputs": [],
          "name": "dappToken",
          "outputs": [
            {
              "internalType": "contract DappToken",
              "name": "",
              "type": "address"
            }
          ],
          "stateMutability": "view",
          "type": "function"
        },
        {
          "inputs": [
            {
              "internalType": "uint256",
              "name": "_amount",
              "type": "uint256"
            }
          ],
          "name": "deposit",
          "outputs": [],
          "stateMutability": "nonpayable",
          "type": "function"
        },
        {
          "inputs": [],
          "name": "distributeRewardsAll",
          "outputs": [],
          "stateMutability": "nonpayable",
          "type": "function"
        },
        {
          "inputs": [],
          "name": "emergencyStop",
          "outputs": [],
          "stateMutability": "nonpayable",
          "type": "function"
        },
        {
          "inputs": [],
          "name": "emergencyWithdrawEnabled",
          "outputs": [
            {
              "internalType": "bool",
              "name": "",
              "type": "bool"
            }
          ],
          "stateMutability": "view",
          "type": "function"
        },
        {
          "inputs": [],
          "name": "farmStartBlock",
          "outputs": [
            {
              "internalType": "uint256",
              "name": "",
              "type": "uint256"
            }
          ],
          "stateMutability": "view",
          "type": "function"
        },
        {
          "inputs": [],
          "name": "farmState",
          "outputs": [
            {
              "internalType": "enum FarmState",
              "name": "",
              "type": "uint8"
            }
          ],
          "stateMutability": "view",
          "type": "function"
        },
        {
          "inputs": [],
          "name": "getActiveStakers",
          "outputs": [
            {
              "internalType": "address[]",
              "name": "activeStakersList",
              "type": "address[]"
            }
          ],
          "stateMutability": "view",
          "type": "function"
        },
        {
          "inputs": [],
          "name": "getContractStats",
          "outputs": [
            {
              "internalType": "uint256",
              "name": "totalStakers",
              "type": "uint256"
            },
            {
              "internalType": "uint256",
              "name": "totalStaked",
              "type": "uint256"
            },
            {
              "internalType": "uint256",
              "name": "totalFees",
              "type": "uint256"
            },
            {
              "internalType": "uint256",
              "name": "totalRewards",
              "type": "uint256"
            },
            {
              "internalType": "enum FarmState",
              "name": "state",
              "type": "uint8"
            },
            {
              "internalType": "uint256",
              "name": "activeStakers",
              "type": "uint256"
            }
          ],
          "stateMutability": "view",
          "type": "function"
        },
        {
          "inputs": [],
          "name": "getEstimatedAPY",
          "outputs": [
            {
              "internalType": "uint256",
              "name": "",
              "type": "uint256"
            }
          ],
          "stateMutability": "view",
          "type": "function"
        },
        {
          "inputs": [
            {
              "internalType": "address",
              "name": "userAddr",
              "type": "address"
            }
          ],
          "name": "getUserInfo",
          "outputs": [
            {
              "components": [
                {
                  "internalType": "uint256",
                  "name": "balance",
                  "type": "uint256"
                },
                {
                  "internalType": "uint256",
                  "name": "checkpoint",
                  "type": "uint256"
                },
                {
                  "internalType": "uint256",
                  "name": "pendingRewards",
                  "type": "uint256"
                },
                {
                  "internalType": "uint256",
                  "name": "totalClaimed",
                  "type": "uint256"
                },
                {
                  "internalType": "uint256",
                  "name": "depositTimestamp",
                  "type": "uint256"
                },
                {
                  "internalType": "bool",
                  "name": "hasStaked",
                  "type": "bool"
                },
                {
                  "internalType": "bool",
                  "name": "isStaking",
                  "type": "bool"
                }
              ],
              "internalType": "struct TokenFarm.Staker",
              "name": "",
              "type": "tuple"
            }
          ],
          "stateMutability": "view",
          "type": "function"
        },
        {
          "inputs": [],
          "name": "getVersion",
          "outputs": [
            {
              "internalType": "string",
              "name": "",
              "type": "string"
            }
          ],
          "stateMutability": "pure",
          "type": "function"
        },
        {
          "inputs": [
            {
              "internalType": "address",
              "name": "_dappToken",
              "type": "address"
            },
            {
              "internalType": "address",
              "name": "_lpToken",
              "type": "address"
            },
            {
              "internalType": "address",
              "name": "_strategy",
              "type": "address"
            },
            {
              "internalType": "address",
              "name": "_owner",
              "type": "address"
            }
          ],
          "name": "initialize",
          "outputs": [],
          "stateMutability": "nonpayable",
          "type": "function"
        },
        {
          "inputs": [],
          "name": "lockPeriod",
          "outputs": [
            {
              "internalType": "uint256",
              "name": "",
              "type": "uint256"
            }
          ],
          "stateMutability": "view",
          "type": "function"
        },
        {
          "inputs": [],
          "name": "lpToken",
          "outputs": [
            {
              "internalType": "contract LPToken",
              "name": "",
              "type": "address"
            }
          ],
          "stateMutability": "view",
          "type": "function"
        },
        {
          "inputs": [],
          "name": "name",
          "outputs": [
            {
              "internalType": "string",
              "name": "",
              "type": "string"
            }
          ],
          "stateMutability": "view",
          "type": "function"
        },
        {
          "inputs": [],
          "name": "owner",
          "outputs": [
            {
              "internalType": "address",
              "name": "",
              "type": "address"
            }
          ],
          "stateMutability": "view",
          "type": "function"
        },
        {
          "inputs": [],
          "name": "pauseFarm",
          "outputs": [],
          "stateMutability": "nonpayable",
          "type": "function"
        },
        {
          "inputs": [],
          "name": "paused",
          "outputs": [
            {
              "internalType": "bool",
              "name": "",
              "type": "bool"
            }
          ],
          "stateMutability": "view",
          "type": "function"
        },
        {
          "inputs": [],
          "name": "renounceOwnership",
          "outputs": [],
          "stateMutability": "nonpayable",
          "type": "function"
        },
        {
          "inputs": [],
          "name": "resumeFarm",
          "outputs": [],
          "stateMutability": "nonpayable",
          "type": "function"
        },
        {
          "inputs": [],
          "name": "rewardConfig",
          "outputs": [
            {
              "internalType": "uint256",
              "name": "minPerBlock",
              "type": "uint256"
            },
            {
              "internalType": "uint256",
              "name": "maxPerBlock",
              "type": "uint256"
            },
            {
              "internalType": "uint256",
              "name": "feePercent",
              "type": "uint256"
            },
            {
              "internalType": "uint256",
              "name": "lastUpdate",
              "type": "uint256"
            }
          ],
          "stateMutability": "view",
          "type": "function"
        },
        {
          "inputs": [],
          "name": "rewardStrategy",
          "outputs": [
            {
              "internalType": "contract IRewardStrategy",
              "name": "",
              "type": "address"
            }
          ],
          "stateMutability": "view",
          "type": "function"
        },
        {
          "inputs": [
            {
              "internalType": "bool",
              "name": "_enabled",
              "type": "bool"
            }
          ],
          "name": "setEmergencyWithdrawEnabled",
          "outputs": [],
          "stateMutability": "nonpayable",
          "type": "function"
        },
        {
          "inputs": [
            {
              "internalType": "address",
              "name": "user",
              "type": "address"
            }
          ],
          "name": "simulateRewards",
          "outputs": [
            {
              "internalType": "uint256",
              "name": "pendingRewards",
              "type": "uint256"
            },
            {
              "internalType": "uint256",
              "name": "projectedRewards",
              "type": "uint256"
            }
          ],
          "stateMutability": "view",
          "type": "function"
        },
        {
          "inputs": [
            {
              "internalType": "address",
              "name": "",
              "type": "address"
            }
          ],
          "name": "stakerIndex",
          "outputs": [
            {
              "internalType": "uint256",
              "name": "",
              "type": "uint256"
            }
          ],
          "stateMutability": "view",
          "type": "function"
        },
        {
          "inputs": [
            {
              "internalType": "uint256",
              "name": "",
              "type": "uint256"
            }
          ],
          "name": "stakers",
          "outputs": [
            {
              "internalType": "address",
              "name": "",
              "type": "address"
            }
          ],
          "stateMutability": "view",
          "type": "function"
        },
        {
          "inputs": [
            {
              "internalType": "address",
              "name": "",
              "type": "address"
            }
          ],
          "name": "stakersData",
          "outputs": [
            {
              "internalType": "uint256",
              "name": "balance",
              "type": "uint256"
            },
            {
              "internalType": "uint256",
              "name": "checkpoint",
              "type": "uint256"
            },
            {
              "internalType": "uint256",
              "name": "pendingRewards",
              "type": "uint256"
            },
            {
              "internalType": "uint256",
              "name": "totalClaimed",
              "type": "uint256"
            },
            {
              "internalType": "uint256",
              "name": "depositTimestamp",
              "type": "uint256"
            },
            {
              "internalType": "bool",
              "name": "hasStaked",
              "type": "bool"
            },
            {
              "internalType": "bool",
              "name": "isStaking",
              "type": "bool"
            }
          ],
          "stateMutability": "view",
          "type": "function"
        },
        {
          "inputs": [],
          "name": "totalRewardsDistributed",
          "outputs": [
            {
              "internalType": "uint256",
              "name": "",
              "type": "uint256"
            }
          ],
          "stateMutability": "view",
          "type": "function"
        },
        {
          "inputs": [],
          "name": "totalStakingBalance",
          "outputs": [
            {
              "internalType": "uint256",
              "name": "",
              "type": "uint256"
            }
          ],
          "stateMutability": "view",
          "type": "function"
        },
        {
          "inputs": [
            {
              "internalType": "address",
              "name": "newOwner",
              "type": "address"
            }
          ],
          "name": "transferOwnership",
          "outputs": [],
          "stateMutability": "nonpayable",
          "type": "function"
        },
        {
          "inputs": [
            {
              "internalType": "uint256",
              "name": "_newPeriod",
              "type": "uint256"
            }
          ],
          "name": "updateLockPeriod",
          "outputs": [],
          "stateMutability": "nonpayable",
          "type": "function"
        },
        {
          "inputs": [
            {
              "internalType": "uint256",
              "name": "_min",
              "type": "uint256"
            },
            {
              "internalType": "uint256",
              "name": "_max",
              "type": "uint256"
            },
            {
              "internalType": "uint256",
              "name": "_feePercent",
              "type": "uint256"
            }
          ],
          "name": "updateRewardConfig",
          "outputs": [],
          "stateMutability": "nonpayable",
          "type": "function"
        },
        {
          "inputs": [
            {
              "internalType": "contract IRewardStrategy",
              "name": "_newStrategy",
              "type": "address"
            }
          ],
          "name": "updateRewardStrategy",
          "outputs": [],
          "stateMutability": "nonpayable",
          "type": "function"
        },
        {
          "inputs": [],
          "name": "withdraw",
          "outputs": [],
          "stateMutability": "nonpayable",
          "type": "function"
        },
        {
          "inputs": [],
          "name": "withdrawFees",
          "outputs": [],
          "stateMutability": "nonpayable",
          "type": "function"
        }
      ],
      "evm": {
        "bytecode": {
          "linkReferences": {},
          "object": "6080806040523460d2577ff0c57e16840df040f15088dc2f81fe391c3923bec73e23a9662efc9c229c6a005460ff8160401c1660c1576002600160401b03196001600160401b03821601605c575b604051611f1890816100d88239f35b6001600160401b0319166001600160401b039081177ff0c57e16840df040f15088dc2f81fe391c3923bec73e23a9662efc9c229c6a005581527fc7f505b2f371ae2175ee4913f4499e1f2633a7b5936321eed1cdaeb6115181d290602090a13880604d565b63f92ee8a960e01b60005260046000fd5b600080fdfe6080604052600436101561001257600080fd5b6000803560e01c806306309e4b146116bb57806306fdde03146116625780630d8e6e2c1461161d57806319262d30146115eb578063372500ab146114565780633ccfd60b146112a45780633fd8b02f1461128657806344c4aea91461125d578063476343ee146110e05780634e94c285146110a95780635747e69f146110865780635c975abb146110445780635eb186f8146110195780635fcbd28514610ff05780636386c1c714610efc57806363a599a414610edb57806367d8174014610ebf5780636c7ecb7814610e9e5780636f3ba88914610e09578063715018a614610d9f57806378d60a5b14610d665780637bbfffa514610d365780638da5cb5b14610d005780639003adfe14610ce2578063910956aa14610cc557806391db7b0d14610c6f5780639fb82db914610ae2578063a113601b14610ac1578063acb422c514610a3e578063b507d70f14610a20578063b6b55f25146107d6578063c74ad4931461079e578063ccaad55d1461077b578063ce2040c814610754578063db03e22714610607578063dfe6b5d61461055b578063e1e158a514610539578063e766c8351461051b578063ee172546146104fd578063f2fde38b146104d0578063f8c8765e146102315763fd5e6dd1146101eb57600080fd5b3461022e57602036600319011261022e5760043590600b5482101561022e5760206102158361182a565b905460405160039290921b1c6001600160a01b03168152f35b80fd5b503461022e57608036600319011261022e5761024b6117ec565b906024356001600160a01b038116908190036104cc576044356001600160a01b038116908190036104c857606435906001600160a01b03821682036104c457600080516020611ec3833981519152549260ff8460401c16159367ffffffffffffffff8116801590816104bc575b60011490816104b2575b1590816104a9575b5061049a5767ffffffffffffffff198116600117600080516020611ec3833981519152558461046d575b506102fd611e74565b610305611e74565b61030d611e74565b61031683611ca8565b61031e611e74565b610326611e74565b60ff196000541660005543600a55600160ff19600f541617600f5560405195608087019680881067ffffffffffffffff891117610459576103f895969760405267016345785d8a00008152670de0b6b3a764000060208201526002604082015260604291015267016345785d8a0000600355670de0b6b3a7640000600455600260055542600655865490610100600160a81b039060081b1690610100600160a81b0319161786556001600160601b0360a01b60015416176001556001600160601b0360a01b6002541617600255611e1e565b6103ff5780f35b68ff000000000000000019600080516020611ec38339815191525416600080516020611ec3833981519152557fc7f505b2f371ae2175ee4913f4499e1f2633a7b5936321eed1cdaeb6115181d2602060405160018152a180f35b634e487b7160e01b87526041600452602487fd5b68ffffffffffffffffff19166801000000000000000117600080516020611ec383398151915255386102f4565b63f92ee8a960e01b8652600486fd5b905015386102ca565b303b1591506102c2565b8691506102b8565b8380fd5b8280fd5b5080fd5b503461022e57602036600319011261022e576104fa6104ed6117ec565b6104f5611cd8565b611ca8565b80f35b503461022e578060031936011261022e576020600954604051908152f35b503461022e578060031936011261022e576020600754604051908152f35b503461022e578060031936011261022e57602060405166038d7ea4c680008152f35b503461022e578060031936011261022e57600b5481805b8281106105b657506105af60c0936007549060085460ff600954925416926040519687526020870152604086015260608501526080840190611807565b60a0820152f35b6105bf8161182a565b905460039190911b1c6001600160a01b03168452600c602052604084206005015460081c60ff166105f3575b600101610572565b906105ff600191611bbf565b9190506105eb565b503461022e578060031936011261022e57610620611cd8565b60ff8154166003811015610740578061073157600214610722578080805b600b548110156106d7576106518161182a565b905460039190911b1c6001600160a01b0316808552600c602052604085206005015460081c60ff16610687575b5060010161063e565b6106ca60019293946106c4836106d0948952600c602052600260408a200154906106b081611d0e565b8952600c602052600260408a200154611953565b9061185b565b93611bbf565b919061067e565b507f6ae8ee960d83517f7fa993ad7a0e16e33d9655a23ff41eefc62bdb289c7a8e5f9161071c6040519283924291846040919493926060820195825260208201520152565b0390a180f35b633435875f60e11b8152600490fd5b63566498c160e11b8252600482fd5b634e487b7160e01b82526021600452602482fd5b503461022e578060031936011261022e5760ff60209154166107796040518092611807565bf35b503461022e578060031936011261022e576020610796611c43565b604051908152f35b503461022e57602036600319011261022e576004358015158091036104cc576107c5611cd8565b60ff8019600f5416911617600f5580f35b503461022e57602036600319011261022e5760043560ff8254166003811015610a0c57806109fd576002146109ee5766038d7ea4c6800081106109df57612710600b541015806109c5575b6109b6576001546040516323b872dd60e01b815233600482015230602482015260448101839052906020908290606490829087906001600160a01b03165af19081156109ab57839161097c575b501561096d57338252600c60205260408220600581019060ff825416156108ee575b61089b83825461185b565b905561010061ff00198254161790556108b68160075461185b565b6007556040519081524260208201527f90890809c654f11d6e72a28fa60149770a0d11ec6c92319d6ceb2bb0a4ea1a1560403392a280f35b600b54338552600d60205280604086205568010000000000000000811015610959578060016109209201600b5561182a565b81546001600160a01b0360039290921b91821b19163390911b179055815460ff1916600190811783554260048301554390820155610890565b634e487b7160e01b85526041600452602485fd5b63f45377a960e01b8252600482fd5b61099e915060203d6020116109a4575b6109968183611781565b810190611960565b3861086e565b503d61098c565b6040513d85823e3d90fd5b634f26e78960e01b8252600482fd5b50338252600c60205260ff60056040842001541615610821565b638339c1ad60e01b8252600482fd5b633435875f60e11b8252600482fd5b63566498c160e11b8352600483fd5b634e487b7160e01b83526021600452602483fd5b503461022e578060031936011261022e576020600a54604051908152f35b503461022e57602036600319011261022e5760e0906040906001600160a01b03610a666117ec565b168152600c6020522060ff815491600181015490600281015460038201549060056004840154930154936040519687526020870152604086015260608501526080840152818116151560a084015260081c16151560c0820152f35b503461022e578060031936011261022e57610ada611cd8565b6104fa611be6565b503461022e578060031936011261022e57600b5481805b828110610c1e5750610b23610b0d82611bce565b91610b1b6040519384611781565b808352611bce565b602082019290601f19013684378390845b818110610b895750505090604051928392602084019060208552518091526040840192915b818110610b67575050500390f35b82516001600160a01b0316845285945060209384019390920191600101610b59565b610b928161182a565b905460039190911b1c6001600160a01b03168652600c602052604086206005015460081c60ff16610bc6575b600101610b34565b91610bd08361182a565b9054855160039290921b1c6001600160a01b031690821015610c0a5781610c0291602060019460051b88010152611bbf565b929050610bbe565b634e487b7160e01b87526032600452602487fd5b610c278161182a565b905460039190911b1c6001600160a01b03168452600c602052604084206005015460081c60ff16610c5b575b600101610af9565b90610c67600191611bbf565b919050610c53565b503461022e57602036600319011261022e577f5dd7b309b7bc5010d9c96159ee535a428121d6803cb847792402fffccaf1569a6040600435610caf611cd8565b600e549080600e5582519182526020820152a180f35b503461022e578060031936011261022e5760206040516127108152f35b503461022e578060031936011261022e576020600854604051908152f35b503461022e578060031936011261022e57600080516020611ea3833981519152546040516001600160a01b039091168152602090f35b503461022e57602036600319011261022e576040610d5a610d556117ec565b611a71565b82519182526020820152f35b503461022e57602036600319011261022e576020906040906001600160a01b03610d8e6117ec565b168152600d83522054604051908152f35b503461022e578060031936011261022e57610db8611cd8565b600080516020611ea383398151915280546001600160a01b0319811690915581906001600160a01b03167f8be0079c531659141344cd1fd0a4f28419497f9722a3daafe3b4186f6b6457e08280a380f35b503461022e57606036600319011261022e5760443590602435600435610e2d611cd8565b818111610e8f5760328411610e8f5761071c7f81376037ed87033d6b5601a7c8806a8a7a2649525c23fe62315eb82c39c7e247939482600355836004558060055542600655604051938493846040919493926060820195825260208201520152565b631a67164160e21b8352600483fd5b503461022e578060031936011261022e57610eb7611cd8565b6104fa611a0f565b503461022e578060031936011261022e57602060405160328152f35b503461022e578060031936011261022e57610ef4611cd8565b6104fa611978565b503461022e57602036600319011261022e57604060e091610f1b6117ec565b8160c08451610f298161174f565b82815282602082015282868201528260608201528260808201528260a0820152015260018060a01b03168152600c6020522060405190610f688261174f565b805491828152600182015491602082019283526002810154604083019081526003820154906060840191825260056004840154936080860194855201549460ff60c060a087019682891615158852019660081c161515865260405196875251602087015251604086015251606085015251608084015251151560a083015251151560c0820152f35b503461022e578060031936011261022e576001546040516001600160a01b039091168152602090f35b503461022e578060031936011261022e575460405160089190911c6001600160a01b03168152602090f35b503461022e578060031936011261022e57602060ff7fcd5ed15c6e187e77e9aee88184c21f4f2182ab5827cb3b7e07fbedcd63f0330054166040519015158152f35b503461022e578060031936011261022e57602060ff600f54166040519015158152f35b503461022e578060031936011261022e57608060035460045460055460065491604051938452602084015260408301526060820152f35b503461022e578060031936011261022e576110f9611cd8565b600854801561124e5760088281558254604051638da5cb5b60e01b8152911c6001600160a01b031690602081600481855afa908115611243578491611201575b50306001600160a01b0390911603610e8f57600080516020611ea38339815191525483916001600160a01b0390911690803b156104c8576040516340c10f1960e01b81526001600160a01b039290921660048301526024820184905282908290604490829084905af180156111f6576111e1575b507fd9787bf70d3926a4a81c52cba8799d18903ce0132aaa4b7de9e92dc893303a7f6040838151908152426020820152a180f35b816111eb91611781565b6104cc5781386111ad565b6040513d84823e3d90fd5b90506020813d60201161123b575b8161121c60209383611781565b810103126104c457516001600160a01b03811681036104c45738611139565b3d915061120f565b6040513d86823e3d90fd5b6379f0114160e01b8252600482fd5b503461022e578060031936011261022e576002546040516001600160a01b039091168152602090f35b503461022e578060031936011261022e576020600e54604051908152f35b503461022e578060031936011261022e57338152600c60205260ff600560408320015460081c16158015611442575b6114335760ff8154166003811015610740576002148080611426575b6109ee57338252600c6020526040822080549182156114175715808061140c575b6113e5575b906005916113d7575b8381550161ff0019815416905561133781600754611953565b60075560015460405163a9059cbb60e01b815233600482015260248101839052906020908290604490829087906001600160a01b03165af19081156109ab5783916113b8575b501561096d576040519081524260208201527ff279e6a1f5e320cca91135676d9cb6e44ca8a08c0b88342bcdb1144f6511b56860403392a280f35b6113d1915060203d6020116109a4576109968183611781565b3861137d565b6113e033611d0e565b61131e565b6113f66004830154600e549061185b565b42101561131557631958598b60e01b8452600484fd5b50600e541515611310565b638339c1ad60e01b8452600484fd5b5060ff600f5416156112ef565b6327b9597960e01b8152600490fd5b50338152600c6020526040812054156112d3565b503461022e578060031936011261022e5760ff815416600381101561074057600281146109ee576115dc57338152600c60205260ff600560408320015460081c161580156115c8575b611433576114ac33611d0e565b338152600c602052604081206002810190815480156115b95760055480820290828204036115a5579060036064611511930493866114ea8685611953565b9655016114f885825461185b565b90556115068360085461185b565b60085560095461185b565b600955825460081c6001600160a01b0316803b156104c4576040516340c10f1960e01b8152336004820152602481018490529084908290604490829084905af1801561124357611591575b5060405191825260208201527fdacbdde355ba930696a362ea6738feb9f8bd52dfb3d81947558fd3217e23e32560403392a280f35b8361159e91949294611781565b913861155c565b634e487b7160e01b85526011600452602485fd5b630736394360e51b8452600484fd5b50338152600c60205260408120541561149f565b63566498c160e11b8152600490fd5b503461022e57602036600319011261022e57604061160f61160a6117ec565b61187e565b825191151582526020820152f35b503461022e578060031936011261022e575061165e604051611640604082611781565b60058152640312e302e360dc1b6020820152604051918291826117a3565b0390f35b503461022e578060031936011261022e575061165e604051611685604082611781565b601781527f50726f706f7274696f6e616c20546f6b656e204661726d0000000000000000006020820152604051918291826117a3565b503461022e57602036600319011261022e576004356001600160a01b038116908190036104cc576116ea611cd8565b80156117405760407fe4cec16b1a7e6b7979e923da619a8b1e5fd0f0fb6e5c1cf647f350430ee61ca99160025490806001600160601b0360a01b83161760025582519160018060a01b031682526020820152a180f35b631a67164160e21b8252600482fd5b60e0810190811067ffffffffffffffff82111761176b57604052565b634e487b7160e01b600052604160045260246000fd5b90601f8019910116810190811067ffffffffffffffff82111761176b57604052565b91909160208152825180602083015260005b8181106117d6575060409293506000838284010152601f8019910116010190565b80602080928701015160408286010152016117b5565b600435906001600160a01b038216820361180257565b600080fd5b9060038210156118145752565b634e487b7160e01b600052602160045260246000fd5b600b5481101561184557600b60005260206000200190600090565b634e487b7160e01b600052603260045260246000fd5b9190820180921161186857565b634e487b7160e01b600052601160045260246000fd5b60018060a01b0316600052600c602052604060002060c06040516118a18161174f565b82549081815260018401546020820152600284015460408201526003840154606082015260ff6005600486015495608084019687520154818116151560a084015260081c161590811593849101529161194a575b506119415760ff6000541660038110156118145760021461193457600e54801561192a57611923915161185b565b4281111591565b5050600190600090565b5060ff600f541690600090565b50600090600090565b905015386118f5565b9190820391821161186857565b90816020910312611802575180151581036118025790565b60ff6000541660038110156118145760028114611a0c5760407fe8a97ea87e4388fa22d496b95a8ed5ced6717f49790318de2b928aaf37a021d891600260ff1960005416176000556119df60ff600054166119d584518094611807565b6020830190611807565ba17f1e8ac57e9803840915f0284b77b570a882fb2db69108ac8eba578bb30fcaf1526020604051428152a1565b50565b60ff600054166003811015611814578015611a0c5760006002821461072257805460ff19169055604080517fe8a97ea87e4388fa22d496b95a8ed5ced6717f49790318de2b928aaf37a021d892611a6e906000906119d5908490611807565ba1565b9060018060a01b038216600052600c6020526040600020604051611a948161174f565b815481526001820154806020830152600283015460ff6005604085019583875260038101546060870152600481015460808701520154818116151560a086015260081c16158015908160c086015290611bb5575b611baa575090611afa60209243611953565b60025491516007546003546004805460405163a0acbec360e01b81529182019590955260248101939093526044830191909152606482015260848101919091526001600160a01b0395861660a482015294859160c4918391165afa928315611b9e57600093611b6a575b50519190565b9092506020813d602011611b96575b81611b8660209383611781565b8101031261180257519138611b64565b3d9150611b79565b6040513d6000823e3d90fd5b945060009392505050565b5060075415611ae8565b60001981146118685760010190565b67ffffffffffffffff811161176b5760051b60200190565b60ff6000541660038110156118145760018114611a0c5760407fe8a97ea87e4388fa22d496b95a8ed5ced6717f49790318de2b928aaf37a021d891600160ff196000541617600055611a6e60ff600054166119d584518094611807565b6007548015611ca257611c5b6003546004549061185b565b60011c61177081029080820461177014811517156118685762216ab081029180830461016d149015171561186857630d0dacc0029080820460641490151715611868570490565b50600090565b6001600160a01b03811615611cc257611cc090611e1e565b565b631e4fbdf760e01b600052600060045260246000fd5b600080516020611ea3833981519152546001600160a01b03163303611cf957565b63118cdaa760e01b6000523360045260246000fd5b60018060a01b038116600052600c60205260406000209060018201918254804311801590611e14575b8015611e0b575b611e0557611d4e60209143611953565b60025483546007546003546004805460405163a0acbec360e01b81529182019690965260248101939093526044830191909152606482015260848101929092526001600160a01b0394851660a48301529093849160c4918391165afa918215611b9e57600092611dd0575b506002611dc9910191825461185b565b9055439055565b9091506020813d602011611dfd575b81611dec60209383611781565b810103126118025751906002611db9565b3d9150611ddf565b50505050565b50815415611d3e565b5060075415611d37565b600080516020611ea383398151915280546001600160a01b039283166001600160a01b0319821681179092559091167f8be0079c531659141344cd1fd0a4f28419497f9722a3daafe3b4186f6b6457e0600080a3565b60ff600080516020611ec38339815191525460401c1615611e9157565b631afcd79f60e31b60005260046000fdfe9016d09d72d40fdae2fd8ceac6b6234c7706214fd39c1cd1e609a0528c199300f0c57e16840df040f15088dc2f81fe391c3923bec73e23a9662efc9c229c6a00a2646970667358221220d1c501c66236d533fcb5631c691c034beff2bf943e1d893d846a2bd157df50be64736f6c634300081c0033",
          "opcodes": "PUSH1 0x80 DUP1 PUSH1 0x40 MSTORE CALLVALUE PUSH1 0xD2 JUMPI PUSH32 0xF0C57E16840DF040F15088DC2F81FE391C3923BEC73E23A9662EFC9C229C6A00 SLOAD PUSH1 0xFF DUP2 PUSH1 0x40 SHR AND PUSH1 0xC1 JUMPI PUSH1 0x2 PUSH1 0x1 PUSH1 0x40 SHL SUB NOT PUSH1 0x1 PUSH1 0x1 PUSH1 0x40 SHL SUB DUP3 AND ADD PUSH1 0x5C JUMPI JUMPDEST PUSH1 0x40 MLOAD PUSH2 0x1F18 SWAP1 DUP2 PUSH2 0xD8 DUP3 CODECOPY RETURN JUMPDEST PUSH1 0x1 PUSH1 0x1 PUSH1 0x40 SHL SUB NOT AND PUSH1 0x1 PUSH1 0x1 PUSH1 0x40 SHL SUB SWAP1 DUP2 OR PUSH32 0xF0C57E16840DF040F15088DC2F81FE391C3923BEC73E23A9662EFC9C229C6A00 SSTORE DUP2 MSTORE PUSH32 0xC7F505B2F371AE2175EE4913F4499E1F2633A7B5936321EED1CDAEB6115181D2 SWAP1 PUSH1 0x20 SWAP1 LOG1 CODESIZE DUP1 PUSH1 0x4D JUMP JUMPDEST PUSH4 0xF92EE8A9 PUSH1 0xE0 SHL PUSH1 0x0 MSTORE PUSH1 0x4 PUSH1 0x0 REVERT JUMPDEST PUSH1 0x0 DUP1 REVERT INVALID PUSH1 0x80 PUSH1 0x40 MSTORE PUSH1 0x4 CALLDATASIZE LT ISZERO PUSH2 0x12 JUMPI PUSH1 0x0 DUP1 REVERT JUMPDEST PUSH1 0x0 DUP1 CALLDATALOAD PUSH1 0xE0 SHR DUP1 PUSH4 0x6309E4B EQ PUSH2 0x16BB JUMPI DUP1 PUSH4 0x6FDDE03 EQ PUSH2 0x1662 JUMPI DUP1 PUSH4 0xD8E6E2C EQ PUSH2 0x161D JUMPI DUP1 PUSH4 0x19262D30 EQ PUSH2 0x15EB JUMPI DUP1 PUSH4 0x372500AB EQ PUSH2 0x1456 JUMPI DUP1 PUSH4 0x3CCFD60B EQ PUSH2 0x12A4 JUMPI DUP1 PUSH4 0x3FD8B02F EQ PUSH2 0x1286 JUMPI DUP1 PUSH4 0x44C4AEA9 EQ PUSH2 0x125D JUMPI DUP1 PUSH4 0x476343EE EQ PUSH2 0x10E0 JUMPI DUP1 PUSH4 0x4E94C285 EQ PUSH2 0x10A9 JUMPI DUP1 PUSH4 0x5747E69F EQ PUSH2 0x1086 JUMPI DUP1 PUSH4 0x5C975ABB EQ PUSH2 0x1044 JUMPI DUP1 PUSH4 0x5EB186F8 EQ PUSH2 0x1019 JUMPI DUP1 PUSH4 0x5FCBD285 EQ PUSH2 0xFF0 JUMPI DUP1 PUSH4 0x6386C1C7 EQ PUSH2 0xEFC JUMPI DUP1 PUSH4 0x63A599A4 EQ PUSH2 0xEDB JUMPI DUP1 PUSH4 0x67D81740 EQ PUSH2 0xEBF JUMPI DUP1 PUSH4 0x6C7ECB78 EQ PUSH2 0xE9E JUMPI DUP1 PUSH4 0x6F3BA889 EQ PUSH2 0xE09 JUMPI DUP1 PUSH4 0x715018A6 EQ PUSH2 0xD9F JUMPI DUP1 PUSH4 0x78D60A5B EQ PUSH2 0xD66 JUMPI DUP1 PUSH4 0x7BBFFFA5 EQ PUSH2 0xD36 JUMPI DUP1 PUSH4 0x8DA5CB5B EQ PUSH2 0xD00 JUMPI DUP1 PUSH4 0x9003ADFE EQ PUSH2 0xCE2 JUMPI DUP1 PUSH4 0x910956AA EQ PUSH2 0xCC5 JUMPI DUP1 PUSH4 0x91DB7B0D EQ PUSH2 0xC6F JUMPI DUP1 PUSH4 0x9FB82DB9 EQ PUSH2 0xAE2 JUMPI DUP1 PUSH4 0xA113601B EQ PUSH2 0xAC1 JUMPI DUP1 PUSH4 0xACB422C5 EQ PUSH2 0xA3E JUMPI DUP1 PUSH4 0xB507D70F EQ PUSH2 0xA20 JUMPI DUP1 PUSH4 0xB6B55F25 EQ PUSH2 0x7D6 JUMPI DUP1 PUSH4 0xC74AD493 EQ PUSH2 0x79E JUMPI DUP1 PUSH4 0xCCAAD55D EQ PUSH2 0x77B JUMPI DUP1 PUSH4 0xCE2040C8 EQ PUSH2 0x754 JUMPI DUP1 PUSH4 0xDB03E227 EQ PUSH2 0x607 JUMPI DUP1 PUSH4 0xDFE6B5D6 EQ PUSH2 0x55B JUMPI DUP1 PUSH4 0xE1E158A5 EQ PUSH2 0x539 JUMPI DUP1 PUSH4 0xE766C835 EQ PUSH2 0x51B JUMPI DUP1 PUSH4 0xEE172546 EQ PUSH2 0x4FD JUMPI DUP1 PUSH4 0xF2FDE38B EQ PUSH2 0x4D0 JUMPI DUP1 PUSH4 0xF8C8765E EQ PUSH2 0x231 JUMPI PUSH4 0xFD5E6DD1 EQ PUSH2 0x1EB JUMPI PUSH1 0x0 DUP1 REVERT JUMPDEST CALLVALUE PUSH2 0x22E JUMPI PUSH1 0x20 CALLDATASIZE PUSH1 0x3 NOT ADD SLT PUSH2 0x22E JUMPI PUSH1 0x4 CALLDATALOAD SWAP1 PUSH1 0xB SLOAD DUP3 LT ISZERO PUSH2 0x22E JUMPI PUSH1 0x20 PUSH2 0x215 DUP4 PUSH2 0x182A JUMP JUMPDEST SWAP1 SLOAD PUSH1 0x40 MLOAD PUSH1 0x3 SWAP3 SWAP1 SWAP3 SHL SHR PUSH1 0x1 PUSH1 0x1 PUSH1 0xA0 SHL SUB AND DUP2 MSTORE RETURN JUMPDEST DUP1 REVERT JUMPDEST POP CALLVALUE PUSH2 0x22E JUMPI PUSH1 0x80 CALLDATASIZE PUSH1 0x3 NOT ADD SLT PUSH2 0x22E JUMPI PUSH2 0x24B PUSH2 0x17EC JUMP JUMPDEST SWAP1 PUSH1 0x24 CALLDATALOAD PUSH1 0x1 PUSH1 0x1 PUSH1 0xA0 SHL SUB DUP2 AND SWAP1 DUP2 SWAP1 SUB PUSH2 0x4CC JUMPI PUSH1 0x44 CALLDATALOAD PUSH1 0x1 PUSH1 0x1 PUSH1 0xA0 SHL SUB DUP2 AND SWAP1 DUP2 SWAP1 SUB PUSH2 0x4C8 JUMPI PUSH1 0x64 CALLDATALOAD SWAP1 PUSH1 0x1 PUSH1 0x1 PUSH1 0xA0 SHL SUB DUP3 AND DUP3 SUB PUSH2 0x4C4 JUMPI PUSH1 0x0 DUP1 MLOAD PUSH1 0x20 PUSH2 0x1EC3 DUP4 CODECOPY DUP2 MLOAD SWAP2 MSTORE SLOAD SWAP3 PUSH1 0xFF DUP5 PUSH1 0x40 SHR AND ISZERO SWAP4 PUSH8 0xFFFFFFFFFFFFFFFF DUP2 AND DUP1 ISZERO SWAP1 DUP2 PUSH2 0x4BC JUMPI JUMPDEST PUSH1 0x1 EQ SWAP1 DUP2 PUSH2 0x4B2 JUMPI JUMPDEST ISZERO SWAP1 DUP2 PUSH2 0x4A9 JUMPI JUMPDEST POP PUSH2 0x49A JUMPI PUSH8 0xFFFFFFFFFFFFFFFF NOT DUP2 AND PUSH1 0x1 OR PUSH1 0x0 DUP1 MLOAD PUSH1 0x20 PUSH2 0x1EC3 DUP4 CODECOPY DUP2 MLOAD SWAP2 MSTORE SSTORE DUP5 PUSH2 0x46D JUMPI JUMPDEST POP PUSH2 0x2FD PUSH2 0x1E74 JUMP JUMPDEST PUSH2 0x305 PUSH2 0x1E74 JUMP JUMPDEST PUSH2 0x30D PUSH2 0x1E74 JUMP JUMPDEST PUSH2 0x316 DUP4 PUSH2 0x1CA8 JUMP JUMPDEST PUSH2 0x31E PUSH2 0x1E74 JUMP JUMPDEST PUSH2 0x326 PUSH2 0x1E74 JUMP JUMPDEST PUSH1 0xFF NOT PUSH1 0x0 SLOAD AND PUSH1 0x0 SSTORE NUMBER PUSH1 0xA SSTORE PUSH1 0x1 PUSH1 0xFF NOT PUSH1 0xF SLOAD AND OR PUSH1 0xF SSTORE PUSH1 0x40 MLOAD SWAP6 PUSH1 0x80 DUP8 ADD SWAP7 DUP1 DUP9 LT PUSH8 0xFFFFFFFFFFFFFFFF DUP10 GT OR PUSH2 0x459 JUMPI PUSH2 0x3F8 SWAP6 SWAP7 SWAP8 PUSH1 0x40 MSTORE PUSH8 0x16345785D8A0000 DUP2 MSTORE PUSH8 0xDE0B6B3A7640000 PUSH1 0x20 DUP3 ADD MSTORE PUSH1 0x2 PUSH1 0x40 DUP3 ADD MSTORE PUSH1 0x60 TIMESTAMP SWAP2 ADD MSTORE PUSH8 0x16345785D8A0000 PUSH1 0x3 SSTORE PUSH8 0xDE0B6B3A7640000 PUSH1 0x4 SSTORE PUSH1 0x2 PUSH1 0x5 SSTORE TIMESTAMP PUSH1 0x6 SSTORE DUP7 SLOAD SWAP1 PUSH2 0x100 PUSH1 0x1 PUSH1 0xA8 SHL SUB SWAP1 PUSH1 0x8 SHL AND SWAP1 PUSH2 0x100 PUSH1 0x1 PUSH1 0xA8 SHL SUB NOT AND OR DUP7 SSTORE PUSH1 0x1 PUSH1 0x1 PUSH1 0x60 SHL SUB PUSH1 0xA0 SHL PUSH1 0x1 SLOAD AND OR PUSH1 0x1 SSTORE PUSH1 0x1 PUSH1 0x1 PUSH1 0x60 SHL SUB PUSH1 0xA0 SHL PUSH1 0x2 SLOAD AND OR PUSH1 0x2 SSTORE PUSH2 0x1E1E JUMP JUMPDEST PUSH2 0x3FF JUMPI DUP1 RETURN JUMPDEST PUSH9 0xFF0000000000000000 NOT PUSH1 0x0 DUP1 MLOAD PUSH1 0x20 PUSH2 0x1EC3 DUP4 CODECOPY DUP2 MLOAD SWAP2 MSTORE SLOAD AND PUSH1 0x0 DUP1 MLOAD PUSH1 0x20 PUSH2 0x1EC3 DUP4 CODECOPY DUP2 MLOAD SWAP2 MSTORE SSTORE PUSH32 0xC7F505B2F371AE2175EE4913F4499E1F2633A7B5936321EED1CDAEB6115181D2 PUSH1 0x20 PUSH1 0x40 MLOAD PUSH1 0x1 DUP2 MSTORE LOG1 DUP1 RETURN JUMPDEST PUSH4 0x4E487B71 PUSH1 0xE0 SHL DUP8 MSTORE PUSH1 0x41 PUSH1 0x4 MSTORE PUSH1 0x24 DUP8 REVERT JUMPDEST PUSH9 0xFFFFFFFFFFFFFFFFFF NOT AND PUSH9 0x10000000000000001 OR PUSH1 0x0 DUP1 MLOAD PUSH1 0x20 PUSH2 0x1EC3 DUP4 CODECOPY DUP2 MLOAD SWAP2 MSTORE SSTORE CODESIZE PUSH2 0x2F4 JUMP JUMPDEST PUSH4 0xF92EE8A9 PUSH1 0xE0 SHL DUP7 MSTORE PUSH1 0x4 DUP7 REVERT JUMPDEST SWAP1 POP ISZERO CODESIZE PUSH2 0x2CA JUMP JUMPDEST ADDRESS EXTCODESIZE ISZERO SWAP2 POP PUSH2 0x2C2 JUMP JUMPDEST DUP7 SWAP2 POP PUSH2 0x2B8 JUMP JUMPDEST DUP4 DUP1 REVERT JUMPDEST DUP3 DUP1 REVERT JUMPDEST POP DUP1 REVERT JUMPDEST POP CALLVALUE PUSH2 0x22E JUMPI PUSH1 0x20 CALLDATASIZE PUSH1 0x3 NOT ADD SLT PUSH2 0x22E JUMPI PUSH2 0x4FA PUSH2 0x4ED PUSH2 0x17EC JUMP JUMPDEST PUSH2 0x4F5 PUSH2 0x1CD8 JUMP JUMPDEST PUSH2 0x1CA8 JUMP JUMPDEST DUP1 RETURN JUMPDEST POP CALLVALUE PUSH2 0x22E JUMPI DUP1 PUSH1 0x3 NOT CALLDATASIZE ADD SLT PUSH2 0x22E JUMPI PUSH1 0x20 PUSH1 0x9 SLOAD PUSH1 0x40 MLOAD SWAP1 DUP2 MSTORE RETURN JUMPDEST POP CALLVALUE PUSH2 0x22E JUMPI DUP1 PUSH1 0x3 NOT CALLDATASIZE ADD SLT PUSH2 0x22E JUMPI PUSH1 0x20 PUSH1 0x7 SLOAD PUSH1 0x40 MLOAD SWAP1 DUP2 MSTORE RETURN JUMPDEST POP CALLVALUE PUSH2 0x22E JUMPI DUP1 PUSH1 0x3 NOT CALLDATASIZE ADD SLT PUSH2 0x22E JUMPI PUSH1 0x20 PUSH1 0x40 MLOAD PUSH7 0x38D7EA4C68000 DUP2 MSTORE RETURN JUMPDEST POP CALLVALUE PUSH2 0x22E JUMPI DUP1 PUSH1 0x3 NOT CALLDATASIZE ADD SLT PUSH2 0x22E JUMPI PUSH1 0xB SLOAD DUP2 DUP1 JUMPDEST DUP3 DUP2 LT PUSH2 0x5B6 JUMPI POP PUSH2 0x5AF PUSH1 0xC0 SWAP4 PUSH1 0x7 SLOAD SWAP1 PUSH1 0x8 SLOAD PUSH1 0xFF PUSH1 0x9 SLOAD SWAP3 SLOAD AND SWAP3 PUSH1 0x40 MLOAD SWAP7 DUP8 MSTORE PUSH1 0x20 DUP8 ADD MSTORE PUSH1 0x40 DUP7 ADD MSTORE PUSH1 0x60 DUP6 ADD MSTORE PUSH1 0x80 DUP5 ADD SWAP1 PUSH2 0x1807 JUMP JUMPDEST PUSH1 0xA0 DUP3 ADD MSTORE RETURN JUMPDEST PUSH2 0x5BF DUP2 PUSH2 0x182A JUMP JUMPDEST SWAP1 SLOAD PUSH1 0x3 SWAP2 SWAP1 SWAP2 SHL SHR PUSH1 0x1 PUSH1 0x1 PUSH1 0xA0 SHL SUB AND DUP5 MSTORE PUSH1 0xC PUSH1 0x20 MSTORE PUSH1 0x40 DUP5 KECCAK256 PUSH1 0x5 ADD SLOAD PUSH1 0x8 SHR PUSH1 0xFF AND PUSH2 0x5F3 JUMPI JUMPDEST PUSH1 0x1 ADD PUSH2 0x572 JUMP JUMPDEST SWAP1 PUSH2 0x5FF PUSH1 0x1 SWAP2 PUSH2 0x1BBF JUMP JUMPDEST SWAP2 SWAP1 POP PUSH2 0x5EB JUMP JUMPDEST POP CALLVALUE PUSH2 0x22E JUMPI DUP1 PUSH1 0x3 NOT CALLDATASIZE ADD SLT PUSH2 0x22E JUMPI PUSH2 0x620 PUSH2 0x1CD8 JUMP JUMPDEST PUSH1 0xFF DUP2 SLOAD AND PUSH1 0x3 DUP2 LT ISZERO PUSH2 0x740 JUMPI DUP1 PUSH2 0x731 JUMPI PUSH1 0x2 EQ PUSH2 0x722 JUMPI DUP1 DUP1 DUP1 JUMPDEST PUSH1 0xB SLOAD DUP2 LT ISZERO PUSH2 0x6D7 JUMPI PUSH2 0x651 DUP2 PUSH2 0x182A JUMP JUMPDEST SWAP1 SLOAD PUSH1 0x3 SWAP2 SWAP1 SWAP2 SHL SHR PUSH1 0x1 PUSH1 0x1 PUSH1 0xA0 SHL SUB AND DUP1 DUP6 MSTORE PUSH1 0xC PUSH1 0x20 MSTORE PUSH1 0x40 DUP6 KECCAK256 PUSH1 0x5 ADD SLOAD PUSH1 0x8 SHR PUSH1 0xFF AND PUSH2 0x687 JUMPI JUMPDEST POP PUSH1 0x1 ADD PUSH2 0x63E JUMP JUMPDEST PUSH2 0x6CA PUSH1 0x1 SWAP3 SWAP4 SWAP5 PUSH2 0x6C4 DUP4 PUSH2 0x6D0 SWAP5 DUP10 MSTORE PUSH1 0xC PUSH1 0x20 MSTORE PUSH1 0x2 PUSH1 0x40 DUP11 KECCAK256 ADD SLOAD SWAP1 PUSH2 0x6B0 DUP2 PUSH2 0x1D0E JUMP JUMPDEST DUP10 MSTORE PUSH1 0xC PUSH1 0x20 MSTORE PUSH1 0x2 PUSH1 0x40 DUP11 KECCAK256 ADD SLOAD PUSH2 0x1953 JUMP JUMPDEST SWAP1 PUSH2 0x185B JUMP JUMPDEST SWAP4 PUSH2 0x1BBF JUMP JUMPDEST SWAP2 SWAP1 PUSH2 0x67E JUMP JUMPDEST POP PUSH32 0x6AE8EE960D83517F7FA993AD7A0E16E33D9655A23FF41EEFC62BDB289C7A8E5F SWAP2 PUSH2 0x71C PUSH1 0x40 MLOAD SWAP3 DUP4 SWAP3 TIMESTAMP SWAP2 DUP5 PUSH1 0x40 SWAP2 SWAP5 SWAP4 SWAP3 PUSH1 0x60 DUP3 ADD SWAP6 DUP3 MSTORE PUSH1 0x20 DUP3 ADD MSTORE ADD MSTORE JUMP JUMPDEST SUB SWAP1 LOG1 DUP1 RETURN JUMPDEST PUSH4 0x3435875F PUSH1 0xE1 SHL DUP2 MSTORE PUSH1 0x4 SWAP1 REVERT JUMPDEST PUSH4 0x566498C1 PUSH1 0xE1 SHL DUP3 MSTORE PUSH1 0x4 DUP3 REVERT JUMPDEST PUSH4 0x4E487B71 PUSH1 0xE0 SHL DUP3 MSTORE PUSH1 0x21 PUSH1 0x4 MSTORE PUSH1 0x24 DUP3 REVERT JUMPDEST POP CALLVALUE PUSH2 0x22E JUMPI DUP1 PUSH1 0x3 NOT CALLDATASIZE ADD SLT PUSH2 0x22E JUMPI PUSH1 0xFF PUSH1 0x20 SWAP2 SLOAD AND PUSH2 0x779 PUSH1 0x40 MLOAD DUP1 SWAP3 PUSH2 0x1807 JUMP JUMPDEST RETURN JUMPDEST POP CALLVALUE PUSH2 0x22E JUMPI DUP1 PUSH1 0x3 NOT CALLDATASIZE ADD SLT PUSH2 0x22E JUMPI PUSH1 0x20 PUSH2 0x796 PUSH2 0x1C43 JUMP JUMPDEST PUSH1 0x40 MLOAD SWAP1 DUP2 MSTORE RETURN JUMPDEST POP CALLVALUE PUSH2 0x22E JUMPI PUSH1 0x20 CALLDATASIZE PUSH1 0x3 NOT ADD SLT PUSH2 0x22E JUMPI PUSH1 0x4 CALLDATALOAD DUP1 ISZERO ISZERO DUP1 SWAP2 SUB PUSH2 0x4CC JUMPI PUSH2 0x7C5 PUSH2 0x1CD8 JUMP JUMPDEST PUSH1 0xFF DUP1 NOT PUSH1 0xF SLOAD AND SWAP2 AND OR PUSH1 0xF SSTORE DUP1 RETURN JUMPDEST POP CALLVALUE PUSH2 0x22E JUMPI PUSH1 0x20 CALLDATASIZE PUSH1 0x3 NOT ADD SLT PUSH2 0x22E JUMPI PUSH1 0x4 CALLDATALOAD PUSH1 0xFF DUP3 SLOAD AND PUSH1 0x3 DUP2 LT ISZERO PUSH2 0xA0C JUMPI DUP1 PUSH2 0x9FD JUMPI PUSH1 0x2 EQ PUSH2 0x9EE JUMPI PUSH7 0x38D7EA4C68000 DUP2 LT PUSH2 0x9DF JUMPI PUSH2 0x2710 PUSH1 0xB SLOAD LT ISZERO DUP1 PUSH2 0x9C5 JUMPI JUMPDEST PUSH2 0x9B6 JUMPI PUSH1 0x1 SLOAD PUSH1 0x40 MLOAD PUSH4 0x23B872DD PUSH1 0xE0 SHL DUP2 MSTORE CALLER PUSH1 0x4 DUP3 ADD MSTORE ADDRESS PUSH1 0x24 DUP3 ADD MSTORE PUSH1 0x44 DUP2 ADD DUP4 SWAP1 MSTORE SWAP1 PUSH1 0x20 SWAP1 DUP3 SWAP1 PUSH1 0x64 SWAP1 DUP3 SWAP1 DUP8 SWAP1 PUSH1 0x1 PUSH1 0x1 PUSH1 0xA0 SHL SUB AND GAS CALL SWAP1 DUP2 ISZERO PUSH2 0x9AB JUMPI DUP4 SWAP2 PUSH2 0x97C JUMPI JUMPDEST POP ISZERO PUSH2 0x96D JUMPI CALLER DUP3 MSTORE PUSH1 0xC PUSH1 0x20 MSTORE PUSH1 0x40 DUP3 KECCAK256 PUSH1 0x5 DUP2 ADD SWAP1 PUSH1 0xFF DUP3 SLOAD AND ISZERO PUSH2 0x8EE JUMPI JUMPDEST PUSH2 0x89B DUP4 DUP3 SLOAD PUSH2 0x185B JUMP JUMPDEST SWAP1 SSTORE PUSH2 0x100 PUSH2 0xFF00 NOT DUP3 SLOAD AND OR SWAP1 SSTORE PUSH2 0x8B6 DUP2 PUSH1 0x7 SLOAD PUSH2 0x185B JUMP JUMPDEST PUSH1 0x7 SSTORE PUSH1 0x40 MLOAD SWAP1 DUP2 MSTORE TIMESTAMP PUSH1 0x20 DUP3 ADD MSTORE PUSH32 0x90890809C654F11D6E72A28FA60149770A0D11EC6C92319D6CEB2BB0A4EA1A15 PUSH1 0x40 CALLER SWAP3 LOG2 DUP1 RETURN JUMPDEST PUSH1 0xB SLOAD CALLER DUP6 MSTORE PUSH1 0xD PUSH1 0x20 MSTORE DUP1 PUSH1 0x40 DUP7 KECCAK256 SSTORE PUSH9 0x10000000000000000 DUP2 LT ISZERO PUSH2 0x959 JUMPI DUP1 PUSH1 0x1 PUSH2 0x920 SWAP3 ADD PUSH1 0xB SSTORE PUSH2 0x182A JUMP JUMPDEST DUP2 SLOAD PUSH1 0x1 PUSH1 0x1 PUSH1 0xA0 SHL SUB PUSH1 0x3 SWAP3 SWAP1 SWAP3 SHL SWAP2 DUP3 SHL NOT AND CALLER SWAP1 SWAP2 SHL OR SWAP1 SSTORE DUP2 SLOAD PUSH1 0xFF NOT AND PUSH1 0x1 SWAP1 DUP2 OR DUP4 SSTORE TIMESTAMP PUSH1 0x4 DUP4 ADD SSTORE NUMBER SWAP1 DUP3 ADD SSTORE PUSH2 0x890 JUMP JUMPDEST PUSH4 0x4E487B71 PUSH1 0xE0 SHL DUP6 MSTORE PUSH1 0x41 PUSH1 0x4 MSTORE PUSH1 0x24 DUP6 REVERT JUMPDEST PUSH4 0xF45377A9 PUSH1 0xE0 SHL DUP3 MSTORE PUSH1 0x4 DUP3 REVERT JUMPDEST PUSH2 0x99E SWAP2 POP PUSH1 0x20 RETURNDATASIZE PUSH1 0x20 GT PUSH2 0x9A4 JUMPI JUMPDEST PUSH2 0x996 DUP2 DUP4 PUSH2 0x1781 JUMP JUMPDEST DUP2 ADD SWAP1 PUSH2 0x1960 JUMP JUMPDEST CODESIZE PUSH2 0x86E JUMP JUMPDEST POP RETURNDATASIZE PUSH2 0x98C JUMP JUMPDEST PUSH1 0x40 MLOAD RETURNDATASIZE DUP6 DUP3 RETURNDATACOPY RETURNDATASIZE SWAP1 REVERT JUMPDEST PUSH4 0x4F26E789 PUSH1 0xE0 SHL DUP3 MSTORE PUSH1 0x4 DUP3 REVERT JUMPDEST POP CALLER DUP3 MSTORE PUSH1 0xC PUSH1 0x20 MSTORE PUSH1 0xFF PUSH1 0x5 PUSH1 0x40 DUP5 KECCAK256 ADD SLOAD AND ISZERO PUSH2 0x821 JUMP JUMPDEST PUSH4 0x8339C1AD PUSH1 0xE0 SHL DUP3 MSTORE PUSH1 0x4 DUP3 REVERT JUMPDEST PUSH4 0x3435875F PUSH1 0xE1 SHL DUP3 MSTORE PUSH1 0x4 DUP3 REVERT JUMPDEST PUSH4 0x566498C1 PUSH1 0xE1 SHL DUP4 MSTORE PUSH1 0x4 DUP4 REVERT JUMPDEST PUSH4 0x4E487B71 PUSH1 0xE0 SHL DUP4 MSTORE PUSH1 0x21 PUSH1 0x4 MSTORE PUSH1 0x24 DUP4 REVERT JUMPDEST POP CALLVALUE PUSH2 0x22E JUMPI DUP1 PUSH1 0x3 NOT CALLDATASIZE ADD SLT PUSH2 0x22E JUMPI PUSH1 0x20 PUSH1 0xA SLOAD PUSH1 0x40 MLOAD SWAP1 DUP2 MSTORE RETURN JUMPDEST POP CALLVALUE PUSH2 0x22E JUMPI PUSH1 0x20 CALLDATASIZE PUSH1 0x3 NOT ADD SLT PUSH2 0x22E JUMPI PUSH1 0xE0 SWAP1 PUSH1 0x40 SWAP1 PUSH1 0x1 PUSH1 0x1 PUSH1 0xA0 SHL SUB PUSH2 0xA66 PUSH2 0x17EC JUMP JUMPDEST AND DUP2 MSTORE PUSH1 0xC PUSH1 0x20 MSTORE KECCAK256 PUSH1 0xFF DUP2 SLOAD SWAP2 PUSH1 0x1 DUP2 ADD SLOAD SWAP1 PUSH1 0x2 DUP2 ADD SLOAD PUSH1 0x3 DUP3 ADD SLOAD SWAP1 PUSH1 0x5 PUSH1 0x4 DUP5 ADD SLOAD SWAP4 ADD SLOAD SWAP4 PUSH1 0x40 MLOAD SWAP7 DUP8 MSTORE PUSH1 0x20 DUP8 ADD MSTORE PUSH1 0x40 DUP7 ADD MSTORE PUSH1 0x60 DUP6 ADD MSTORE PUSH1 0x80 DUP5 ADD MSTORE DUP2 DUP2 AND ISZERO ISZERO PUSH1 0xA0 DUP5 ADD MSTORE PUSH1 0x8 SHR AND ISZERO ISZERO PUSH1 0xC0 DUP3 ADD MSTORE RETURN JUMPDEST POP CALLVALUE PUSH2 0x22E JUMPI DUP1 PUSH1 0x3 NOT CALLDATASIZE ADD SLT PUSH2 0x22E JUMPI PUSH2 0xADA PUSH2 0x1CD8 JUMP JUMPDEST PUSH2 0x4FA PUSH2 0x1BE6 JUMP JUMPDEST POP CALLVALUE PUSH2 0x22E JUMPI DUP1 PUSH1 0x3 NOT CALLDATASIZE ADD SLT PUSH2 0x22E JUMPI PUSH1 0xB SLOAD DUP2 DUP1 JUMPDEST DUP3 DUP2 LT PUSH2 0xC1E JUMPI POP PUSH2 0xB23 PUSH2 0xB0D DUP3 PUSH2 0x1BCE JUMP JUMPDEST SWAP2 PUSH2 0xB1B PUSH1 0x40 MLOAD SWAP4 DUP5 PUSH2 0x1781 JUMP JUMPDEST DUP1 DUP4 MSTORE PUSH2 0x1BCE JUMP JUMPDEST PUSH1 0x20 DUP3 ADD SWAP3 SWAP1 PUSH1 0x1F NOT ADD CALLDATASIZE DUP5 CALLDATACOPY DUP4 SWAP1 DUP5 JUMPDEST DUP2 DUP2 LT PUSH2 0xB89 JUMPI POP POP POP SWAP1 PUSH1 0x40 MLOAD SWAP3 DUP4 SWAP3 PUSH1 0x20 DUP5 ADD SWAP1 PUSH1 0x20 DUP6 MSTORE MLOAD DUP1 SWAP2 MSTORE PUSH1 0x40 DUP5 ADD SWAP3 SWAP2 JUMPDEST DUP2 DUP2 LT PUSH2 0xB67 JUMPI POP POP POP SUB SWAP1 RETURN JUMPDEST DUP3 MLOAD PUSH1 0x1 PUSH1 0x1 PUSH1 0xA0 SHL SUB AND DUP5 MSTORE DUP6 SWAP5 POP PUSH1 0x20 SWAP4 DUP5 ADD SWAP4 SWAP1 SWAP3 ADD SWAP2 PUSH1 0x1 ADD PUSH2 0xB59 JUMP JUMPDEST PUSH2 0xB92 DUP2 PUSH2 0x182A JUMP JUMPDEST SWAP1 SLOAD PUSH1 0x3 SWAP2 SWAP1 SWAP2 SHL SHR PUSH1 0x1 PUSH1 0x1 PUSH1 0xA0 SHL SUB AND DUP7 MSTORE PUSH1 0xC PUSH1 0x20 MSTORE PUSH1 0x40 DUP7 KECCAK256 PUSH1 0x5 ADD SLOAD PUSH1 0x8 SHR PUSH1 0xFF AND PUSH2 0xBC6 JUMPI JUMPDEST PUSH1 0x1 ADD PUSH2 0xB34 JUMP JUMPDEST SWAP2 PUSH2 0xBD0 DUP4 PUSH2 0x182A JUMP JUMPDEST SWAP1 SLOAD DUP6 MLOAD PUSH1 0x3 SWAP3 SWAP1 SWAP3 SHL SHR PUSH1 0x1 PUSH1 0x1 PUSH1 0xA0 SHL SUB AND SWAP1 DUP3 LT ISZERO PUSH2 0xC0A JUMPI DUP2 PUSH2 0xC02 SWAP2 PUSH1 0x20 PUSH1 0x1 SWAP5 PUSH1 0x5 SHL DUP9 ADD ADD MSTORE PUSH2 0x1BBF JUMP JUMPDEST SWAP3 SWAP1 POP PUSH2 0xBBE JUMP JUMPDEST PUSH4 0x4E487B71 PUSH1 0xE0 SHL DUP8 MSTORE PUSH1 0x32 PUSH1 0x4 MSTORE PUSH1 0x24 DUP8 REVERT JUMPDEST PUSH2 0xC27 DUP2 PUSH2 0x182A JUMP JUMPDEST SWAP1 SLOAD PUSH1 0x3 SWAP2 SWAP1 SWAP2 SHL SHR PUSH1 0x1 PUSH1 0x1 PUSH1 0xA0 SHL SUB AND DUP5 MSTORE PUSH1 0xC PUSH1 0x20 MSTORE PUSH1 0x40 DUP5 KECCAK256 PUSH1 0x5 ADD SLOAD PUSH1 0x8 SHR PUSH1 0xFF AND PUSH2 0xC5B JUMPI JUMPDEST PUSH1 0x1 ADD PUSH2 0xAF9 JUMP JUMPDEST SWAP1 PUSH2 0xC67 PUSH1 0x1 SWAP2 PUSH2 0x1BBF JUMP JUMPDEST SWAP2 SWAP1 POP PUSH2 0xC53 JUMP JUMPDEST POP CALLVALUE PUSH2 0x22E JUMPI PUSH1 0x20 CALLDATASIZE PUSH1 0x3 NOT ADD SLT PUSH2 0x22E JUMPI PUSH32 0x5DD7B309B7BC5010D9C96159EE535A428121D6803CB847792402FFFCCAF1569A PUSH1 0x40 PUSH1 0x4 CALLDATALOAD PUSH2 0xCAF PUSH2 0x1CD8 JUMP JUMPDEST PUSH1 0xE SLOAD SWAP1 DUP1 PUSH1 0xE SSTORE DUP3 MLOAD SWAP2 DUP3 MSTORE PUSH1 0x20 DUP3 ADD MSTORE LOG1 DUP1 RETURN JUMPDEST POP CALLVALUE PUSH2 0x22E JUMPI DUP1 PUSH1 0x3 NOT CALLDATASIZE ADD SLT PUSH2 0x22E JUMPI PUSH1 0x20 PUSH1 0x40 MLOAD PUSH2 0x2710 DUP2 MSTORE RETURN JUMPDEST POP CALLVALUE PUSH2 0x22E JUMPI DUP1 PUSH1 0x3 NOT CALLDATASIZE ADD SLT PUSH2 0x22E JUMPI PUSH1 0x20 PUSH1 0x8 SLOAD PUSH1 0x40 MLOAD SWAP1 DUP2 MSTORE RETURN JUMPDEST POP CALLVALUE PUSH2 0x22E JUMPI DUP1 PUSH1 0x3 NOT CALLDATASIZE ADD SLT PUSH2 0x22E JUMPI PUSH1 0x0 DUP1 MLOAD PUSH1 0x20 PUSH2 0x1EA3 DUP4 CODECOPY DUP2 MLOAD SWAP2 MSTORE SLOAD PUSH1 0x40 MLOAD PUSH1 0x1 PUSH1 0x1 PUSH1 0xA0 SHL SUB SWAP1 SWAP2 AND DUP2 MSTORE PUSH1 0x20 SWAP1 RETURN JUMPDEST POP CALLVALUE PUSH2 0x22E JUMPI PUSH1 0x20 CALLDATASIZE PUSH1 0x3 NOT ADD SLT PUSH2 0x22E JUMPI PUSH1 0x40 PUSH2 0xD5A PUSH2 0xD55 PUSH2 0x17EC JUMP JUMPDEST PUSH2 0x1A71 JUMP JUMPDEST DUP3 MLOAD SWAP2 DUP3 MSTORE PUSH1 0x20 DUP3 ADD MSTORE RETURN JUMPDEST POP CALLVALUE PUSH2 0x22E JUMPI PUSH1 0x20 CALLDATASIZE PUSH1 0x3 NOT ADD SLT PUSH2 0x22E JUMPI PUSH1 0x20 SWAP1 PUSH1 0x40 SWAP1 PUSH1 0x1 PUSH1 0x1 PUSH1 0xA0 SHL SUB PUSH2 0xD8E PUSH2 0x17EC JUMP JUMPDEST AND DUP2 MSTORE PUSH1 0xD DUP4 MSTORE KECCAK256 SLOAD PUSH1 0x40 MLOAD SWAP1 DUP2 MSTORE RETURN JUMPDEST POP CALLVALUE PUSH2 0x22E JUMPI DUP1 PUSH1 0x3 NOT CALLDATASIZE ADD SLT PUSH2 0x22E JUMPI PUSH2 0xDB8 PUSH2 0x1CD8 JUMP JUMPDEST PUSH1 0x0 DUP1 MLOAD PUSH1 0x20 PUSH2 0x1EA3 DUP4 CODECOPY DUP2 MLOAD SWAP2 MSTORE DUP1 SLOAD PUSH1 0x1 PUSH1 0x1 PUSH1 0xA0 SHL SUB NOT DUP2 AND SWAP1 SWAP2 SSTORE DUP2 SWAP1 PUSH1 0x1 PUSH1 0x1 PUSH1 0xA0 SHL SUB AND PUSH32 0x8BE0079C531659141344CD1FD0A4F28419497F9722A3DAAFE3B4186F6B6457E0 DUP3 DUP1 LOG3 DUP1 RETURN JUMPDEST POP CALLVALUE PUSH2 0x22E JUMPI PUSH1 0x60 CALLDATASIZE PUSH1 0x3 NOT ADD SLT PUSH2 0x22E JUMPI PUSH1 0x44 CALLDATALOAD SWAP1 PUSH1 0x24 CALLDATALOAD PUSH1 0x4 CALLDATALOAD PUSH2 0xE2D PUSH2 0x1CD8 JUMP JUMPDEST DUP2 DUP2 GT PUSH2 0xE8F JUMPI PUSH1 0x32 DUP5 GT PUSH2 0xE8F JUMPI PUSH2 0x71C PUSH32 0x81376037ED87033D6B5601A7C8806A8A7A2649525C23FE62315EB82C39C7E247 SWAP4 SWAP5 DUP3 PUSH1 0x3 SSTORE DUP4 PUSH1 0x4 SSTORE DUP1 PUSH1 0x5 SSTORE TIMESTAMP PUSH1 0x6 SSTORE PUSH1 0x40 MLOAD SWAP4 DUP5 SWAP4 DUP5 PUSH1 0x40 SWAP2 SWAP5 SWAP4 SWAP3 PUSH1 0x60 DUP3 ADD SWAP6 DUP3 MSTORE PUSH1 0x20 DUP3 ADD MSTORE ADD MSTORE JUMP JUMPDEST PUSH4 0x1A671641 PUSH1 0xE2 SHL DUP4 MSTORE PUSH1 0x4 DUP4 REVERT JUMPDEST POP CALLVALUE PUSH2 0x22E JUMPI DUP1 PUSH1 0x3 NOT CALLDATASIZE ADD SLT PUSH2 0x22E JUMPI PUSH2 0xEB7 PUSH2 0x1CD8 JUMP JUMPDEST PUSH2 0x4FA PUSH2 0x1A0F JUMP JUMPDEST POP CALLVALUE PUSH2 0x22E JUMPI DUP1 PUSH1 0x3 NOT CALLDATASIZE ADD SLT PUSH2 0x22E JUMPI PUSH1 0x20 PUSH1 0x40 MLOAD PUSH1 0x32 DUP2 MSTORE RETURN JUMPDEST POP CALLVALUE PUSH2 0x22E JUMPI DUP1 PUSH1 0x3 NOT CALLDATASIZE ADD SLT PUSH2 0x22E JUMPI PUSH2 0xEF4 PUSH2 0x1CD8 JUMP JUMPDEST PUSH2 0x4FA PUSH2 0x1978 JUMP JUMPDEST POP CALLVALUE PUSH2 0x22E JUMPI PUSH1 0x20 CALLDATASIZE PUSH1 0x3 NOT ADD SLT PUSH2 0x22E JUMPI PUSH1 0x40 PUSH1 0xE0 SWAP2 PUSH2 0xF1B PUSH2 0x17EC JUMP JUMPDEST DUP2 PUSH1 0xC0 DUP5 MLOAD PUSH2 0xF29 DUP2 PUSH2 0x174F JUMP JUMPDEST DUP3 DUP2 MSTORE DUP3 PUSH1 0x20 DUP3 ADD MSTORE DUP3 DUP7 DUP3 ADD MSTORE DUP3 PUSH1 0x60 DUP3 ADD MSTORE DUP3 PUSH1 0x80 DUP3 ADD MSTORE DUP3 PUSH1 0xA0 DUP3 ADD MSTORE ADD MSTORE PUSH1 0x1 DUP1 PUSH1 0xA0 SHL SUB AND DUP2 MSTORE PUSH1 0xC PUSH1 0x20 MSTORE KECCAK256 PUSH1 0x40 MLOAD SWAP1 PUSH2 0xF68 DUP3 PUSH2 0x174F JUMP JUMPDEST DUP1 SLOAD SWAP2 DUP3 DUP2 MSTORE PUSH1 0x1 DUP3 ADD SLOAD SWAP2 PUSH1 0x20 DUP3 ADD SWAP3 DUP4 MSTORE PUSH1 0x2 DUP2 ADD SLOAD PUSH1 0x40 DUP4 ADD SWAP1 DUP2 MSTORE PUSH1 0x3 DUP3 ADD SLOAD SWAP1 PUSH1 0x60 DUP5 ADD SWAP2 DUP3 MSTORE PUSH1 0x5 PUSH1 0x4 DUP5 ADD SLOAD SWAP4 PUSH1 0x80 DUP7 ADD SWAP5 DUP6 MSTORE ADD SLOAD SWAP5 PUSH1 0xFF PUSH1 0xC0 PUSH1 0xA0 DUP8 ADD SWAP7 DUP3 DUP10 AND ISZERO ISZERO DUP9 MSTORE ADD SWAP7 PUSH1 0x8 SHR AND ISZERO ISZERO DUP7 MSTORE PUSH1 0x40 MLOAD SWAP7 DUP8 MSTORE MLOAD PUSH1 0x20 DUP8 ADD MSTORE MLOAD PUSH1 0x40 DUP7 ADD MSTORE MLOAD PUSH1 0x60 DUP6 ADD MSTORE MLOAD PUSH1 0x80 DUP5 ADD MSTORE MLOAD ISZERO ISZERO PUSH1 0xA0 DUP4 ADD MSTORE MLOAD ISZERO ISZERO PUSH1 0xC0 DUP3 ADD MSTORE RETURN JUMPDEST POP CALLVALUE PUSH2 0x22E JUMPI DUP1 PUSH1 0x3 NOT CALLDATASIZE ADD SLT PUSH2 0x22E JUMPI PUSH1 0x1 SLOAD PUSH1 0x40 MLOAD PUSH1 0x1 PUSH1 0x1 PUSH1 0xA0 SHL SUB SWAP1 SWAP2 AND DUP2 MSTORE PUSH1 0x20 SWAP1 RETURN JUMPDEST POP CALLVALUE PUSH2 0x22E JUMPI DUP1 PUSH1 0x3 NOT CALLDATASIZE ADD SLT PUSH2 0x22E JUMPI SLOAD PUSH1 0x40 MLOAD PUSH1 0x8 SWAP2 SWAP1 SWAP2 SHR PUSH1 0x1 PUSH1 0x1 PUSH1 0xA0 SHL SUB AND DUP2 MSTORE PUSH1 0x20 SWAP1 RETURN JUMPDEST POP CALLVALUE PUSH2 0x22E JUMPI DUP1 PUSH1 0x3 NOT CALLDATASIZE ADD SLT PUSH2 0x22E JUMPI PUSH1 0x20 PUSH1 0xFF PUSH32 0xCD5ED15C6E187E77E9AEE88184C21F4F2182AB5827CB3B7E07FBEDCD63F03300 SLOAD AND PUSH1 0x40 MLOAD SWAP1 ISZERO ISZERO DUP2 MSTORE RETURN JUMPDEST POP CALLVALUE PUSH2 0x22E JUMPI DUP1 PUSH1 0x3 NOT CALLDATASIZE ADD SLT PUSH2 0x22E JUMPI PUSH1 0x20 PUSH1 0xFF PUSH1 0xF SLOAD AND PUSH1 0x40 MLOAD SWAP1 ISZERO ISZERO DUP2 MSTORE RETURN JUMPDEST POP CALLVALUE PUSH2 0x22E JUMPI DUP1 PUSH1 0x3 NOT CALLDATASIZE ADD SLT PUSH2 0x22E JUMPI PUSH1 0x80 PUSH1 0x3 SLOAD PUSH1 0x4 SLOAD PUSH1 0x5 SLOAD PUSH1 0x6 SLOAD SWAP2 PUSH1 0x40 MLOAD SWAP4 DUP5 MSTORE PUSH1 0x20 DUP5 ADD MSTORE PUSH1 0x40 DUP4 ADD MSTORE PUSH1 0x60 DUP3 ADD MSTORE RETURN JUMPDEST POP CALLVALUE PUSH2 0x22E JUMPI DUP1 PUSH1 0x3 NOT CALLDATASIZE ADD SLT PUSH2 0x22E JUMPI PUSH2 0x10F9 PUSH2 0x1CD8 JUMP JUMPDEST PUSH1 0x8 SLOAD DUP1 ISZERO PUSH2 0x124E JUMPI PUSH1 0x8 DUP3 DUP2 SSTORE DUP3 SLOAD PUSH1 0x40 MLOAD PUSH4 0x8DA5CB5B PUSH1 0xE0 SHL DUP2 MSTORE SWAP2 SHR PUSH1 0x1 PUSH1 0x1 PUSH1 0xA0 SHL SUB AND SWAP1 PUSH1 0x20 DUP2 PUSH1 0x4 DUP2 DUP6 GAS STATICCALL SWAP1 DUP2 ISZERO PUSH2 0x1243 JUMPI DUP5 SWAP2 PUSH2 0x1201 JUMPI JUMPDEST POP ADDRESS PUSH1 0x1 PUSH1 0x1 PUSH1 0xA0 SHL SUB SWAP1 SWAP2 AND SUB PUSH2 0xE8F JUMPI PUSH1 0x0 DUP1 MLOAD PUSH1 0x20 PUSH2 0x1EA3 DUP4 CODECOPY DUP2 MLOAD SWAP2 MSTORE SLOAD DUP4 SWAP2 PUSH1 0x1 PUSH1 0x1 PUSH1 0xA0 SHL SUB SWAP1 SWAP2 AND SWAP1 DUP1 EXTCODESIZE ISZERO PUSH2 0x4C8 JUMPI PUSH1 0x40 MLOAD PUSH4 0x40C10F19 PUSH1 0xE0 SHL DUP2 MSTORE PUSH1 0x1 PUSH1 0x1 PUSH1 0xA0 SHL SUB SWAP3 SWAP1 SWAP3 AND PUSH1 0x4 DUP4 ADD MSTORE PUSH1 0x24 DUP3 ADD DUP5 SWAP1 MSTORE DUP3 SWAP1 DUP3 SWAP1 PUSH1 0x44 SWAP1 DUP3 SWAP1 DUP5 SWAP1 GAS CALL DUP1 ISZERO PUSH2 0x11F6 JUMPI PUSH2 0x11E1 JUMPI JUMPDEST POP PUSH32 0xD9787BF70D3926A4A81C52CBA8799D18903CE0132AAA4B7DE9E92DC893303A7F PUSH1 0x40 DUP4 DUP2 MLOAD SWAP1 DUP2 MSTORE TIMESTAMP PUSH1 0x20 DUP3 ADD MSTORE LOG1 DUP1 RETURN JUMPDEST DUP2 PUSH2 0x11EB SWAP2 PUSH2 0x1781 JUMP JUMPDEST PUSH2 0x4CC JUMPI DUP2 CODESIZE PUSH2 0x11AD JUMP JUMPDEST PUSH1 0x40 MLOAD RETURNDATASIZE DUP5 DUP3 RETURNDATACOPY RETURNDATASIZE SWAP1 REVERT JUMPDEST SWAP1 POP PUSH1 0x20 DUP2 RETURNDATASIZE PUSH1 0x20 GT PUSH2 0x123B JUMPI JUMPDEST DUP2 PUSH2 0x121C PUSH1 0x20 SWAP4 DUP4 PUSH2 0x1781 JUMP JUMPDEST DUP2 ADD SUB SLT PUSH2 0x4C4 JUMPI MLOAD PUSH1 0x1 PUSH1 0x1 PUSH1 0xA0 SHL SUB DUP2 AND DUP2 SUB PUSH2 0x4C4 JUMPI CODESIZE PUSH2 0x1139 JUMP JUMPDEST RETURNDATASIZE SWAP2 POP PUSH2 0x120F JUMP JUMPDEST PUSH1 0x40 MLOAD RETURNDATASIZE DUP7 DUP3 RETURNDATACOPY RETURNDATASIZE SWAP1 REVERT JUMPDEST PUSH4 0x79F01141 PUSH1 0xE0 SHL DUP3 MSTORE PUSH1 0x4 DUP3 REVERT JUMPDEST POP CALLVALUE PUSH2 0x22E JUMPI DUP1 PUSH1 0x3 NOT CALLDATASIZE ADD SLT PUSH2 0x22E JUMPI PUSH1 0x2 SLOAD PUSH1 0x40 MLOAD PUSH1 0x1 PUSH1 0x1 PUSH1 0xA0 SHL SUB SWAP1 SWAP2 AND DUP2 MSTORE PUSH1 0x20 SWAP1 RETURN JUMPDEST POP CALLVALUE PUSH2 0x22E JUMPI DUP1 PUSH1 0x3 NOT CALLDATASIZE ADD SLT PUSH2 0x22E JUMPI PUSH1 0x20 PUSH1 0xE SLOAD PUSH1 0x40 MLOAD SWAP1 DUP2 MSTORE RETURN JUMPDEST POP CALLVALUE PUSH2 0x22E JUMPI DUP1 PUSH1 0x3 NOT CALLDATASIZE ADD SLT PUSH2 0x22E JUMPI CALLER DUP2 MSTORE PUSH1 0xC PUSH1 0x20 MSTORE PUSH1 0xFF PUSH1 0x5 PUSH1 0x40 DUP4 KECCAK256 ADD SLOAD PUSH1 0x8 SHR AND ISZERO DUP1 ISZERO PUSH2 0x1442 JUMPI JUMPDEST PUSH2 0x1433 JUMPI PUSH1 0xFF DUP2 SLOAD AND PUSH1 0x3 DUP2 LT ISZERO PUSH2 0x740 JUMPI PUSH1 0x2 EQ DUP1 DUP1 PUSH2 0x1426 JUMPI JUMPDEST PUSH2 0x9EE JUMPI CALLER DUP3 MSTORE PUSH1 0xC PUSH1 0x20 MSTORE PUSH1 0x40 DUP3 KECCAK256 DUP1 SLOAD SWAP2 DUP3 ISZERO PUSH2 0x1417 JUMPI ISZERO DUP1 DUP1 PUSH2 0x140C JUMPI JUMPDEST PUSH2 0x13E5 JUMPI JUMPDEST SWAP1 PUSH1 0x5 SWAP2 PUSH2 0x13D7 JUMPI JUMPDEST DUP4 DUP2 SSTORE ADD PUSH2 0xFF00 NOT DUP2 SLOAD AND SWAP1 SSTORE PUSH2 0x1337 DUP2 PUSH1 0x7 SLOAD PUSH2 0x1953 JUMP JUMPDEST PUSH1 0x7 SSTORE PUSH1 0x1 SLOAD PUSH1 0x40 MLOAD PUSH4 0xA9059CBB PUSH1 0xE0 SHL DUP2 MSTORE CALLER PUSH1 0x4 DUP3 ADD MSTORE PUSH1 0x24 DUP2 ADD DUP4 SWAP1 MSTORE SWAP1 PUSH1 0x20 SWAP1 DUP3 SWAP1 PUSH1 0x44 SWAP1 DUP3 SWAP1 DUP8 SWAP1 PUSH1 0x1 PUSH1 0x1 PUSH1 0xA0 SHL SUB AND GAS CALL SWAP1 DUP2 ISZERO PUSH2 0x9AB JUMPI DUP4 SWAP2 PUSH2 0x13B8 JUMPI JUMPDEST POP ISZERO PUSH2 0x96D JUMPI PUSH1 0x40 MLOAD SWAP1 DUP2 MSTORE TIMESTAMP PUSH1 0x20 DUP3 ADD MSTORE PUSH32 0xF279E6A1F5E320CCA91135676D9CB6E44CA8A08C0B88342BCDB1144F6511B568 PUSH1 0x40 CALLER SWAP3 LOG2 DUP1 RETURN JUMPDEST PUSH2 0x13D1 SWAP2 POP PUSH1 0x20 RETURNDATASIZE PUSH1 0x20 GT PUSH2 0x9A4 JUMPI PUSH2 0x996 DUP2 DUP4 PUSH2 0x1781 JUMP JUMPDEST CODESIZE PUSH2 0x137D JUMP JUMPDEST PUSH2 0x13E0 CALLER PUSH2 0x1D0E JUMP JUMPDEST PUSH2 0x131E JUMP JUMPDEST PUSH2 0x13F6 PUSH1 0x4 DUP4 ADD SLOAD PUSH1 0xE SLOAD SWAP1 PUSH2 0x185B JUMP JUMPDEST TIMESTAMP LT ISZERO PUSH2 0x1315 JUMPI PUSH4 0x1958598B PUSH1 0xE0 SHL DUP5 MSTORE PUSH1 0x4 DUP5 REVERT JUMPDEST POP PUSH1 0xE SLOAD ISZERO ISZERO PUSH2 0x1310 JUMP JUMPDEST PUSH4 0x8339C1AD PUSH1 0xE0 SHL DUP5 MSTORE PUSH1 0x4 DUP5 REVERT JUMPDEST POP PUSH1 0xFF PUSH1 0xF SLOAD AND ISZERO PUSH2 0x12EF JUMP JUMPDEST PUSH4 0x27B95979 PUSH1 0xE0 SHL DUP2 MSTORE PUSH1 0x4 SWAP1 REVERT JUMPDEST POP CALLER DUP2 MSTORE PUSH1 0xC PUSH1 0x20 MSTORE PUSH1 0x40 DUP2 KECCAK256 SLOAD ISZERO PUSH2 0x12D3 JUMP JUMPDEST POP CALLVALUE PUSH2 0x22E JUMPI DUP1 PUSH1 0x3 NOT CALLDATASIZE ADD SLT PUSH2 0x22E JUMPI PUSH1 0xFF DUP2 SLOAD AND PUSH1 0x3 DUP2 LT ISZERO PUSH2 0x740 JUMPI PUSH1 0x2 DUP2 EQ PUSH2 0x9EE JUMPI PUSH2 0x15DC JUMPI CALLER DUP2 MSTORE PUSH1 0xC PUSH1 0x20 MSTORE PUSH1 0xFF PUSH1 0x5 PUSH1 0x40 DUP4 KECCAK256 ADD SLOAD PUSH1 0x8 SHR AND ISZERO DUP1 ISZERO PUSH2 0x15C8 JUMPI JUMPDEST PUSH2 0x1433 JUMPI PUSH2 0x14AC CALLER PUSH2 0x1D0E JUMP JUMPDEST CALLER DUP2 MSTORE PUSH1 0xC PUSH1 0x20 MSTORE PUSH1 0x40 DUP2 KECCAK256 PUSH1 0x2 DUP2 ADD SWAP1 DUP2 SLOAD DUP1 ISZERO PUSH2 0x15B9 JUMPI PUSH1 0x5 SLOAD DUP1 DUP3 MUL SWAP1 DUP3 DUP3 DIV SUB PUSH2 0x15A5 JUMPI SWAP1 PUSH1 0x3 PUSH1 0x64 PUSH2 0x1511 SWAP4 DIV SWAP4 DUP7 PUSH2 0x14EA DUP7 DUP6 PUSH2 0x1953 JUMP JUMPDEST SWAP7 SSTORE ADD PUSH2 0x14F8 DUP6 DUP3 SLOAD PUSH2 0x185B JUMP JUMPDEST SWAP1 SSTORE PUSH2 0x1506 DUP4 PUSH1 0x8 SLOAD PUSH2 0x185B JUMP JUMPDEST PUSH1 0x8 SSTORE PUSH1 0x9 SLOAD PUSH2 0x185B JUMP JUMPDEST PUSH1 0x9 SSTORE DUP3 SLOAD PUSH1 0x8 SHR PUSH1 0x1 PUSH1 0x1 PUSH1 0xA0 SHL SUB AND DUP1 EXTCODESIZE ISZERO PUSH2 0x4C4 JUMPI PUSH1 0x40 MLOAD PUSH4 0x40C10F19 PUSH1 0xE0 SHL DUP2 MSTORE CALLER PUSH1 0x4 DUP3 ADD MSTORE PUSH1 0x24 DUP2 ADD DUP5 SWAP1 MSTORE SWAP1 DUP5 SWAP1 DUP3 SWAP1 PUSH1 0x44 SWAP1 DUP3 SWAP1 DUP5 SWAP1 GAS CALL DUP1 ISZERO PUSH2 0x1243 JUMPI PUSH2 0x1591 JUMPI JUMPDEST POP PUSH1 0x40 MLOAD SWAP2 DUP3 MSTORE PUSH1 0x20 DUP3 ADD MSTORE PUSH32 0xDACBDDE355BA930696A362EA6738FEB9F8BD52DFB3D81947558FD3217E23E325 PUSH1 0x40 CALLER SWAP3 LOG2 DUP1 RETURN JUMPDEST DUP4 PUSH2 0x159E SWAP2 SWAP5 SWAP3 SWAP5 PUSH2 0x1781 JUMP JUMPDEST SWAP2 CODESIZE PUSH2 0x155C JUMP JUMPDEST PUSH4 0x4E487B71 PUSH1 0xE0 SHL DUP6 MSTORE PUSH1 0x11 PUSH1 0x4 MSTORE PUSH1 0x24 DUP6 REVERT JUMPDEST PUSH4 0x7363943 PUSH1 0xE5 SHL DUP5 MSTORE PUSH1 0x4 DUP5 REVERT JUMPDEST POP CALLER DUP2 MSTORE PUSH1 0xC PUSH1 0x20 MSTORE PUSH1 0x40 DUP2 KECCAK256 SLOAD ISZERO PUSH2 0x149F JUMP JUMPDEST PUSH4 0x566498C1 PUSH1 0xE1 SHL DUP2 MSTORE PUSH1 0x4 SWAP1 REVERT JUMPDEST POP CALLVALUE PUSH2 0x22E JUMPI PUSH1 0x20 CALLDATASIZE PUSH1 0x3 NOT ADD SLT PUSH2 0x22E JUMPI PUSH1 0x40 PUSH2 0x160F PUSH2 0x160A PUSH2 0x17EC JUMP JUMPDEST PUSH2 0x187E JUMP JUMPDEST DUP3 MLOAD SWAP2 ISZERO ISZERO DUP3 MSTORE PUSH1 0x20 DUP3 ADD MSTORE RETURN JUMPDEST POP CALLVALUE PUSH2 0x22E JUMPI DUP1 PUSH1 0x3 NOT CALLDATASIZE ADD SLT PUSH2 0x22E JUMPI POP PUSH2 0x165E PUSH1 0x40 MLOAD PUSH2 0x1640 PUSH1 0x40 DUP3 PUSH2 0x1781 JUMP JUMPDEST PUSH1 0x5 DUP2 MSTORE PUSH5 0x312E302E3 PUSH1 0xDC SHL PUSH1 0x20 DUP3 ADD MSTORE PUSH1 0x40 MLOAD SWAP2 DUP3 SWAP2 DUP3 PUSH2 0x17A3 JUMP JUMPDEST SUB SWAP1 RETURN JUMPDEST POP CALLVALUE PUSH2 0x22E JUMPI DUP1 PUSH1 0x3 NOT CALLDATASIZE ADD SLT PUSH2 0x22E JUMPI POP PUSH2 0x165E PUSH1 0x40 MLOAD PUSH2 0x1685 PUSH1 0x40 DUP3 PUSH2 0x1781 JUMP JUMPDEST PUSH1 0x17 DUP2 MSTORE PUSH32 0x50726F706F7274696F6E616C20546F6B656E204661726D000000000000000000 PUSH1 0x20 DUP3 ADD MSTORE PUSH1 0x40 MLOAD SWAP2 DUP3 SWAP2 DUP3 PUSH2 0x17A3 JUMP JUMPDEST POP CALLVALUE PUSH2 0x22E JUMPI PUSH1 0x20 CALLDATASIZE PUSH1 0x3 NOT ADD SLT PUSH2 0x22E JUMPI PUSH1 0x4 CALLDATALOAD PUSH1 0x1 PUSH1 0x1 PUSH1 0xA0 SHL SUB DUP2 AND SWAP1 DUP2 SWAP1 SUB PUSH2 0x4CC JUMPI PUSH2 0x16EA PUSH2 0x1CD8 JUMP JUMPDEST DUP1 ISZERO PUSH2 0x1740 JUMPI PUSH1 0x40 PUSH32 0xE4CEC16B1A7E6B7979E923DA619A8B1E5FD0F0FB6E5C1CF647F350430EE61CA9 SWAP2 PUSH1 0x2 SLOAD SWAP1 DUP1 PUSH1 0x1 PUSH1 0x1 PUSH1 0x60 SHL SUB PUSH1 0xA0 SHL DUP4 AND OR PUSH1 0x2 SSTORE DUP3 MLOAD SWAP2 PUSH1 0x1 DUP1 PUSH1 0xA0 SHL SUB AND DUP3 MSTORE PUSH1 0x20 DUP3 ADD MSTORE LOG1 DUP1 RETURN JUMPDEST PUSH4 0x1A671641 PUSH1 0xE2 SHL DUP3 MSTORE PUSH1 0x4 DUP3 REVERT JUMPDEST PUSH1 0xE0 DUP2 ADD SWAP1 DUP2 LT PUSH8 0xFFFFFFFFFFFFFFFF DUP3 GT OR PUSH2 0x176B JUMPI PUSH1 0x40 MSTORE JUMP JUMPDEST PUSH4 0x4E487B71 PUSH1 0xE0 SHL PUSH1 0x0 MSTORE PUSH1 0x41 PUSH1 0x4 MSTORE PUSH1 0x24 PUSH1 0x0 REVERT JUMPDEST SWAP1 PUSH1 0x1F DUP1 NOT SWAP2 ADD AND DUP2 ADD SWAP1 DUP2 LT PUSH8 0xFFFFFFFFFFFFFFFF DUP3 GT OR PUSH2 0x176B JUMPI PUSH1 0x40 MSTORE JUMP JUMPDEST SWAP2 SWAP1 SWAP2 PUSH1 0x20 DUP2 MSTORE DUP3 MLOAD DUP1 PUSH1 0x20 DUP4 ADD MSTORE PUSH1 0x0 JUMPDEST DUP2 DUP2 LT PUSH2 0x17D6 JUMPI POP PUSH1 0x40 SWAP3 SWAP4 POP PUSH1 0x0 DUP4 DUP3 DUP5 ADD ADD MSTORE PUSH1 0x1F DUP1 NOT SWAP2 ADD AND ADD ADD SWAP1 JUMP JUMPDEST DUP1 PUSH1 0x20 DUP1 SWAP3 DUP8 ADD ADD MLOAD PUSH1 0x40 DUP3 DUP7 ADD ADD MSTORE ADD PUSH2 0x17B5 JUMP JUMPDEST PUSH1 0x4 CALLDATALOAD SWAP1 PUSH1 0x1 PUSH1 0x1 PUSH1 0xA0 SHL SUB DUP3 AND DUP3 SUB PUSH2 0x1802 JUMPI JUMP JUMPDEST PUSH1 0x0 DUP1 REVERT JUMPDEST SWAP1 PUSH1 0x3 DUP3 LT ISZERO PUSH2 0x1814 JUMPI MSTORE JUMP JUMPDEST PUSH4 0x4E487B71 PUSH1 0xE0 SHL PUSH1 0x0 MSTORE PUSH1 0x21 PUSH1 0x4 MSTORE PUSH1 0x24 PUSH1 0x0 REVERT JUMPDEST PUSH1 0xB SLOAD DUP2 LT ISZERO PUSH2 0x1845 JUMPI PUSH1 0xB PUSH1 0x0 MSTORE PUSH1 0x20 PUSH1 0x0 KECCAK256 ADD SWAP1 PUSH1 0x0 SWAP1 JUMP JUMPDEST PUSH4 0x4E487B71 PUSH1 0xE0 SHL PUSH1 0x0 MSTORE PUSH1 0x32 PUSH1 0x4 MSTORE PUSH1 0x24 PUSH1 0x0 REVERT JUMPDEST SWAP2 SWAP1 DUP3 ADD DUP1 SWAP3 GT PUSH2 0x1868 JUMPI JUMP JUMPDEST PUSH4 0x4E487B71 PUSH1 0xE0 SHL PUSH1 0x0 MSTORE PUSH1 0x11 PUSH1 0x4 MSTORE PUSH1 0x24 PUSH1 0x0 REVERT JUMPDEST PUSH1 0x1 DUP1 PUSH1 0xA0 SHL SUB AND PUSH1 0x0 MSTORE PUSH1 0xC PUSH1 0x20 MSTORE PUSH1 0x40 PUSH1 0x0 KECCAK256 PUSH1 0xC0 PUSH1 0x40 MLOAD PUSH2 0x18A1 DUP2 PUSH2 0x174F JUMP JUMPDEST DUP3 SLOAD SWAP1 DUP2 DUP2 MSTORE PUSH1 0x1 DUP5 ADD SLOAD PUSH1 0x20 DUP3 ADD MSTORE PUSH1 0x2 DUP5 ADD SLOAD PUSH1 0x40 DUP3 ADD MSTORE PUSH1 0x3 DUP5 ADD SLOAD PUSH1 0x60 DUP3 ADD MSTORE PUSH1 0xFF PUSH1 0x5 PUSH1 0x4 DUP7 ADD SLOAD SWAP6 PUSH1 0x80 DUP5 ADD SWAP7 DUP8 MSTORE ADD SLOAD DUP2 DUP2 AND ISZERO ISZERO PUSH1 0xA0 DUP5 ADD MSTORE PUSH1 0x8 SHR AND ISZERO SWAP1 DUP2 ISZERO SWAP4 DUP5 SWAP2 ADD MSTORE SWAP2 PUSH2 0x194A JUMPI JUMPDEST POP PUSH2 0x1941 JUMPI PUSH1 0xFF PUSH1 0x0 SLOAD AND PUSH1 0x3 DUP2 LT ISZERO PUSH2 0x1814 JUMPI PUSH1 0x2 EQ PUSH2 0x1934 JUMPI PUSH1 0xE SLOAD DUP1 ISZERO PUSH2 0x192A JUMPI PUSH2 0x1923 SWAP2 MLOAD PUSH2 0x185B JUMP JUMPDEST TIMESTAMP DUP2 GT ISZERO SWAP2 JUMP JUMPDEST POP POP PUSH1 0x1 SWAP1 PUSH1 0x0 SWAP1 JUMP JUMPDEST POP PUSH1 0xFF PUSH1 0xF SLOAD AND SWAP1 PUSH1 0x0 SWAP1 JUMP JUMPDEST POP PUSH1 0x0 SWAP1 PUSH1 0x0 SWAP1 JUMP JUMPDEST SWAP1 POP ISZERO CODESIZE PUSH2 0x18F5 JUMP JUMPDEST SWAP2 SWAP1 DUP3 SUB SWAP2 DUP3 GT PUSH2 0x1868 JUMPI JUMP JUMPDEST SWAP1 DUP2 PUSH1 0x20 SWAP2 SUB SLT PUSH2 0x1802 JUMPI MLOAD DUP1 ISZERO ISZERO DUP2 SUB PUSH2 0x1802 JUMPI SWAP1 JUMP JUMPDEST PUSH1 0xFF PUSH1 0x0 SLOAD AND PUSH1 0x3 DUP2 LT ISZERO PUSH2 0x1814 JUMPI PUSH1 0x2 DUP2 EQ PUSH2 0x1A0C JUMPI PUSH1 0x40 PUSH32 0xE8A97EA87E4388FA22D496B95A8ED5CED6717F49790318DE2B928AAF37A021D8 SWAP2 PUSH1 0x2 PUSH1 0xFF NOT PUSH1 0x0 SLOAD AND OR PUSH1 0x0 SSTORE PUSH2 0x19DF PUSH1 0xFF PUSH1 0x0 SLOAD AND PUSH2 0x19D5 DUP5 MLOAD DUP1 SWAP5 PUSH2 0x1807 JUMP JUMPDEST PUSH1 0x20 DUP4 ADD SWAP1 PUSH2 0x1807 JUMP JUMPDEST LOG1 PUSH32 0x1E8AC57E9803840915F0284B77B570A882FB2DB69108AC8EBA578BB30FCAF152 PUSH1 0x20 PUSH1 0x40 MLOAD TIMESTAMP DUP2 MSTORE LOG1 JUMP JUMPDEST POP JUMP JUMPDEST PUSH1 0xFF PUSH1 0x0 SLOAD AND PUSH1 0x3 DUP2 LT ISZERO PUSH2 0x1814 JUMPI DUP1 ISZERO PUSH2 0x1A0C JUMPI PUSH1 0x0 PUSH1 0x2 DUP3 EQ PUSH2 0x722 JUMPI DUP1 SLOAD PUSH1 0xFF NOT AND SWAP1 SSTORE PUSH1 0x40 DUP1 MLOAD PUSH32 0xE8A97EA87E4388FA22D496B95A8ED5CED6717F49790318DE2B928AAF37A021D8 SWAP3 PUSH2 0x1A6E SWAP1 PUSH1 0x0 SWAP1 PUSH2 0x19D5 SWAP1 DUP5 SWAP1 PUSH2 0x1807 JUMP JUMPDEST LOG1 JUMP JUMPDEST SWAP1 PUSH1 0x1 DUP1 PUSH1 0xA0 SHL SUB DUP3 AND PUSH1 0x0 MSTORE PUSH1 0xC PUSH1 0x20 MSTORE PUSH1 0x40 PUSH1 0x0 KECCAK256 PUSH1 0x40 MLOAD PUSH2 0x1A94 DUP2 PUSH2 0x174F JUMP JUMPDEST DUP2 SLOAD DUP2 MSTORE PUSH1 0x1 DUP3 ADD SLOAD DUP1 PUSH1 0x20 DUP4 ADD MSTORE PUSH1 0x2 DUP4 ADD SLOAD PUSH1 0xFF PUSH1 0x5 PUSH1 0x40 DUP6 ADD SWAP6 DUP4 DUP8 MSTORE PUSH1 0x3 DUP2 ADD SLOAD PUSH1 0x60 DUP8 ADD MSTORE PUSH1 0x4 DUP2 ADD SLOAD PUSH1 0x80 DUP8 ADD MSTORE ADD SLOAD DUP2 DUP2 AND ISZERO ISZERO PUSH1 0xA0 DUP7 ADD MSTORE PUSH1 0x8 SHR AND ISZERO DUP1 ISZERO SWAP1 DUP2 PUSH1 0xC0 DUP7 ADD MSTORE SWAP1 PUSH2 0x1BB5 JUMPI JUMPDEST PUSH2 0x1BAA JUMPI POP SWAP1 PUSH2 0x1AFA PUSH1 0x20 SWAP3 NUMBER PUSH2 0x1953 JUMP JUMPDEST PUSH1 0x2 SLOAD SWAP2 MLOAD PUSH1 0x7 SLOAD PUSH1 0x3 SLOAD PUSH1 0x4 DUP1 SLOAD PUSH1 0x40 MLOAD PUSH4 0xA0ACBEC3 PUSH1 0xE0 SHL DUP2 MSTORE SWAP2 DUP3 ADD SWAP6 SWAP1 SWAP6 MSTORE PUSH1 0x24 DUP2 ADD SWAP4 SWAP1 SWAP4 MSTORE PUSH1 0x44 DUP4 ADD SWAP2 SWAP1 SWAP2 MSTORE PUSH1 0x64 DUP3 ADD MSTORE PUSH1 0x84 DUP2 ADD SWAP2 SWAP1 SWAP2 MSTORE PUSH1 0x1 PUSH1 0x1 PUSH1 0xA0 SHL SUB SWAP6 DUP7 AND PUSH1 0xA4 DUP3 ADD MSTORE SWAP5 DUP6 SWAP2 PUSH1 0xC4 SWAP2 DUP4 SWAP2 AND GAS STATICCALL SWAP3 DUP4 ISZERO PUSH2 0x1B9E JUMPI PUSH1 0x0 SWAP4 PUSH2 0x1B6A JUMPI JUMPDEST POP MLOAD SWAP2 SWAP1 JUMP JUMPDEST SWAP1 SWAP3 POP PUSH1 0x20 DUP2 RETURNDATASIZE PUSH1 0x20 GT PUSH2 0x1B96 JUMPI JUMPDEST DUP2 PUSH2 0x1B86 PUSH1 0x20 SWAP4 DUP4 PUSH2 0x1781 JUMP JUMPDEST DUP2 ADD SUB SLT PUSH2 0x1802 JUMPI MLOAD SWAP2 CODESIZE PUSH2 0x1B64 JUMP JUMPDEST RETURNDATASIZE SWAP2 POP PUSH2 0x1B79 JUMP JUMPDEST PUSH1 0x40 MLOAD RETURNDATASIZE PUSH1 0x0 DUP3 RETURNDATACOPY RETURNDATASIZE SWAP1 REVERT JUMPDEST SWAP5 POP PUSH1 0x0 SWAP4 SWAP3 POP POP POP JUMP JUMPDEST POP PUSH1 0x7 SLOAD ISZERO PUSH2 0x1AE8 JUMP JUMPDEST PUSH1 0x0 NOT DUP2 EQ PUSH2 0x1868 JUMPI PUSH1 0x1 ADD SWAP1 JUMP JUMPDEST PUSH8 0xFFFFFFFFFFFFFFFF DUP2 GT PUSH2 0x176B JUMPI PUSH1 0x5 SHL PUSH1 0x20 ADD SWAP1 JUMP JUMPDEST PUSH1 0xFF PUSH1 0x0 SLOAD AND PUSH1 0x3 DUP2 LT ISZERO PUSH2 0x1814 JUMPI PUSH1 0x1 DUP2 EQ PUSH2 0x1A0C JUMPI PUSH1 0x40 PUSH32 0xE8A97EA87E4388FA22D496B95A8ED5CED6717F49790318DE2B928AAF37A021D8 SWAP2 PUSH1 0x1 PUSH1 0xFF NOT PUSH1 0x0 SLOAD AND OR PUSH1 0x0 SSTORE PUSH2 0x1A6E PUSH1 0xFF PUSH1 0x0 SLOAD AND PUSH2 0x19D5 DUP5 MLOAD DUP1 SWAP5 PUSH2 0x1807 JUMP JUMPDEST PUSH1 0x7 SLOAD DUP1 ISZERO PUSH2 0x1CA2 JUMPI PUSH2 0x1C5B PUSH1 0x3 SLOAD PUSH1 0x4 SLOAD SWAP1 PUSH2 0x185B JUMP JUMPDEST PUSH1 0x1 SHR PUSH2 0x1770 DUP2 MUL SWAP1 DUP1 DUP3 DIV PUSH2 0x1770 EQ DUP2 ISZERO OR ISZERO PUSH2 0x1868 JUMPI PUSH3 0x216AB0 DUP2 MUL SWAP2 DUP1 DUP4 DIV PUSH2 0x16D EQ SWAP1 ISZERO OR ISZERO PUSH2 0x1868 JUMPI PUSH4 0xD0DACC0 MUL SWAP1 DUP1 DUP3 DIV PUSH1 0x64 EQ SWAP1 ISZERO OR ISZERO PUSH2 0x1868 JUMPI DIV SWAP1 JUMP JUMPDEST POP PUSH1 0x0 SWAP1 JUMP JUMPDEST PUSH1 0x1 PUSH1 0x1 PUSH1 0xA0 SHL SUB DUP2 AND ISZERO PUSH2 0x1CC2 JUMPI PUSH2 0x1CC0 SWAP1 PUSH2 0x1E1E JUMP JUMPDEST JUMP JUMPDEST PUSH4 0x1E4FBDF7 PUSH1 0xE0 SHL PUSH1 0x0 MSTORE PUSH1 0x0 PUSH1 0x4 MSTORE PUSH1 0x24 PUSH1 0x0 REVERT JUMPDEST PUSH1 0x0 DUP1 MLOAD PUSH1 0x20 PUSH2 0x1EA3 DUP4 CODECOPY DUP2 MLOAD SWAP2 MSTORE SLOAD PUSH1 0x1 PUSH1 0x1 PUSH1 0xA0 SHL SUB AND CALLER SUB PUSH2 0x1CF9 JUMPI JUMP JUMPDEST PUSH4 0x118CDAA7 PUSH1 0xE0 SHL PUSH1 0x0 MSTORE CALLER PUSH1 0x4 MSTORE PUSH1 0x24 PUSH1 0x0 REVERT JUMPDEST PUSH1 0x1 DUP1 PUSH1 0xA0 SHL SUB DUP2 AND PUSH1 0x0 MSTORE PUSH1 0xC PUSH1 0x20 MSTORE PUSH1 0x40 PUSH1 0x0 KECCAK256 SWAP1 PUSH1 0x1 DUP3 ADD SWAP2 DUP3 SLOAD DUP1 NUMBER GT DUP1 ISZERO SWAP1 PUSH2 0x1E14 JUMPI JUMPDEST DUP1 ISZERO PUSH2 0x1E0B JUMPI JUMPDEST PUSH2 0x1E05 JUMPI PUSH2 0x1D4E PUSH1 0x20 SWAP2 NUMBER PUSH2 0x1953 JUMP JUMPDEST PUSH1 0x2 SLOAD DUP4 SLOAD PUSH1 0x7 SLOAD PUSH1 0x3 SLOAD PUSH1 0x4 DUP1 SLOAD PUSH1 0x40 MLOAD PUSH4 0xA0ACBEC3 PUSH1 0xE0 SHL DUP2 MSTORE SWAP2 DUP3 ADD SWAP7 SWAP1 SWAP7 MSTORE PUSH1 0x24 DUP2 ADD SWAP4 SWAP1 SWAP4 MSTORE PUSH1 0x44 DUP4 ADD SWAP2 SWAP1 SWAP2 MSTORE PUSH1 0x64 DUP3 ADD MSTORE PUSH1 0x84 DUP2 ADD SWAP3 SWAP1 SWAP3 MSTORE PUSH1 0x1 PUSH1 0x1 PUSH1 0xA0 SHL SUB SWAP5 DUP6 AND PUSH1 0xA4 DUP4 ADD MSTORE SWAP1 SWAP4 DUP5 SWAP2 PUSH1 0xC4 SWAP2 DUP4 SWAP2 AND GAS STATICCALL SWAP2 DUP3 ISZERO PUSH2 0x1B9E JUMPI PUSH1 0x0 SWAP3 PUSH2 0x1DD0 JUMPI JUMPDEST POP PUSH1 0x2 PUSH2 0x1DC9 SWAP2 ADD SWAP2 DUP3 SLOAD PUSH2 0x185B JUMP JUMPDEST SWAP1 SSTORE NUMBER SWAP1 SSTORE JUMP JUMPDEST SWAP1 SWAP2 POP PUSH1 0x20 DUP2 RETURNDATASIZE PUSH1 0x20 GT PUSH2 0x1DFD JUMPI JUMPDEST DUP2 PUSH2 0x1DEC PUSH1 0x20 SWAP4 DUP4 PUSH2 0x1781 JUMP JUMPDEST DUP2 ADD SUB SLT PUSH2 0x1802 JUMPI MLOAD SWAP1 PUSH1 0x2 PUSH2 0x1DB9 JUMP JUMPDEST RETURNDATASIZE SWAP2 POP PUSH2 0x1DDF JUMP JUMPDEST POP POP POP POP JUMP JUMPDEST POP DUP2 SLOAD ISZERO PUSH2 0x1D3E JUMP JUMPDEST POP PUSH1 0x7 SLOAD ISZERO PUSH2 0x1D37 JUMP JUMPDEST PUSH1 0x0 DUP1 MLOAD PUSH1 0x20 PUSH2 0x1EA3 DUP4 CODECOPY DUP2 MLOAD SWAP2 MSTORE DUP1 SLOAD PUSH1 0x1 PUSH1 0x1 PUSH1 0xA0 SHL SUB SWAP3 DUP4 AND PUSH1 0x1 PUSH1 0x1 PUSH1 0xA0 SHL SUB NOT DUP3 AND DUP2 OR SWAP1 SWAP3 SSTORE SWAP1 SWAP2 AND PUSH32 0x8BE0079C531659141344CD1FD0A4F28419497F9722A3DAAFE3B4186F6B6457E0 PUSH1 0x0 DUP1 LOG3 JUMP JUMPDEST PUSH1 0xFF PUSH1 0x0 DUP1 MLOAD PUSH1 0x20 PUSH2 0x1EC3 DUP4 CODECOPY DUP2 MLOAD SWAP2 MSTORE SLOAD PUSH1 0x40 SHR AND ISZERO PUSH2 0x1E91 JUMPI JUMP JUMPDEST PUSH4 0x1AFCD79F PUSH1 0xE3 SHL PUSH1 0x0 MSTORE PUSH1 0x4 PUSH1 0x0 REVERT INVALID SWAP1 AND 0xD0 SWAP14 PUSH19 0xD40FDAE2FD8CEAC6B6234C7706214FD39C1CD1 0xE6 MULMOD LOG0 MSTORE DUP13 NOT SWAP4 STOP CREATE 0xC5 PUSH31 0x16840DF040F15088DC2F81FE391C3923BEC73E23A9662EFC9C229C6A00A264 PUSH10 0x70667358221220D1C501 0xC6 PUSH3 0x36D533 0xFC 0xB5 PUSH4 0x1C691C03 0x4B 0xEF CALLCODE 0xBF SWAP5 RETURNDATACOPY SAR DUP10 RETURNDATASIZE DUP5 PUSH11 0x2BD157DF50BE64736F6C63 NUMBER STOP ADDMOD SHR STOP CALLER "
        },
        "methodIdentifiers": {
          "MAX_FEE_PERCENT()": "67d81740",
          "MAX_STAKERS()": "910956aa",
          "MIN_DEPOSIT()": "e1e158a5",
          "canWithdraw(address)": "19262d30",
          "claimRewards()": "372500ab",
          "collectedFees()": "9003adfe",
          "dappToken()": "5eb186f8",
          "deposit(uint256)": "b6b55f25",
          "distributeRewardsAll()": "db03e227",
          "emergencyStop()": "63a599a4",
          "emergencyWithdrawEnabled()": "5747e69f",
          "farmStartBlock()": "b507d70f",
          "farmState()": "ce2040c8",
          "getActiveStakers()": "9fb82db9",
          "getContractStats()": "dfe6b5d6",
          "getEstimatedAPY()": "ccaad55d",
          "getUserInfo(address)": "6386c1c7",
          "getVersion()": "0d8e6e2c",
          "initialize(address,address,address,address)": "f8c8765e",
          "lockPeriod()": "3fd8b02f",
          "lpToken()": "5fcbd285",
          "name()": "06fdde03",
          "owner()": "8da5cb5b",
          "pauseFarm()": "a113601b",
          "paused()": "5c975abb",
          "renounceOwnership()": "715018a6",
          "resumeFarm()": "6c7ecb78",
          "rewardConfig()": "4e94c285",
          "rewardStrategy()": "44c4aea9",
          "setEmergencyWithdrawEnabled(bool)": "c74ad493",
          "simulateRewards(address)": "7bbfffa5",
          "stakerIndex(address)": "78d60a5b",
          "stakers(uint256)": "fd5e6dd1",
          "stakersData(address)": "acb422c5",
          "totalRewardsDistributed()": "ee172546",
          "totalStakingBalance()": "e766c835",
          "transferOwnership(address)": "f2fde38b",
          "updateLockPeriod(uint256)": "91db7b0d",
          "updateRewardConfig(uint256,uint256,uint256)": "6f3ba889",
          "updateRewardStrategy(address)": "06309e4b",
          "withdraw()": "3ccfd60b",
          "withdrawFees()": "476343ee"
        }
      },
      "storageLayout": {
        "storage": [
          {
            "astId": 2921,
            "contract": "contracts/TokenFarm.sol:TokenFarm",
            "label": "farmState",
            "offset": 0,
            "slot": "0",
            "type": "t_enum(FarmState)2821"
          },
          {
            "astId": 2924,
            "contract": "contracts/TokenFarm.sol:TokenFarm",
            "label": "dappToken",
            "offset": 1,
            "slot": "0",
            "type": "t_contract(DappToken)2630"
          },
          {
            "astId": 2927,
            "contract": "contracts/TokenFarm.sol:TokenFarm",
            "label": "lpToken",
            "offset": 0,
            "slot": "1",
            "type": "t_contract(LPToken)2669"
          },
          {
            "astId": 2930,
            "contract": "contracts/TokenFarm.sol:TokenFarm",
            "label": "rewardStrategy",
            "offset": 0,
            "slot": "2",
            "type": "t_contract(IRewardStrategy)2839"
          },
          {
            "astId": 2942,
            "contract": "contracts/TokenFarm.sol:TokenFarm",
            "label": "rewardConfig",
            "offset": 0,
            "slot": "3",
            "type": "t_struct(RewardConfig)2939_storage"
          },
          {
            "astId": 2944,
            "contract": "contracts/TokenFarm.sol:TokenFarm",
            "label": "totalStakingBalance",
            "offset": 0,
            "slot": "7",
            "type": "t_uint256"
          },
          {
            "astId": 2946,
            "contract": "contracts/TokenFarm.sol:TokenFarm",
            "label": "collectedFees",
            "offset": 0,
            "slot": "8",
            "type": "t_uint256"
          },
          {
            "astId": 2948,
            "contract": "contracts/TokenFarm.sol:TokenFarm",
            "label": "totalRewardsDistributed",
            "offset": 0,
            "slot": "9",
            "type": "t_uint256"
          },
          {
            "astId": 2950,
            "contract": "contracts/TokenFarm.sol:TokenFarm",
            "label": "farmStartBlock",
            "offset": 0,
            "slot": "10",
            "type": "t_uint256"
          },
          {
            "astId": 2968,
            "contract": "contracts/TokenFarm.sol:TokenFarm",
            "label": "stakers",
            "offset": 0,
            "slot": "11",
            "type": "t_array(t_address)dyn_storage"
          },
          {
            "astId": 2973,
            "contract": "contracts/TokenFarm.sol:TokenFarm",
            "label": "stakersData",
            "offset": 0,
            "slot": "12",
            "type": "t_mapping(t_address,t_struct(Staker)2965_storage)"
          },
          {
            "astId": 2977,
            "contract": "contracts/TokenFarm.sol:TokenFarm",
            "label": "stakerIndex",
            "offset": 0,
            "slot": "13",
            "type": "t_mapping(t_address,t_uint256)"
          },
          {
            "astId": 2988,
            "contract": "contracts/TokenFarm.sol:TokenFarm",
            "label": "lockPeriod",
            "offset": 0,
            "slot": "14",
            "type": "t_uint256"
          },
          {
            "astId": 2990,
            "contract": "contracts/TokenFarm.sol:TokenFarm",
            "label": "emergencyWithdrawEnabled",
            "offset": 0,
            "slot": "15",
            "type": "t_bool"
          }
        ],
        "types": {
          "t_address": {
            "encoding": "inplace",
            "label": "address",
            "numberOfBytes": "20"
          },
          "t_array(t_address)dyn_storage": {
            "base": "t_address",
            "encoding": "dynamic_array",
            "label": "address[]",
            "numberOfBytes": "32"
          },
          "t_bool": {
            "encoding": "inplace",
            "label": "bool",
            "numberOfBytes": "1"
          },
          "t_contract(DappToken)2630": {
            "encoding": "inplace",
            "label": "contract DappToken",
            "numberOfBytes": "20"
          },
          "t_contract(IRewardStrategy)2839": {
            "encoding": "inplace",
            "label": "contract IRewardStrategy",
            "numberOfBytes": "20"
          },
          "t_contract(LPToken)2669": {
            "encoding": "inplace",
            "label": "contract LPToken",
            "numberOfBytes": "20"
          },
          "t_enum(FarmState)2821": {
            "encoding": "inplace",
            "label": "enum FarmState",
            "numberOfBytes": "1"
          },
          "t_mapping(t_address,t_struct(Staker)2965_storage)": {
            "encoding": "mapping",
            "key": "t_address",
            "label": "mapping(address => struct TokenFarm.Staker)",
            "numberOfBytes": "32",
            "value": "t_struct(Staker)2965_storage"
          },
          "t_mapping(t_address,t_uint256)": {
            "encoding": "mapping",
            "key": "t_address",
            "label": "mapping(address => uint256)",
            "numberOfBytes": "32",
            "value": "t_uint256"
          },
          "t_struct(RewardConfig)2939_storage": {
            "encoding": "inplace",
            "label": "struct TokenFarm.RewardConfig",
            "members": [
              {
                "astId": 2932,
                "contract": "contracts/TokenFarm.sol:TokenFarm",
                "label": "minPerBlock",
                "offset": 0,
                "slot": "0",
                "type": "t_uint256"
              },
              {
                "astId": 2934,
                "contract": "contracts/TokenFarm.sol:TokenFarm",
                "label": "maxPerBlock",
                "offset": 0,
                "slot": "1",
                "type": "t_uint256"
              },
              {
                "astId": 2936,
                "contract": "contracts/TokenFarm.sol:TokenFarm",
                "label": "feePercent",
                "offset": 0,
                "slot": "2",
                "type": "t_uint256"
              },
              {
                "astId": 2938,
                "contract": "contracts/TokenFarm.sol:TokenFarm",
                "label": "lastUpdate",
                "offset": 0,
                "slot": "3",
                "type": "t_uint256"
              }
            ],
            "numberOfBytes": "128"
          },
          "t_struct(Staker)2965_storage": {
            "encoding": "inplace",
            "label": "struct TokenFarm.Staker",
            "members": [
              {
                "astId": 2952,
                "contract": "contracts/TokenFarm.sol:TokenFarm",
                "label": "balance",
                "offset": 0,
                "slot": "0",
                "type": "t_uint256"
              },
              {
                "astId": 2954,
                "contract": "contracts/TokenFarm.sol:TokenFarm",
                "label": "checkpoint",
                "offset": 0,
                "slot": "1",
                "type": "t_uint256"
              },
              {
                "astId": 2956,
                "contract": "contracts/TokenFarm.sol:TokenFarm",
                "label": "pendingRewards",
                "offset": 0,
                "slot": "2",
                "type": "t_uint256"
              },
              {
                "astId": 2958,
                "contract": "contracts/TokenFarm.sol:TokenFarm",
                "label": "totalClaimed",
                "offset": 0,
                "slot": "3",
                "type": "t_uint256"
              },
              {
                "astId": 2960,
                "contract": "contracts/TokenFarm.sol:TokenFarm",
                "label": "depositTimestamp",
                "offset": 0,
                "slot": "4",
                "type": "t_uint256"
              },
              {
                "astId": 2962,
                "contract": "contracts/TokenFarm.sol:TokenFarm",
                "label": "hasStaked",
                "offset": 0,
                "slot": "5",
                "type": "t_bool"
              },
              {
                "astId": 2964,
                "contract": "contracts/TokenFarm.sol:TokenFarm",
                "label": "isStaking",
                "offset": 1,
                "slot": "5",
                "type": "t_bool"
              }
            ],
            "numberOfBytes": "192"
          },
          "t_uint256": {
            "encoding": "inplace",
            "label": "uint256",
            "numberOfBytes": "32"
          }
        }
      }
    }
  }
}