{
  "contracts/TokenFarmV2.sol": {
    "TokenFarmV2": {
      "abi": [
        {
          "inputs": [],
          "stateMutability": "nonpayable",
          "type": "constructor"
        },
        {
          "inputs": [],
          "name": "EnforcedPause",
          "type": "error"
        },
        {
          "inputs": [],
          "name": "ExpectedPause",
          "type": "error"
        },
        {
          "inputs": [],
          "name": "InvalidAddress",
          "type": "error"
        },
        {
          "inputs": [],
          "name": "InvalidFeeValue",
          "type": "error"
        },
        {
          "inputs": [],
          "name": "InvalidInitialization",
          "type": "error"
        },
        {
          "inputs": [],
          "name": "NotInitializing",
          "type": "error"
        },
        {
          "inputs": [
            {
              "internalType": "address",
              "name": "owner",
              "type": "address"
            }
          ],
          "name": "OwnableInvalidOwner",
          "type": "error"
        },
        {
          "inputs": [
            {
              "internalType": "address",
              "name": "account",
              "type": "address"
            }
          ],
          "name": "OwnableUnauthorizedAccount",
          "type": "error"
        },
        {
          "inputs": [],
          "name": "TokenFarm__EmergencyStop",
          "type": "error"
        },
        {
          "inputs": [],
          "name": "TokenFarm__FarmStopped",
          "type": "error"
        },
        {
          "inputs": [],
          "name": "TokenFarm__InvalidAmount",
          "type": "error"
        },
        {
          "inputs": [],
          "name": "TokenFarm__InvalidConfiguration",
          "type": "error"
        },
        {
          "inputs": [],
          "name": "TokenFarm__MaxStakersReached",
          "type": "error"
        },
        {
          "inputs": [],
          "name": "TokenFarm__NoFees",
          "type": "error"
        },
        {
          "inputs": [],
          "name": "TokenFarm__NoRewards",
          "type": "error"
        },
        {
          "inputs": [],
          "name": "TokenFarm__NotStaking",
          "type": "error"
        },
        {
          "inputs": [],
          "name": "TokenFarm__OnlyOwner",
          "type": "error"
        },
        {
          "inputs": [],
          "name": "TokenFarm__StillLocked",
          "type": "error"
        },
        {
          "inputs": [],
          "name": "TokenFarm__TransferFailed",
          "type": "error"
        },
        {
          "inputs": [],
          "name": "Unauthorized",
          "type": "error"
        },
        {
          "anonymous": false,
          "inputs": [
            {
              "indexed": true,
              "internalType": "address",
              "name": "user",
              "type": "address"
            },
            {
              "indexed": false,
              "internalType": "uint256",
              "name": "amount",
              "type": "uint256"
            },
            {
              "indexed": false,
              "internalType": "uint256",
              "name": "timestamp",
              "type": "uint256"
            }
          ],
          "name": "Deposit",
          "type": "event"
        },
        {
          "anonymous": false,
          "inputs": [
            {
              "indexed": false,
              "internalType": "uint256",
              "name": "timestamp",
              "type": "uint256"
            }
          ],
          "name": "EmergencyStop",
          "type": "event"
        },
        {
          "anonymous": false,
          "inputs": [
            {
              "indexed": false,
              "internalType": "address",
              "name": "newCollector",
              "type": "address"
            }
          ],
          "name": "FeeCollectorUpdated",
          "type": "event"
        },
        {
          "anonymous": false,
          "inputs": [
            {
              "indexed": false,
              "internalType": "uint256",
              "name": "newWithdrawFee",
              "type": "uint256"
            },
            {
              "indexed": false,
              "internalType": "uint256",
              "name": "newClaimFee",
              "type": "uint256"
            }
          ],
          "name": "FeesUpdated",
          "type": "event"
        },
        {
          "anonymous": false,
          "inputs": [
            {
              "indexed": false,
              "internalType": "uint256",
              "name": "amount",
              "type": "uint256"
            },
            {
              "indexed": false,
              "internalType": "uint256",
              "name": "timestamp",
              "type": "uint256"
            }
          ],
          "name": "FeesWithdrawn",
          "type": "event"
        },
        {
          "anonymous": false,
          "inputs": [
            {
              "indexed": false,
              "internalType": "uint256",
              "name": "amount",
              "type": "uint256"
            },
            {
              "indexed": true,
              "internalType": "address",
              "name": "collector",
              "type": "address"
            }
          ],
          "name": "FeesWithdrawnV2",
          "type": "event"
        },
        {
          "anonymous": false,
          "inputs": [
            {
              "indexed": false,
              "internalType": "uint64",
              "name": "version",
              "type": "uint64"
            }
          ],
          "name": "Initialized",
          "type": "event"
        },
        {
          "anonymous": false,
          "inputs": [
            {
              "indexed": false,
              "internalType": "uint256",
              "name": "oldPeriod",
              "type": "uint256"
            },
            {
              "indexed": false,
              "internalType": "uint256",
              "name": "newPeriod",
              "type": "uint256"
            }
          ],
          "name": "LockPeriodUpdated",
          "type": "event"
        },
        {
          "anonymous": false,
          "inputs": [
            {
              "indexed": false,
              "internalType": "uint256",
              "name": "newLockPeriod",
              "type": "uint256"
            }
          ],
          "name": "LockPeriodUpdated",
          "type": "event"
        },
        {
          "anonymous": false,
          "inputs": [
            {
              "indexed": false,
              "internalType": "uint256",
              "name": "amount",
              "type": "uint256"
            },
            {
              "indexed": true,
              "internalType": "address",
              "name": "collector",
              "type": "address"
            }
          ],
          "name": "LpFeesWithdrawn",
          "type": "event"
        },
        {
          "anonymous": false,
          "inputs": [
            {
              "indexed": true,
              "internalType": "address",
              "name": "previousOwner",
              "type": "address"
            },
            {
              "indexed": true,
              "internalType": "address",
              "name": "newOwner",
              "type": "address"
            }
          ],
          "name": "OwnershipTransferred",
          "type": "event"
        },
        {
          "anonymous": false,
          "inputs": [
            {
              "indexed": false,
              "internalType": "address",
              "name": "account",
              "type": "address"
            }
          ],
          "name": "Paused",
          "type": "event"
        },
        {
          "anonymous": false,
          "inputs": [
            {
              "indexed": false,
              "internalType": "uint256",
              "name": "min",
              "type": "uint256"
            },
            {
              "indexed": false,
              "internalType": "uint256",
              "name": "max",
              "type": "uint256"
            },
            {
              "indexed": false,
              "internalType": "uint256",
              "name": "fee",
              "type": "uint256"
            }
          ],
          "name": "RewardConfigUpdated",
          "type": "event"
        },
        {
          "anonymous": false,
          "inputs": [
            {
              "indexed": false,
              "internalType": "uint256",
              "name": "newReward",
              "type": "uint256"
            }
          ],
          "name": "RewardPerBlockUpdated",
          "type": "event"
        },
        {
          "anonymous": false,
          "inputs": [
            {
              "indexed": true,
              "internalType": "address",
              "name": "user",
              "type": "address"
            },
            {
              "indexed": false,
              "internalType": "uint256",
              "name": "netAmount",
              "type": "uint256"
            },
            {
              "indexed": false,
              "internalType": "uint256",
              "name": "fee",
              "type": "uint256"
            }
          ],
          "name": "RewardsClaimed",
          "type": "event"
        },
        {
          "anonymous": false,
          "inputs": [
            {
              "indexed": true,
              "internalType": "address",
              "name": "user",
              "type": "address"
            },
            {
              "indexed": false,
              "internalType": "uint256",
              "name": "amount",
              "type": "uint256"
            },
            {
              "indexed": false,
              "internalType": "uint256",
              "name": "fee",
              "type": "uint256"
            }
          ],
          "name": "RewardsClaimedV2",
          "type": "event"
        },
        {
          "anonymous": false,
          "inputs": [
            {
              "indexed": false,
              "internalType": "uint256",
              "name": "totalUsers",
              "type": "uint256"
            },
            {
              "indexed": false,
              "internalType": "uint256",
              "name": "totalAmount",
              "type": "uint256"
            },
            {
              "indexed": false,
              "internalType": "uint256",
              "name": "timestamp",
              "type": "uint256"
            }
          ],
          "name": "RewardsDistributed",
          "type": "event"
        },
        {
          "anonymous": false,
          "inputs": [
            {
              "indexed": false,
              "internalType": "enum FarmState",
              "name": "oldState",
              "type": "uint8"
            },
            {
              "indexed": false,
              "internalType": "enum FarmState",
              "name": "newState",
              "type": "uint8"
            }
          ],
          "name": "StateChanged",
          "type": "event"
        },
        {
          "anonymous": false,
          "inputs": [
            {
              "indexed": false,
              "internalType": "address",
              "name": "oldStrategy",
              "type": "address"
            },
            {
              "indexed": false,
              "internalType": "address",
              "name": "newStrategy",
              "type": "address"
            }
          ],
          "name": "StrategyUpdated",
          "type": "event"
        },
        {
          "anonymous": false,
          "inputs": [
            {
              "indexed": false,
              "internalType": "address",
              "name": "account",
              "type": "address"
            }
          ],
          "name": "Unpaused",
          "type": "event"
        },
        {
          "anonymous": false,
          "inputs": [
            {
              "indexed": true,
              "internalType": "address",
              "name": "user",
              "type": "address"
            },
            {
              "indexed": false,
              "internalType": "uint256",
              "name": "amount",
              "type": "uint256"
            },
            {
              "indexed": false,
              "internalType": "uint256",
              "name": "timestamp",
              "type": "uint256"
            }
          ],
          "name": "Withdraw",
          "type": "event"
        },
        {
          "inputs": [],
          "name": "BASIS_POINTS",
          "outputs": [
            {
              "internalType": "uint256",
              "name": "",
              "type": "uint256"
            }
          ],
          "stateMutability": "view",
          "type": "function"
        },
        {
          "inputs": [],
          "name": "MAX_CLAIM_FEE",
          "outputs": [
            {
              "internalType": "uint256",
              "name": "",
              "type": "uint256"
            }
          ],
          "stateMutability": "view",
          "type": "function"
        },
        {
          "inputs": [],
          "name": "MAX_FEE_PERCENT",
          "outputs": [
            {
              "internalType": "uint256",
              "name": "",
              "type": "uint256"
            }
          ],
          "stateMutability": "view",
          "type": "function"
        },
        {
          "inputs": [],
          "name": "MAX_STAKERS",
          "outputs": [
            {
              "internalType": "uint256",
              "name": "",
              "type": "uint256"
            }
          ],
          "stateMutability": "view",
          "type": "function"
        },
        {
          "inputs": [],
          "name": "MAX_WITHDRAW_FEE",
          "outputs": [
            {
              "internalType": "uint256",
              "name": "",
              "type": "uint256"
            }
          ],
          "stateMutability": "view",
          "type": "function"
        },
        {
          "inputs": [],
          "name": "MIN_DEPOSIT",
          "outputs": [
            {
              "internalType": "uint256",
              "name": "",
              "type": "uint256"
            }
          ],
          "stateMutability": "view",
          "type": "function"
        },
        {
          "inputs": [
            {
              "internalType": "address",
              "name": "user",
              "type": "address"
            }
          ],
          "name": "canWithdraw",
          "outputs": [
            {
              "internalType": "bool",
              "name": "canWithdrawNow",
              "type": "bool"
            },
            {
              "internalType": "uint256",
              "name": "unlockTime",
              "type": "uint256"
            }
          ],
          "stateMutability": "view",
          "type": "function"
        },
        {
          "inputs": [],
          "name": "claimFee",
          "outputs": [
            {
              "internalType": "uint256",
              "name": "",
              "type": "uint256"
            }
          ],
          "stateMutability": "view",
          "type": "function"
        },
        {
          "inputs": [],
          "name": "claimRewards",
          "outputs": [],
          "stateMutability": "nonpayable",
          "type": "function"
        },
        {
          "inputs": [],
          "name": "collectedDappFees",
          "outputs": [
            {
              "internalType": "uint256",
              "name": "",
              "type": "uint256"
            }
          ],
          "stateMutability": "view",
          "type": "function"
        },
        {
          "inputs": [],
          "name": "collectedFees",
          "outputs": [
            {
              "internalType": "uint256",
              "name": "",
              "type": "uint256"
            }
          ],
          "stateMutability": "view",
          "type": "function"
        },
        {
          "inputs": [],
          "name": "collectedLpFees",
          "outputs": [
            {
              "internalType": "uint256",
              "name": "",
              "type": "uint256"
            }
          ],
          "stateMutability": "view",
          "type": "function"
        },
        {
          "inputs": [],
          "name": "dappToken",
          "outputs": [
            {
              "internalType": "contract DappToken",
              "name": "",
              "type": "address"
            }
          ],
          "stateMutability": "view",
          "type": "function"
        },
        {
          "inputs": [
            {
              "internalType": "uint256",
              "name": "amount",
              "type": "uint256"
            }
          ],
          "name": "deposit",
          "outputs": [],
          "stateMutability": "nonpayable",
          "type": "function"
        },
        {
          "inputs": [],
          "name": "distributeRewardsAll",
          "outputs": [],
          "stateMutability": "nonpayable",
          "type": "function"
        },
        {
          "inputs": [],
          "name": "emergencyStop",
          "outputs": [],
          "stateMutability": "nonpayable",
          "type": "function"
        },
        {
          "inputs": [],
          "name": "emergencyWithdrawEnabled",
          "outputs": [
            {
              "internalType": "bool",
              "name": "",
              "type": "bool"
            }
          ],
          "stateMutability": "view",
          "type": "function"
        },
        {
          "inputs": [],
          "name": "farmStartBlock",
          "outputs": [
            {
              "internalType": "uint256",
              "name": "",
              "type": "uint256"
            }
          ],
          "stateMutability": "view",
          "type": "function"
        },
        {
          "inputs": [],
          "name": "farmState",
          "outputs": [
            {
              "internalType": "enum FarmState",
              "name": "",
              "type": "uint8"
            }
          ],
          "stateMutability": "view",
          "type": "function"
        },
        {
          "inputs": [],
          "name": "feeCollector",
          "outputs": [
            {
              "internalType": "address",
              "name": "",
              "type": "address"
            }
          ],
          "stateMutability": "view",
          "type": "function"
        },
        {
          "inputs": [],
          "name": "getActiveStakers",
          "outputs": [
            {
              "internalType": "address[]",
              "name": "activeStakersList",
              "type": "address[]"
            }
          ],
          "stateMutability": "view",
          "type": "function"
        },
        {
          "inputs": [],
          "name": "getContractStats",
          "outputs": [
            {
              "internalType": "uint256",
              "name": "totalStakers",
              "type": "uint256"
            },
            {
              "internalType": "uint256",
              "name": "totalStaked",
              "type": "uint256"
            },
            {
              "internalType": "uint256",
              "name": "totalFees",
              "type": "uint256"
            },
            {
              "internalType": "uint256",
              "name": "totalRewards",
              "type": "uint256"
            },
            {
              "internalType": "enum FarmState",
              "name": "state",
              "type": "uint8"
            },
            {
              "internalType": "uint256",
              "name": "activeStakers",
              "type": "uint256"
            }
          ],
          "stateMutability": "view",
          "type": "function"
        },
        {
          "inputs": [],
          "name": "getEstimatedAPY",
          "outputs": [
            {
              "internalType": "uint256",
              "name": "",
              "type": "uint256"
            }
          ],
          "stateMutability": "view",
          "type": "function"
        },
        {
          "inputs": [],
          "name": "getFeeInfo",
          "outputs": [
            {
              "internalType": "uint256",
              "name": "_withdrawFee",
              "type": "uint256"
            },
            {
              "internalType": "uint256",
              "name": "_claimFee",
              "type": "uint256"
            },
            {
              "internalType": "uint256",
              "name": "_collectedLpFees",
              "type": "uint256"
            },
            {
              "internalType": "uint256",
              "name": "_collectedDappFees",
              "type": "uint256"
            },
            {
              "internalType": "address",
              "name": "_feeCollector",
              "type": "address"
            }
          ],
          "stateMutability": "view",
          "type": "function"
        },
        {
          "inputs": [
            {
              "internalType": "address",
              "name": "userAddr",
              "type": "address"
            }
          ],
          "name": "getUserInfo",
          "outputs": [
            {
              "components": [
                {
                  "internalType": "uint256",
                  "name": "balance",
                  "type": "uint256"
                },
                {
                  "internalType": "uint256",
                  "name": "checkpoint",
                  "type": "uint256"
                },
                {
                  "internalType": "uint256",
                  "name": "pendingRewards",
                  "type": "uint256"
                },
                {
                  "internalType": "uint256",
                  "name": "totalClaimed",
                  "type": "uint256"
                },
                {
                  "internalType": "uint256",
                  "name": "depositTimestamp",
                  "type": "uint256"
                },
                {
                  "internalType": "bool",
                  "name": "hasStaked",
                  "type": "bool"
                },
                {
                  "internalType": "bool",
                  "name": "isStaking",
                  "type": "bool"
                }
              ],
              "internalType": "struct TokenFarm.Staker",
              "name": "",
              "type": "tuple"
            }
          ],
          "stateMutability": "view",
          "type": "function"
        },
        {
          "inputs": [],
          "name": "getVersion",
          "outputs": [
            {
              "internalType": "string",
              "name": "",
              "type": "string"
            }
          ],
          "stateMutability": "pure",
          "type": "function"
        },
        {
          "inputs": [
            {
              "internalType": "address",
              "name": "_dappToken",
              "type": "address"
            },
            {
              "internalType": "address",
              "name": "_lpToken",
              "type": "address"
            },
            {
              "internalType": "address",
              "name": "_strategy",
              "type": "address"
            },
            {
              "internalType": "address",
              "name": "_owner",
              "type": "address"
            }
          ],
          "name": "initialize",
          "outputs": [],
          "stateMutability": "nonpayable",
          "type": "function"
        },
        {
          "inputs": [
            {
              "internalType": "uint256",
              "name": "_withdrawFee",
              "type": "uint256"
            },
            {
              "internalType": "uint256",
              "name": "_claimFee",
              "type": "uint256"
            },
            {
              "internalType": "address",
              "name": "_feeCollector",
              "type": "address"
            }
          ],
          "name": "initializeV2",
          "outputs": [],
          "stateMutability": "nonpayable",
          "type": "function"
        },
        {
          "inputs": [],
          "name": "lockPeriod",
          "outputs": [
            {
              "internalType": "uint256",
              "name": "",
              "type": "uint256"
            }
          ],
          "stateMutability": "view",
          "type": "function"
        },
        {
          "inputs": [],
          "name": "lpToken",
          "outputs": [
            {
              "internalType": "contract LPToken",
              "name": "",
              "type": "address"
            }
          ],
          "stateMutability": "view",
          "type": "function"
        },
        {
          "inputs": [],
          "name": "name",
          "outputs": [
            {
              "internalType": "string",
              "name": "",
              "type": "string"
            }
          ],
          "stateMutability": "view",
          "type": "function"
        },
        {
          "inputs": [],
          "name": "owner",
          "outputs": [
            {
              "internalType": "address",
              "name": "",
              "type": "address"
            }
          ],
          "stateMutability": "view",
          "type": "function"
        },
        {
          "inputs": [],
          "name": "pauseFarm",
          "outputs": [],
          "stateMutability": "nonpayable",
          "type": "function"
        },
        {
          "inputs": [],
          "name": "paused",
          "outputs": [
            {
              "internalType": "bool",
              "name": "",
              "type": "bool"
            }
          ],
          "stateMutability": "view",
          "type": "function"
        },
        {
          "inputs": [],
          "name": "renounceOwnership",
          "outputs": [],
          "stateMutability": "nonpayable",
          "type": "function"
        },
        {
          "inputs": [],
          "name": "resumeFarm",
          "outputs": [],
          "stateMutability": "nonpayable",
          "type": "function"
        },
        {
          "inputs": [],
          "name": "rewardConfig",
          "outputs": [
            {
              "internalType": "uint256",
              "name": "minPerBlock",
              "type": "uint256"
            },
            {
              "internalType": "uint256",
              "name": "maxPerBlock",
              "type": "uint256"
            },
            {
              "internalType": "uint256",
              "name": "feePercent",
              "type": "uint256"
            },
            {
              "internalType": "uint256",
              "name": "lastUpdate",
              "type": "uint256"
            }
          ],
          "stateMutability": "view",
          "type": "function"
        },
        {
          "inputs": [],
          "name": "rewardPerBlock",
          "outputs": [
            {
              "internalType": "uint256",
              "name": "",
              "type": "uint256"
            }
          ],
          "stateMutability": "view",
          "type": "function"
        },
        {
          "inputs": [],
          "name": "rewardStrategy",
          "outputs": [
            {
              "internalType": "contract IRewardStrategy",
              "name": "",
              "type": "address"
            }
          ],
          "stateMutability": "view",
          "type": "function"
        },
        {
          "inputs": [
            {
              "internalType": "bool",
              "name": "_enabled",
              "type": "bool"
            }
          ],
          "name": "setEmergencyWithdrawEnabled",
          "outputs": [],
          "stateMutability": "nonpayable",
          "type": "function"
        },
        {
          "inputs": [
            {
              "internalType": "uint256",
              "name": "_lockPeriod",
              "type": "uint256"
            }
          ],
          "name": "setLockPeriod",
          "outputs": [],
          "stateMutability": "nonpayable",
          "type": "function"
        },
        {
          "inputs": [
            {
              "internalType": "uint256",
              "name": "_rewardPerBlock",
              "type": "uint256"
            }
          ],
          "name": "setRewardPerBlock",
          "outputs": [],
          "stateMutability": "nonpayable",
          "type": "function"
        },
        {
          "inputs": [
            {
              "internalType": "address",
              "name": "user",
              "type": "address"
            }
          ],
          "name": "simulateRewards",
          "outputs": [
            {
              "internalType": "uint256",
              "name": "pendingRewards",
              "type": "uint256"
            },
            {
              "internalType": "uint256",
              "name": "projectedRewards",
              "type": "uint256"
            }
          ],
          "stateMutability": "view",
          "type": "function"
        },
        {
          "inputs": [
            {
              "internalType": "address",
              "name": "",
              "type": "address"
            }
          ],
          "name": "stakerIndex",
          "outputs": [
            {
              "internalType": "uint256",
              "name": "",
              "type": "uint256"
            }
          ],
          "stateMutability": "view",
          "type": "function"
        },
        {
          "inputs": [
            {
              "internalType": "uint256",
              "name": "",
              "type": "uint256"
            }
          ],
          "name": "stakers",
          "outputs": [
            {
              "internalType": "address",
              "name": "",
              "type": "address"
            }
          ],
          "stateMutability": "view",
          "type": "function"
        },
        {
          "inputs": [
            {
              "internalType": "address",
              "name": "",
              "type": "address"
            }
          ],
          "name": "stakersData",
          "outputs": [
            {
              "internalType": "uint256",
              "name": "balance",
              "type": "uint256"
            },
            {
              "internalType": "uint256",
              "name": "checkpoint",
              "type": "uint256"
            },
            {
              "internalType": "uint256",
              "name": "pendingRewards",
              "type": "uint256"
            },
            {
              "internalType": "uint256",
              "name": "totalClaimed",
              "type": "uint256"
            },
            {
              "internalType": "uint256",
              "name": "depositTimestamp",
              "type": "uint256"
            },
            {
              "internalType": "bool",
              "name": "hasStaked",
              "type": "bool"
            },
            {
              "internalType": "bool",
              "name": "isStaking",
              "type": "bool"
            }
          ],
          "stateMutability": "view",
          "type": "function"
        },
        {
          "inputs": [],
          "name": "totalRewardsDistributed",
          "outputs": [
            {
              "internalType": "uint256",
              "name": "",
              "type": "uint256"
            }
          ],
          "stateMutability": "view",
          "type": "function"
        },
        {
          "inputs": [],
          "name": "totalStakingBalance",
          "outputs": [
            {
              "internalType": "uint256",
              "name": "",
              "type": "uint256"
            }
          ],
          "stateMutability": "view",
          "type": "function"
        },
        {
          "inputs": [
            {
              "internalType": "address",
              "name": "newOwner",
              "type": "address"
            }
          ],
          "name": "transferOwnership",
          "outputs": [],
          "stateMutability": "nonpayable",
          "type": "function"
        },
        {
          "inputs": [
            {
              "internalType": "address",
              "name": "newCollector",
              "type": "address"
            }
          ],
          "name": "updateFeeCollector",
          "outputs": [],
          "stateMutability": "nonpayable",
          "type": "function"
        },
        {
          "inputs": [
            {
              "internalType": "uint256",
              "name": "_withdrawFee",
              "type": "uint256"
            },
            {
              "internalType": "uint256",
              "name": "_claimFee",
              "type": "uint256"
            }
          ],
          "name": "updateFees",
          "outputs": [],
          "stateMutability": "nonpayable",
          "type": "function"
        },
        {
          "inputs": [
            {
              "internalType": "uint256",
              "name": "_newPeriod",
              "type": "uint256"
            }
          ],
          "name": "updateLockPeriod",
          "outputs": [],
          "stateMutability": "nonpayable",
          "type": "function"
        },
        {
          "inputs": [
            {
              "internalType": "uint256",
              "name": "_min",
              "type": "uint256"
            },
            {
              "internalType": "uint256",
              "name": "_max",
              "type": "uint256"
            },
            {
              "internalType": "uint256",
              "name": "_feePercent",
              "type": "uint256"
            }
          ],
          "name": "updateRewardConfig",
          "outputs": [],
          "stateMutability": "nonpayable",
          "type": "function"
        },
        {
          "inputs": [
            {
              "internalType": "contract IRewardStrategy",
              "name": "_newStrategy",
              "type": "address"
            }
          ],
          "name": "updateRewardStrategy",
          "outputs": [],
          "stateMutability": "nonpayable",
          "type": "function"
        },
        {
          "inputs": [],
          "name": "withdraw",
          "outputs": [],
          "stateMutability": "nonpayable",
          "type": "function"
        },
        {
          "inputs": [],
          "name": "withdrawFee",
          "outputs": [
            {
              "internalType": "uint256",
              "name": "",
              "type": "uint256"
            }
          ],
          "stateMutability": "view",
          "type": "function"
        },
        {
          "inputs": [],
          "name": "withdrawFees",
          "outputs": [],
          "stateMutability": "nonpayable",
          "type": "function"
        },
        {
          "inputs": [],
          "name": "withdrawLpFees",
          "outputs": [],
          "stateMutability": "nonpayable",
          "type": "function"
        }
      ],
      "evm": {
        "bytecode": {
          "linkReferences": {},
          "object": "608060405234602357600e6028565b60146028565b60405161266390816100e58239f35b600080fd5b7ff0c57e16840df040f15088dc2f81fe391c3923bec73e23a9662efc9c229c6a005460ff8160401c1660d3576002600160401b03196001600160401b03821601606e5750565b6001600160401b0319166001600160401b039081177ff0c57e16840df040f15088dc2f81fe391c3923bec73e23a9662efc9c229c6a00556040519081527fc7f505b2f371ae2175ee4913f4499e1f2633a7b5936321eed1cdaeb6115181d290602090a1565b63f92ee8a960e01b60005260046000fdfe608080604052600436101561001357600080fd5b60003560e01c90816202eab714611d315750806306309e4b14611cae57806306fdde0314611c565780630d8e6e2c14611c125780631568b16914611bf457806319262d3014611bc35780631f51bf0c14611aab57806325b500eb146119f157806326712743146119d3578063372500ab146117b35780633ccfd60b1461149a5780633fd8b02f1461147c57806344c4aea91461145357806346800f751461082e578063476343ee146113745780634e94c2851461133d5780635747e69f1461131a5780635c975abb146112d85780635eb186f8146112ab5780635fcbd285146112825780636386c1c71461118a57806363a599a41461116957806367d817401461114d5780636c7ecb781461112c5780636db79437146110975780636f3ba88914610ffe578063715018a614610f94578063779972da14610f5c57806378d60a5b14610f225780637bbfffa514610ef35780638ae39cac14610ed55780638da5cb5b14610e9f5780639003adfe14610e81578063910956aa1461060457806391db7b0d14610e2d57806399d32fc414610e0f5780639fb82db914610c7e578063a113601b14610c5d578063acb422c514610bda578063b507d70f14610bbc578063b6b55f25146109aa578063bb872b4a14610989578063c415b95c14610960578063c74ad49314610927578063ccaad55d14610904578063ce2040c8146108dc578063d2c35ce814610833578063d4b0de2f1461082e578063db03e227146106d9578063dfe6b5d61461062b578063e1e158a514610609578063e1f1c4a714610604578063e766c835146105e6578063e941fa78146105c8578063ee172546146105aa578063f2fde38b1461057f578063f8c8765e146102e35763fd5e6dd11461029c57600080fd5b346102de5760203660031901126102de57600435600b548110156102de576102c5602091611e73565b905460405160039290921b1c6001600160a01b03168152f35b600080fd5b346102de5760803660031901126102de576102fc611e00565b6024356001600160a01b03811691908290036102de5761031a611e16565b606435906001600160a01b03821682036102de5760008051602061260e833981519152549367ffffffffffffffff60ff8660401c1615951680159081610577575b600114908161056d575b159081610564575b506105535784600167ffffffffffffffff1960008051602061260e83398151915254161760008051602061260e83398151915255610521575b6103ae6125bf565b6103b66125bf565b6103be6125bf565b6103c78361237f565b6103cf6125bf565b6103d76125bf565b60ff196000541660005543600a55600160ff19600f541617600f5560405193608085019480861067ffffffffffffffff87111761050b576104b19560405267016345785d8a00008152670de0b6b3a764000060208201526002604082015260604291015267016345785d8a0000600355670de0b6b3a764000060045560026005554260065560005490610100600160a81b039060081b1690610100600160a81b031916176000556001600160601b0360a01b600154161760015560018060a01b03166001600160601b0360a01b6002541617600255612460565b6104b757005b60ff60401b1960008051602061260e833981519152541660008051602061260e833981519152557fc7f505b2f371ae2175ee4913f4499e1f2633a7b5936321eed1cdaeb6115181d2602060405160018152a1005b634e487b7160e01b600052604160045260246000fd5b600160401b60ff60401b1960008051602061260e83398151915254161760008051602061260e833981519152556103a6565b63f92ee8a960e01b60005260046000fd5b9050158661036d565b303b159150610365565b86915061035b565b346102de5760203660031901126102de576105a861059b611e00565b6105a36123af565b61237f565b005b346102de5760003660031901126102de576020600954604051908152f35b346102de5760003660031901126102de576020601054604051908152f35b346102de5760003660031901126102de576020600754604051908152f35b611e49565b346102de5760003660031901126102de57602060405166038d7ea4c680008152f35b346102de5760003660031901126102de57600080600b54905b818110610689575060c0916106826007546008546009549060ff60005416926040519687526020870152604086015260608501526080840190611e66565b60a0820152f35b61069281611e73565b60018060a01b0391549060031b1c16600052600c60205260ff60056040600020015460081c166106c5575b600101610644565b916106d160019161228d565b9290506106bd565b346102de5760003660031901126102de576106f26123af565b60ff6000541660038110156108185780610807576002600091146107f8578080805b600b548110156107ad5761072781611e73565b905460039190911b1c6001600160a01b0316808552600c602052604085206005015460081c60ff1661075d575b50600101610714565b6107a0600192939461079a836107a6948952600c602052600260408a20015490610786816124b6565b8952600c602052600260408a200154612045565b90611e8e565b9361228d565b9190610754565b507f6ae8ee960d83517f7fa993ad7a0e16e33d9655a23ff41eefc62bdb289c7a8e5f916107f26040519283924291846040919493926060820195825260208201520152565b0390a180f35b633435875f60e11b8152600490fd5b63566498c160e11b60005260046000fd5b634e487b7160e01b600052602160045260246000fd5b611e2c565b346102de5760203660031901126102de5761084c611e00565b6000805160206125ee833981519152546001600160a01b031633036108cc576001600160a01b031680156108bb576020817fe5693914d19c789bdee50a362998c0bc8d035a835f9871da5d51152f0582c34f926001600160601b0360a01b6012541617601255604051908152a1005b63e6c4247b60e01b60005260046000fd5b6282b42960e81b60005260046000fd5b346102de5760003660031901126102de57602060ff600054166109026040518092611e66565bf35b346102de5760003660031901126102de57602061091f612311565b604051908152f35b346102de5760203660031901126102de576004358015158091036102de5761094d6123af565b60ff8019600f5416911617600f55600080f35b346102de5760003660031901126102de576012546040516001600160a01b039091168152602090f35b346102de5760203660031901126102de576109a26123af565b600435601555005b346102de5760203660031901126102de576004356109c7336123e5565b66038d7ea4c680008110610b8657612710600b54101580610b6a575b610b59576001546040516323b872dd60e01b81523360048201523060248201526044810183905290602090829060649082906000906001600160a01b03165af1908115610b4d57600091610b1e575b5015610b0d5733600052600c6020526040600020906005820160ff81541615610abc575b610a61828454611e8e565b835561010061ff0019825416179055610a7c81600754611e8e565b6007556040519081524260208201527f90890809c654f11d6e72a28fa60149770a0d11ec6c92319d6ceb2bb0a4ea1a1560403392a2600143910155600080f35b600b54600160401b81101561050b57806001610adb9201600b55611e73565b81546001600160a01b0360039290921b91821b19163390911b179055805460ff19166001178155426004840155610a56565b63f45377a960e01b60005260046000fd5b610b40915060203d602011610b46575b610b388183611d95565b810190611fbc565b82610a32565b503d610b2e565b6040513d6000823e3d90fd5b634f26e78960e01b60005260046000fd5b5033600052600c60205260ff60056040600020015416156109e3565b60405162461bcd60e51b815260206004820152600e60248201526d125b9d985b1a5908185b5bdd5b9d60921b6044820152606490fd5b346102de5760003660031901126102de576020600a54604051908152f35b346102de5760203660031901126102de576001600160a01b03610bfb611e00565b16600052600c60205260e0604060002060ff815491600181015490600281015460038201549060056004840154930154936040519687526020870152604086015260608501526080840152818116151560a084015260081c16151560c0820152f35b346102de5760003660031901126102de57610c766123af565b6105a86122b4565b346102de5760003660031901126102de57600080600b54905b818110610dbf5750610cc1610cab8361229c565b92610cb96040519485611d95565b80845261229c565b602083019190601f190136833760009060005b818110610d295783856040519182916020830190602084525180915260408301919060005b818110610d07575050500390f35b82516001600160a01b0316845285945060209384019390920191600101610cf9565b610d3281611e73565b60018060a01b0391549060031b1c16600052600c60205260ff60056040600020015460081c16610d65575b600101610cd4565b91610d6f83611e73565b9054865160039290921b1c6001600160a01b031690821015610da95781610da191602060019460051b8901015261228d565b929050610d5d565b634e487b7160e01b600052603260045260246000fd5b610dc881611e73565b60018060a01b0391549060031b1c16600052600c60205260ff60056040600020015460081c16610dfb575b600101610c97565b91610e0760019161228d565b929050610df3565b346102de5760003660031901126102de576020601154604051908152f35b346102de5760203660031901126102de577f5dd7b309b7bc5010d9c96159ee535a428121d6803cb847792402fffccaf1569a6040600435610e6c6123af565b600e549080600e5582519182526020820152a1005b346102de5760003660031901126102de576020600854604051908152f35b346102de5760003660031901126102de576000805160206125ee833981519152546040516001600160a01b039091168152602090f35b346102de5760003660031901126102de576020601554604051908152f35b346102de5760203660031901126102de576040610f16610f11611e00565b61214b565b82519182526020820152f35b346102de5760203660031901126102de576001600160a01b03610f43611e00565b16600052600d6020526020604060002054604051908152f35b346102de5760203660031901126102de576000805160206125ee833981519152546001600160a01b031633036108cc57600435600e55005b346102de5760003660031901126102de57610fad6123af565b6000805160206125ee83398151915280546001600160a01b031981169091556000906001600160a01b03167f8be0079c531659141344cd1fd0a4f28419497f9722a3daafe3b4186f6b6457e08280a3005b346102de5760603660031901126102de576044356024356004356110206123af565b8181116110865760328311611086576110817f81376037ed87033d6b5601a7c8806a8a7a2649525c23fe62315eb82c39c7e2479382600355836004558060055542600655604051938493846040919493926060820195825260208201520152565b0390a1005b631a67164160e21b60005260046000fd5b346102de5760403660031901126102de576000805160206125ee8339815191525460043590602435906001600160a01b031633036108cc576103e8821161111b576103e8811161111b57816040917f5c6323bf1c2d7aaea2c091a4751c1c87af7f2864650c336507a77d0557af37a1936010558060115582519182526020820152a1005b63ac98d7e160e01b60005260046000fd5b346102de5760003660031901126102de576111456123af565b6105a86120e9565b346102de5760003660031901126102de57602060405160328152f35b346102de5760003660031901126102de576111826123af565b6105a8612052565b346102de5760203660031901126102de576111a3611e00565b600060c06040516111b381611d79565b8281528260208201528260408201528260608201528260808201528260a0820152015260018060a01b0316600052600c60205260e06040600020604051906111fa82611d79565b805491828152600182015491602082019283526002810154604083019081526003820154906060840191825260056004840154936080860194855201549460ff60c060a087019682891615158852019660081c161515865260405196875251602087015251604086015251606085015251608084015251151560a083015251151560c0820152f35b346102de5760003660031901126102de576001546040516001600160a01b039091168152602090f35b346102de5760003660031901126102de5760005460405160089190911c6001600160a01b03168152602090f35b346102de5760003660031901126102de57602060ff7fcd5ed15c6e187e77e9aee88184c21f4f2182ab5827cb3b7e07fbedcd63f0330054166040519015158152f35b346102de5760003660031901126102de57602060ff600f54166040519015158152f35b346102de5760003660031901126102de57608060035460045460055460065491604051938452602084015260408301526060820152f35b346102de5760003660031901126102de5761138d6123af565b60145461139b811515611f86565b60006014819055805460125460405163a9059cbb60e01b81526001600160a01b039182166004820152602481018590529260209284926044928492909160089190911c165af18015610b4d576113f991600091611434575b50611fd4565b6012546040519182526001600160a01b0316907f1d1349746d782d6dfc3ee165ba93babd914b7585e3d3e5497614f9fe0eb3fc1c90602090a2005b61144d915060203d602011610b4657610b388183611d95565b836113f3565b346102de5760003660031901126102de576002546040516001600160a01b039091168152602090f35b346102de5760003660031901126102de576020600e54604051908152f35b346102de5760003660031901126102de5733600052600c60205260ff60056040600020015460081c1615801561179d575b61178c5760ff60005416600381101561081857600214808061177f575b61176e5733600052600c6020526040600020805491821561175d571560008180611752575b61172b575b50611615575b806000600592550161ff0019815416905561153581600754612045565b6007558060ff60005416600381101561081857600214158061160a575b6115d9575b5060015460405163a9059cbb60e01b81523360048201526024810183905290602090829060449082906000906001600160a01b03165af18015610b4d576115a5916000916114345750611fd4565b6040519081524260208201527ff279e6a1f5e320cca91135676d9cb6e44ca8a08c0b88342bcdb1144f6511b56860403392a2005b90506116016115f86127106115f060105485612012565b048093612045565b91601354611e8e565b60135581611557565b506010541515611552565b61161e336123e5565b600281019081549182611634575b509050611518565b61167e61271061164660115486612012565b049360006116548683612045565b935560038401611665848254611e8e565b905561167385601454611e8e565b601455600954611e8e565b6009556000805460405163a9059cbb60e01b8152336004820152602481018490529491602091869160449183919060081c6001600160a01b03165af1938415610b4d576005946116d59160009161170c5750611fd4565b60405191825260208201527feb6ddaf71011472a18676020a53f58d8146f6997849d9b61afe146fe79ab0bd960403392a28361162c565b611725915060203d602011610b4657610b388183611d95565b876113f3565b61173c6004840154600e5490611e8e565b42101561151257631958598b60e01b8152600490fd5b50600e54151561150d565b638339c1ad60e01b60005260046000fd5b633435875f60e11b60005260046000fd5b5060ff600f5416156114e8565b6327b9597960e01b60005260046000fd5b5033600052600c602052604060002054156114cb565b346102de5760003660031901126102de5760ff60005416600381101561081857610807576117e0336123e5565b33600052600c6020526040600020600281019081549081156119a15761271061180b60115484612012565b04916118178382612045565b6000546040516370a0823160e01b8152306004820152919591906020908290602490829060081c6001600160a01b03165afa8015610b4d57869160009161196c575b5010611927576118839260006003925501611875858254611e8e565b905561167383601454611e8e565b6009556000805460405163a9059cbb60e01b81523360048201526024810185905291602091839160449183919060081c6001600160a01b03165af18015610b4d576118d5916000916119085750611fd4565b60405191825260208201527feb6ddaf71011472a18676020a53f58d8146f6997849d9b61afe146fe79ab0bd960403392a2005b611921915060203d602011610b4657610b388183611d95565b846113f3565b60405162461bcd60e51b815260206004820152601d60248201527f496e73756666696369656e7420636f6e74726163742062616c616e63650000006044820152606490fd5b9150506020813d602011611999575b8161198860209383611d95565b810103126102de5785905187611859565b3d915061197b565b60405162461bcd60e51b815260206004820152600a6024820152694e6f207265776172647360b01b6044820152606490fd5b346102de5760003660031901126102de576020601454604051908152f35b346102de5760003660031901126102de57611a0a6123af565b601354611a18811515611f86565b6000601381905560015460125460405163a9059cbb60e01b81526001600160a01b0391821660048201526024810185905292602092849260449284929091165af18015610b4d57611a70916000916114345750611fd4565b6012546040519182526001600160a01b0316907f1e2e6257ac7187b1133b17d3e1e24c28bc4f84273e03229e9fac633c1705dc5f90602090a2005b346102de5760603660031901126102de57602435600435611aca611e16565b9160008051602061260e8339815191525460ff8160401c16908115611bad575b5061055357600267ffffffffffffffff1960008051602061260e83398151915254161760008051602061260e8339815191525560ff60401b1960008051602061260e8339815191525416926103e8831161111b576103e8821161111b576001600160a01b03169182156108bb576010556011556001600160601b0360a01b601254161760125560008051602061260e833981519152557fc7f505b2f371ae2175ee4913f4499e1f2633a7b5936321eed1cdaeb6115181d2602060405160028152a1005b6002915067ffffffffffffffff16101584611aea565b346102de5760203660031901126102de576040611be6611be1611e00565b611eb1565b825191151582526020820152f35b346102de5760003660031901126102de576020601354604051908152f35b346102de5760003660031901126102de57611c52604051611c34604082611d95565b60058152640322e302e360dc1b602082015260405191829182611db7565b0390f35b346102de5760003660031901126102de57611c52604051611c78604082611d95565b601781527f50726f706f7274696f6e616c20546f6b656e204661726d000000000000000000602082015260405191829182611db7565b346102de5760203660031901126102de576004356001600160a01b038116908190036102de57611cdc6123af565b80156110865760407fe4cec16b1a7e6b7979e923da619a8b1e5fd0f0fb6e5c1cf647f350430ee61ca99160025490806001600160601b0360a01b83161760025582519160018060a01b031682526020820152a1005b346102de5760003660031901126102de576010546011546013546014546012549385526020850192909252604084015260608301526001600160a01b0316608082015260a090f35b60e0810190811067ffffffffffffffff82111761050b57604052565b90601f8019910116810190811067ffffffffffffffff82111761050b57604052565b91909160208152825180602083015260005b818110611dea575060409293506000838284010152601f8019910116010190565b8060208092870101516040828601015201611dc9565b600435906001600160a01b03821682036102de57565b604435906001600160a01b03821682036102de57565b346102de5760003660031901126102de5760206040516103e88152f35b346102de5760003660031901126102de5760206040516127108152f35b9060038210156108185752565b600b54811015610da957600b60005260206000200190600090565b91908201809211611e9b57565b634e487b7160e01b600052601160045260246000fd5b60018060a01b0316600052600c602052604060002060c0604051611ed481611d79565b82549081815260018401546020820152600284015460408201526003840154606082015260ff6005600486015495608084019687520154818116151560a084015260081c1615908115938491015291611f7d575b50611f745760ff60005416600381101561081857600214611f6757600e548015611f5d57611f569151611e8e565b4281111591565b5050600190600090565b5060ff600f541690600090565b50600090600090565b90501538611f28565b15611f8d57565b60405162461bcd60e51b81526020600482015260076024820152664e6f206665657360c81b6044820152606490fd5b908160209103126102de575180151581036102de5790565b15611fdb57565b60405162461bcd60e51b815260206004820152600f60248201526e151c985b9cd9995c8819985a5b1959608a1b6044820152606490fd5b81810292918115918404141715611e9b57565b811561202f570490565b634e487b7160e01b600052601260045260246000fd5b91908203918211611e9b57565b60ff60005416600381101561081857600281146120e65760407fe8a97ea87e4388fa22d496b95a8ed5ced6717f49790318de2b928aaf37a021d891600260ff1960005416176000556120b960ff600054166120af84518094611e66565b6020830190611e66565ba17f1e8ac57e9803840915f0284b77b570a882fb2db69108ac8eba578bb30fcaf1526020604051428152a1565b50565b60ff6000541660038110156108185780156120e6576000600282146107f857805460ff19169055604080517fe8a97ea87e4388fa22d496b95a8ed5ced6717f49790318de2b928aaf37a021d892612148906000906120af908490611e66565ba1565b9060018060a01b038216600052600c602052604060002060405161216e81611d79565b815481526001820154806020830152600283015460ff6005604085019583875260038101546060870152600481015460808701520154818116151560a086015260081c16158015908160c086015290612283575b6122785750906121d460209243612045565b60025491516007546003546004805460405163a0acbec360e01b81529182019590955260248101939093526044830191909152606482015260848101919091526001600160a01b0395861660a482015294859160c4918391165afa928315610b4d57600093612244575b50519190565b9092506020813d602011612270575b8161226060209383611d95565b810103126102de5751913861223e565b3d9150612253565b945060009392505050565b50600754156121c2565b6000198114611e9b5760010190565b67ffffffffffffffff811161050b5760051b60200190565b60ff60005416600381101561081857600181146120e65760407fe8a97ea87e4388fa22d496b95a8ed5ced6717f49790318de2b928aaf37a021d891600160ff19600054161760005561214860ff600054166120af84518094611e66565b60075480156123795761232960035460045490611e8e565b60011c906117708202918083046117701481151715611e9b5762216ab081029280840461016d1490151715611e9b57630d0dacc0029180830460641490151715611e9b5761237691612025565b90565b50600090565b6001600160a01b038116156123995761239790612460565b565b631e4fbdf760e01b600052600060045260246000fd5b6000805160206125ee833981519152546001600160a01b031633036123d057565b63118cdaa760e01b6000523360045260246000fd5b60018060a01b0316600052600c60205260406000206001810190815480431180612456575b61241357505050565b600261244561243c61243461242b61244f9543612045565b60155490612012565b855490612012565b60075490612025565b9201918254611e8e565b9055439055565b508154151561240a565b6000805160206125ee83398151915280546001600160a01b039283166001600160a01b0319821681179092559091167f8be0079c531659141344cd1fd0a4f28419497f9722a3daafe3b4186f6b6457e0600080a3565b60018060a01b038116600052600c602052604060002090600182019182548043118015906125b5575b80156125ac575b6125a6576124f660209143612045565b60025483546007546003546004805460405163a0acbec360e01b81529182019690965260248101939093526044830191909152606482015260848101929092526001600160a01b0394851660a48301529093849160c4918391165afa918215610b4d57600092612571575b50600261244f9101918254611e8e565b9091506020813d60201161259e575b8161258d60209383611d95565b810103126102de5751906002612561565b3d9150612580565b50505050565b508154156124e6565b50600754156124df565b60ff60008051602061260e8339815191525460401c16156125dc57565b631afcd79f60e31b60005260046000fdfe9016d09d72d40fdae2fd8ceac6b6234c7706214fd39c1cd1e609a0528c199300f0c57e16840df040f15088dc2f81fe391c3923bec73e23a9662efc9c229c6a00a26469706673582212204ce0a3828bf3b58b37c61157fed076d480b23b75eff009dcc797b27a80df779164736f6c634300081c0033",
          "opcodes": "PUSH1 0x80 PUSH1 0x40 MSTORE CALLVALUE PUSH1 0x23 JUMPI PUSH1 0xE PUSH1 0x28 JUMP JUMPDEST PUSH1 0x14 PUSH1 0x28 JUMP JUMPDEST PUSH1 0x40 MLOAD PUSH2 0x2663 SWAP1 DUP2 PUSH2 0xE5 DUP3 CODECOPY RETURN JUMPDEST PUSH1 0x0 DUP1 REVERT JUMPDEST PUSH32 0xF0C57E16840DF040F15088DC2F81FE391C3923BEC73E23A9662EFC9C229C6A00 SLOAD PUSH1 0xFF DUP2 PUSH1 0x40 SHR AND PUSH1 0xD3 JUMPI PUSH1 0x2 PUSH1 0x1 PUSH1 0x40 SHL SUB NOT PUSH1 0x1 PUSH1 0x1 PUSH1 0x40 SHL SUB DUP3 AND ADD PUSH1 0x6E JUMPI POP JUMP JUMPDEST PUSH1 0x1 PUSH1 0x1 PUSH1 0x40 SHL SUB NOT AND PUSH1 0x1 PUSH1 0x1 PUSH1 0x40 SHL SUB SWAP1 DUP2 OR PUSH32 0xF0C57E16840DF040F15088DC2F81FE391C3923BEC73E23A9662EFC9C229C6A00 SSTORE PUSH1 0x40 MLOAD SWAP1 DUP2 MSTORE PUSH32 0xC7F505B2F371AE2175EE4913F4499E1F2633A7B5936321EED1CDAEB6115181D2 SWAP1 PUSH1 0x20 SWAP1 LOG1 JUMP JUMPDEST PUSH4 0xF92EE8A9 PUSH1 0xE0 SHL PUSH1 0x0 MSTORE PUSH1 0x4 PUSH1 0x0 REVERT INVALID PUSH1 0x80 DUP1 PUSH1 0x40 MSTORE PUSH1 0x4 CALLDATASIZE LT ISZERO PUSH2 0x13 JUMPI PUSH1 0x0 DUP1 REVERT JUMPDEST PUSH1 0x0 CALLDATALOAD PUSH1 0xE0 SHR SWAP1 DUP2 PUSH3 0x2EAB7 EQ PUSH2 0x1D31 JUMPI POP DUP1 PUSH4 0x6309E4B EQ PUSH2 0x1CAE JUMPI DUP1 PUSH4 0x6FDDE03 EQ PUSH2 0x1C56 JUMPI DUP1 PUSH4 0xD8E6E2C EQ PUSH2 0x1C12 JUMPI DUP1 PUSH4 0x1568B169 EQ PUSH2 0x1BF4 JUMPI DUP1 PUSH4 0x19262D30 EQ PUSH2 0x1BC3 JUMPI DUP1 PUSH4 0x1F51BF0C EQ PUSH2 0x1AAB JUMPI DUP1 PUSH4 0x25B500EB EQ PUSH2 0x19F1 JUMPI DUP1 PUSH4 0x26712743 EQ PUSH2 0x19D3 JUMPI DUP1 PUSH4 0x372500AB EQ PUSH2 0x17B3 JUMPI DUP1 PUSH4 0x3CCFD60B EQ PUSH2 0x149A JUMPI DUP1 PUSH4 0x3FD8B02F EQ PUSH2 0x147C JUMPI DUP1 PUSH4 0x44C4AEA9 EQ PUSH2 0x1453 JUMPI DUP1 PUSH4 0x46800F75 EQ PUSH2 0x82E JUMPI DUP1 PUSH4 0x476343EE EQ PUSH2 0x1374 JUMPI DUP1 PUSH4 0x4E94C285 EQ PUSH2 0x133D JUMPI DUP1 PUSH4 0x5747E69F EQ PUSH2 0x131A JUMPI DUP1 PUSH4 0x5C975ABB EQ PUSH2 0x12D8 JUMPI DUP1 PUSH4 0x5EB186F8 EQ PUSH2 0x12AB JUMPI DUP1 PUSH4 0x5FCBD285 EQ PUSH2 0x1282 JUMPI DUP1 PUSH4 0x6386C1C7 EQ PUSH2 0x118A JUMPI DUP1 PUSH4 0x63A599A4 EQ PUSH2 0x1169 JUMPI DUP1 PUSH4 0x67D81740 EQ PUSH2 0x114D JUMPI DUP1 PUSH4 0x6C7ECB78 EQ PUSH2 0x112C JUMPI DUP1 PUSH4 0x6DB79437 EQ PUSH2 0x1097 JUMPI DUP1 PUSH4 0x6F3BA889 EQ PUSH2 0xFFE JUMPI DUP1 PUSH4 0x715018A6 EQ PUSH2 0xF94 JUMPI DUP1 PUSH4 0x779972DA EQ PUSH2 0xF5C JUMPI DUP1 PUSH4 0x78D60A5B EQ PUSH2 0xF22 JUMPI DUP1 PUSH4 0x7BBFFFA5 EQ PUSH2 0xEF3 JUMPI DUP1 PUSH4 0x8AE39CAC EQ PUSH2 0xED5 JUMPI DUP1 PUSH4 0x8DA5CB5B EQ PUSH2 0xE9F JUMPI DUP1 PUSH4 0x9003ADFE EQ PUSH2 0xE81 JUMPI DUP1 PUSH4 0x910956AA EQ PUSH2 0x604 JUMPI DUP1 PUSH4 0x91DB7B0D EQ PUSH2 0xE2D JUMPI DUP1 PUSH4 0x99D32FC4 EQ PUSH2 0xE0F JUMPI DUP1 PUSH4 0x9FB82DB9 EQ PUSH2 0xC7E JUMPI DUP1 PUSH4 0xA113601B EQ PUSH2 0xC5D JUMPI DUP1 PUSH4 0xACB422C5 EQ PUSH2 0xBDA JUMPI DUP1 PUSH4 0xB507D70F EQ PUSH2 0xBBC JUMPI DUP1 PUSH4 0xB6B55F25 EQ PUSH2 0x9AA JUMPI DUP1 PUSH4 0xBB872B4A EQ PUSH2 0x989 JUMPI DUP1 PUSH4 0xC415B95C EQ PUSH2 0x960 JUMPI DUP1 PUSH4 0xC74AD493 EQ PUSH2 0x927 JUMPI DUP1 PUSH4 0xCCAAD55D EQ PUSH2 0x904 JUMPI DUP1 PUSH4 0xCE2040C8 EQ PUSH2 0x8DC JUMPI DUP1 PUSH4 0xD2C35CE8 EQ PUSH2 0x833 JUMPI DUP1 PUSH4 0xD4B0DE2F EQ PUSH2 0x82E JUMPI DUP1 PUSH4 0xDB03E227 EQ PUSH2 0x6D9 JUMPI DUP1 PUSH4 0xDFE6B5D6 EQ PUSH2 0x62B JUMPI DUP1 PUSH4 0xE1E158A5 EQ PUSH2 0x609 JUMPI DUP1 PUSH4 0xE1F1C4A7 EQ PUSH2 0x604 JUMPI DUP1 PUSH4 0xE766C835 EQ PUSH2 0x5E6 JUMPI DUP1 PUSH4 0xE941FA78 EQ PUSH2 0x5C8 JUMPI DUP1 PUSH4 0xEE172546 EQ PUSH2 0x5AA JUMPI DUP1 PUSH4 0xF2FDE38B EQ PUSH2 0x57F JUMPI DUP1 PUSH4 0xF8C8765E EQ PUSH2 0x2E3 JUMPI PUSH4 0xFD5E6DD1 EQ PUSH2 0x29C JUMPI PUSH1 0x0 DUP1 REVERT JUMPDEST CALLVALUE PUSH2 0x2DE JUMPI PUSH1 0x20 CALLDATASIZE PUSH1 0x3 NOT ADD SLT PUSH2 0x2DE JUMPI PUSH1 0x4 CALLDATALOAD PUSH1 0xB SLOAD DUP2 LT ISZERO PUSH2 0x2DE JUMPI PUSH2 0x2C5 PUSH1 0x20 SWAP2 PUSH2 0x1E73 JUMP JUMPDEST SWAP1 SLOAD PUSH1 0x40 MLOAD PUSH1 0x3 SWAP3 SWAP1 SWAP3 SHL SHR PUSH1 0x1 PUSH1 0x1 PUSH1 0xA0 SHL SUB AND DUP2 MSTORE RETURN JUMPDEST PUSH1 0x0 DUP1 REVERT JUMPDEST CALLVALUE PUSH2 0x2DE JUMPI PUSH1 0x80 CALLDATASIZE PUSH1 0x3 NOT ADD SLT PUSH2 0x2DE JUMPI PUSH2 0x2FC PUSH2 0x1E00 JUMP JUMPDEST PUSH1 0x24 CALLDATALOAD PUSH1 0x1 PUSH1 0x1 PUSH1 0xA0 SHL SUB DUP2 AND SWAP2 SWAP1 DUP3 SWAP1 SUB PUSH2 0x2DE JUMPI PUSH2 0x31A PUSH2 0x1E16 JUMP JUMPDEST PUSH1 0x64 CALLDATALOAD SWAP1 PUSH1 0x1 PUSH1 0x1 PUSH1 0xA0 SHL SUB DUP3 AND DUP3 SUB PUSH2 0x2DE JUMPI PUSH1 0x0 DUP1 MLOAD PUSH1 0x20 PUSH2 0x260E DUP4 CODECOPY DUP2 MLOAD SWAP2 MSTORE SLOAD SWAP4 PUSH8 0xFFFFFFFFFFFFFFFF PUSH1 0xFF DUP7 PUSH1 0x40 SHR AND ISZERO SWAP6 AND DUP1 ISZERO SWAP1 DUP2 PUSH2 0x577 JUMPI JUMPDEST PUSH1 0x1 EQ SWAP1 DUP2 PUSH2 0x56D JUMPI JUMPDEST ISZERO SWAP1 DUP2 PUSH2 0x564 JUMPI JUMPDEST POP PUSH2 0x553 JUMPI DUP5 PUSH1 0x1 PUSH8 0xFFFFFFFFFFFFFFFF NOT PUSH1 0x0 DUP1 MLOAD PUSH1 0x20 PUSH2 0x260E DUP4 CODECOPY DUP2 MLOAD SWAP2 MSTORE SLOAD AND OR PUSH1 0x0 DUP1 MLOAD PUSH1 0x20 PUSH2 0x260E DUP4 CODECOPY DUP2 MLOAD SWAP2 MSTORE SSTORE PUSH2 0x521 JUMPI JUMPDEST PUSH2 0x3AE PUSH2 0x25BF JUMP JUMPDEST PUSH2 0x3B6 PUSH2 0x25BF JUMP JUMPDEST PUSH2 0x3BE PUSH2 0x25BF JUMP JUMPDEST PUSH2 0x3C7 DUP4 PUSH2 0x237F JUMP JUMPDEST PUSH2 0x3CF PUSH2 0x25BF JUMP JUMPDEST PUSH2 0x3D7 PUSH2 0x25BF JUMP JUMPDEST PUSH1 0xFF NOT PUSH1 0x0 SLOAD AND PUSH1 0x0 SSTORE NUMBER PUSH1 0xA SSTORE PUSH1 0x1 PUSH1 0xFF NOT PUSH1 0xF SLOAD AND OR PUSH1 0xF SSTORE PUSH1 0x40 MLOAD SWAP4 PUSH1 0x80 DUP6 ADD SWAP5 DUP1 DUP7 LT PUSH8 0xFFFFFFFFFFFFFFFF DUP8 GT OR PUSH2 0x50B JUMPI PUSH2 0x4B1 SWAP6 PUSH1 0x40 MSTORE PUSH8 0x16345785D8A0000 DUP2 MSTORE PUSH8 0xDE0B6B3A7640000 PUSH1 0x20 DUP3 ADD MSTORE PUSH1 0x2 PUSH1 0x40 DUP3 ADD MSTORE PUSH1 0x60 TIMESTAMP SWAP2 ADD MSTORE PUSH8 0x16345785D8A0000 PUSH1 0x3 SSTORE PUSH8 0xDE0B6B3A7640000 PUSH1 0x4 SSTORE PUSH1 0x2 PUSH1 0x5 SSTORE TIMESTAMP PUSH1 0x6 SSTORE PUSH1 0x0 SLOAD SWAP1 PUSH2 0x100 PUSH1 0x1 PUSH1 0xA8 SHL SUB SWAP1 PUSH1 0x8 SHL AND SWAP1 PUSH2 0x100 PUSH1 0x1 PUSH1 0xA8 SHL SUB NOT AND OR PUSH1 0x0 SSTORE PUSH1 0x1 PUSH1 0x1 PUSH1 0x60 SHL SUB PUSH1 0xA0 SHL PUSH1 0x1 SLOAD AND OR PUSH1 0x1 SSTORE PUSH1 0x1 DUP1 PUSH1 0xA0 SHL SUB AND PUSH1 0x1 PUSH1 0x1 PUSH1 0x60 SHL SUB PUSH1 0xA0 SHL PUSH1 0x2 SLOAD AND OR PUSH1 0x2 SSTORE PUSH2 0x2460 JUMP JUMPDEST PUSH2 0x4B7 JUMPI STOP JUMPDEST PUSH1 0xFF PUSH1 0x40 SHL NOT PUSH1 0x0 DUP1 MLOAD PUSH1 0x20 PUSH2 0x260E DUP4 CODECOPY DUP2 MLOAD SWAP2 MSTORE SLOAD AND PUSH1 0x0 DUP1 MLOAD PUSH1 0x20 PUSH2 0x260E DUP4 CODECOPY DUP2 MLOAD SWAP2 MSTORE SSTORE PUSH32 0xC7F505B2F371AE2175EE4913F4499E1F2633A7B5936321EED1CDAEB6115181D2 PUSH1 0x20 PUSH1 0x40 MLOAD PUSH1 0x1 DUP2 MSTORE LOG1 STOP JUMPDEST PUSH4 0x4E487B71 PUSH1 0xE0 SHL PUSH1 0x0 MSTORE PUSH1 0x41 PUSH1 0x4 MSTORE PUSH1 0x24 PUSH1 0x0 REVERT JUMPDEST PUSH1 0x1 PUSH1 0x40 SHL PUSH1 0xFF PUSH1 0x40 SHL NOT PUSH1 0x0 DUP1 MLOAD PUSH1 0x20 PUSH2 0x260E DUP4 CODECOPY DUP2 MLOAD SWAP2 MSTORE SLOAD AND OR PUSH1 0x0 DUP1 MLOAD PUSH1 0x20 PUSH2 0x260E DUP4 CODECOPY DUP2 MLOAD SWAP2 MSTORE SSTORE PUSH2 0x3A6 JUMP JUMPDEST PUSH4 0xF92EE8A9 PUSH1 0xE0 SHL PUSH1 0x0 MSTORE PUSH1 0x4 PUSH1 0x0 REVERT JUMPDEST SWAP1 POP ISZERO DUP7 PUSH2 0x36D JUMP JUMPDEST ADDRESS EXTCODESIZE ISZERO SWAP2 POP PUSH2 0x365 JUMP JUMPDEST DUP7 SWAP2 POP PUSH2 0x35B JUMP JUMPDEST CALLVALUE PUSH2 0x2DE JUMPI PUSH1 0x20 CALLDATASIZE PUSH1 0x3 NOT ADD SLT PUSH2 0x2DE JUMPI PUSH2 0x5A8 PUSH2 0x59B PUSH2 0x1E00 JUMP JUMPDEST PUSH2 0x5A3 PUSH2 0x23AF JUMP JUMPDEST PUSH2 0x237F JUMP JUMPDEST STOP JUMPDEST CALLVALUE PUSH2 0x2DE JUMPI PUSH1 0x0 CALLDATASIZE PUSH1 0x3 NOT ADD SLT PUSH2 0x2DE JUMPI PUSH1 0x20 PUSH1 0x9 SLOAD PUSH1 0x40 MLOAD SWAP1 DUP2 MSTORE RETURN JUMPDEST CALLVALUE PUSH2 0x2DE JUMPI PUSH1 0x0 CALLDATASIZE PUSH1 0x3 NOT ADD SLT PUSH2 0x2DE JUMPI PUSH1 0x20 PUSH1 0x10 SLOAD PUSH1 0x40 MLOAD SWAP1 DUP2 MSTORE RETURN JUMPDEST CALLVALUE PUSH2 0x2DE JUMPI PUSH1 0x0 CALLDATASIZE PUSH1 0x3 NOT ADD SLT PUSH2 0x2DE JUMPI PUSH1 0x20 PUSH1 0x7 SLOAD PUSH1 0x40 MLOAD SWAP1 DUP2 MSTORE RETURN JUMPDEST PUSH2 0x1E49 JUMP JUMPDEST CALLVALUE PUSH2 0x2DE JUMPI PUSH1 0x0 CALLDATASIZE PUSH1 0x3 NOT ADD SLT PUSH2 0x2DE JUMPI PUSH1 0x20 PUSH1 0x40 MLOAD PUSH7 0x38D7EA4C68000 DUP2 MSTORE RETURN JUMPDEST CALLVALUE PUSH2 0x2DE JUMPI PUSH1 0x0 CALLDATASIZE PUSH1 0x3 NOT ADD SLT PUSH2 0x2DE JUMPI PUSH1 0x0 DUP1 PUSH1 0xB SLOAD SWAP1 JUMPDEST DUP2 DUP2 LT PUSH2 0x689 JUMPI POP PUSH1 0xC0 SWAP2 PUSH2 0x682 PUSH1 0x7 SLOAD PUSH1 0x8 SLOAD PUSH1 0x9 SLOAD SWAP1 PUSH1 0xFF PUSH1 0x0 SLOAD AND SWAP3 PUSH1 0x40 MLOAD SWAP7 DUP8 MSTORE PUSH1 0x20 DUP8 ADD MSTORE PUSH1 0x40 DUP7 ADD MSTORE PUSH1 0x60 DUP6 ADD MSTORE PUSH1 0x80 DUP5 ADD SWAP1 PUSH2 0x1E66 JUMP JUMPDEST PUSH1 0xA0 DUP3 ADD MSTORE RETURN JUMPDEST PUSH2 0x692 DUP2 PUSH2 0x1E73 JUMP JUMPDEST PUSH1 0x1 DUP1 PUSH1 0xA0 SHL SUB SWAP2 SLOAD SWAP1 PUSH1 0x3 SHL SHR AND PUSH1 0x0 MSTORE PUSH1 0xC PUSH1 0x20 MSTORE PUSH1 0xFF PUSH1 0x5 PUSH1 0x40 PUSH1 0x0 KECCAK256 ADD SLOAD PUSH1 0x8 SHR AND PUSH2 0x6C5 JUMPI JUMPDEST PUSH1 0x1 ADD PUSH2 0x644 JUMP JUMPDEST SWAP2 PUSH2 0x6D1 PUSH1 0x1 SWAP2 PUSH2 0x228D JUMP JUMPDEST SWAP3 SWAP1 POP PUSH2 0x6BD JUMP JUMPDEST CALLVALUE PUSH2 0x2DE JUMPI PUSH1 0x0 CALLDATASIZE PUSH1 0x3 NOT ADD SLT PUSH2 0x2DE JUMPI PUSH2 0x6F2 PUSH2 0x23AF JUMP JUMPDEST PUSH1 0xFF PUSH1 0x0 SLOAD AND PUSH1 0x3 DUP2 LT ISZERO PUSH2 0x818 JUMPI DUP1 PUSH2 0x807 JUMPI PUSH1 0x2 PUSH1 0x0 SWAP2 EQ PUSH2 0x7F8 JUMPI DUP1 DUP1 DUP1 JUMPDEST PUSH1 0xB SLOAD DUP2 LT ISZERO PUSH2 0x7AD JUMPI PUSH2 0x727 DUP2 PUSH2 0x1E73 JUMP JUMPDEST SWAP1 SLOAD PUSH1 0x3 SWAP2 SWAP1 SWAP2 SHL SHR PUSH1 0x1 PUSH1 0x1 PUSH1 0xA0 SHL SUB AND DUP1 DUP6 MSTORE PUSH1 0xC PUSH1 0x20 MSTORE PUSH1 0x40 DUP6 KECCAK256 PUSH1 0x5 ADD SLOAD PUSH1 0x8 SHR PUSH1 0xFF AND PUSH2 0x75D JUMPI JUMPDEST POP PUSH1 0x1 ADD PUSH2 0x714 JUMP JUMPDEST PUSH2 0x7A0 PUSH1 0x1 SWAP3 SWAP4 SWAP5 PUSH2 0x79A DUP4 PUSH2 0x7A6 SWAP5 DUP10 MSTORE PUSH1 0xC PUSH1 0x20 MSTORE PUSH1 0x2 PUSH1 0x40 DUP11 KECCAK256 ADD SLOAD SWAP1 PUSH2 0x786 DUP2 PUSH2 0x24B6 JUMP JUMPDEST DUP10 MSTORE PUSH1 0xC PUSH1 0x20 MSTORE PUSH1 0x2 PUSH1 0x40 DUP11 KECCAK256 ADD SLOAD PUSH2 0x2045 JUMP JUMPDEST SWAP1 PUSH2 0x1E8E JUMP JUMPDEST SWAP4 PUSH2 0x228D JUMP JUMPDEST SWAP2 SWAP1 PUSH2 0x754 JUMP JUMPDEST POP PUSH32 0x6AE8EE960D83517F7FA993AD7A0E16E33D9655A23FF41EEFC62BDB289C7A8E5F SWAP2 PUSH2 0x7F2 PUSH1 0x40 MLOAD SWAP3 DUP4 SWAP3 TIMESTAMP SWAP2 DUP5 PUSH1 0x40 SWAP2 SWAP5 SWAP4 SWAP3 PUSH1 0x60 DUP3 ADD SWAP6 DUP3 MSTORE PUSH1 0x20 DUP3 ADD MSTORE ADD MSTORE JUMP JUMPDEST SUB SWAP1 LOG1 DUP1 RETURN JUMPDEST PUSH4 0x3435875F PUSH1 0xE1 SHL DUP2 MSTORE PUSH1 0x4 SWAP1 REVERT JUMPDEST PUSH4 0x566498C1 PUSH1 0xE1 SHL PUSH1 0x0 MSTORE PUSH1 0x4 PUSH1 0x0 REVERT JUMPDEST PUSH4 0x4E487B71 PUSH1 0xE0 SHL PUSH1 0x0 MSTORE PUSH1 0x21 PUSH1 0x4 MSTORE PUSH1 0x24 PUSH1 0x0 REVERT JUMPDEST PUSH2 0x1E2C JUMP JUMPDEST CALLVALUE PUSH2 0x2DE JUMPI PUSH1 0x20 CALLDATASIZE PUSH1 0x3 NOT ADD SLT PUSH2 0x2DE JUMPI PUSH2 0x84C PUSH2 0x1E00 JUMP JUMPDEST PUSH1 0x0 DUP1 MLOAD PUSH1 0x20 PUSH2 0x25EE DUP4 CODECOPY DUP2 MLOAD SWAP2 MSTORE SLOAD PUSH1 0x1 PUSH1 0x1 PUSH1 0xA0 SHL SUB AND CALLER SUB PUSH2 0x8CC JUMPI PUSH1 0x1 PUSH1 0x1 PUSH1 0xA0 SHL SUB AND DUP1 ISZERO PUSH2 0x8BB JUMPI PUSH1 0x20 DUP2 PUSH32 0xE5693914D19C789BDEE50A362998C0BC8D035A835F9871DA5D51152F0582C34F SWAP3 PUSH1 0x1 PUSH1 0x1 PUSH1 0x60 SHL SUB PUSH1 0xA0 SHL PUSH1 0x12 SLOAD AND OR PUSH1 0x12 SSTORE PUSH1 0x40 MLOAD SWAP1 DUP2 MSTORE LOG1 STOP JUMPDEST PUSH4 0xE6C4247B PUSH1 0xE0 SHL PUSH1 0x0 MSTORE PUSH1 0x4 PUSH1 0x0 REVERT JUMPDEST PUSH3 0x82B429 PUSH1 0xE8 SHL PUSH1 0x0 MSTORE PUSH1 0x4 PUSH1 0x0 REVERT JUMPDEST CALLVALUE PUSH2 0x2DE JUMPI PUSH1 0x0 CALLDATASIZE PUSH1 0x3 NOT ADD SLT PUSH2 0x2DE JUMPI PUSH1 0x20 PUSH1 0xFF PUSH1 0x0 SLOAD AND PUSH2 0x902 PUSH1 0x40 MLOAD DUP1 SWAP3 PUSH2 0x1E66 JUMP JUMPDEST RETURN JUMPDEST CALLVALUE PUSH2 0x2DE JUMPI PUSH1 0x0 CALLDATASIZE PUSH1 0x3 NOT ADD SLT PUSH2 0x2DE JUMPI PUSH1 0x20 PUSH2 0x91F PUSH2 0x2311 JUMP JUMPDEST PUSH1 0x40 MLOAD SWAP1 DUP2 MSTORE RETURN JUMPDEST CALLVALUE PUSH2 0x2DE JUMPI PUSH1 0x20 CALLDATASIZE PUSH1 0x3 NOT ADD SLT PUSH2 0x2DE JUMPI PUSH1 0x4 CALLDATALOAD DUP1 ISZERO ISZERO DUP1 SWAP2 SUB PUSH2 0x2DE JUMPI PUSH2 0x94D PUSH2 0x23AF JUMP JUMPDEST PUSH1 0xFF DUP1 NOT PUSH1 0xF SLOAD AND SWAP2 AND OR PUSH1 0xF SSTORE PUSH1 0x0 DUP1 RETURN JUMPDEST CALLVALUE PUSH2 0x2DE JUMPI PUSH1 0x0 CALLDATASIZE PUSH1 0x3 NOT ADD SLT PUSH2 0x2DE JUMPI PUSH1 0x12 SLOAD PUSH1 0x40 MLOAD PUSH1 0x1 PUSH1 0x1 PUSH1 0xA0 SHL SUB SWAP1 SWAP2 AND DUP2 MSTORE PUSH1 0x20 SWAP1 RETURN JUMPDEST CALLVALUE PUSH2 0x2DE JUMPI PUSH1 0x20 CALLDATASIZE PUSH1 0x3 NOT ADD SLT PUSH2 0x2DE JUMPI PUSH2 0x9A2 PUSH2 0x23AF JUMP JUMPDEST PUSH1 0x4 CALLDATALOAD PUSH1 0x15 SSTORE STOP JUMPDEST CALLVALUE PUSH2 0x2DE JUMPI PUSH1 0x20 CALLDATASIZE PUSH1 0x3 NOT ADD SLT PUSH2 0x2DE JUMPI PUSH1 0x4 CALLDATALOAD PUSH2 0x9C7 CALLER PUSH2 0x23E5 JUMP JUMPDEST PUSH7 0x38D7EA4C68000 DUP2 LT PUSH2 0xB86 JUMPI PUSH2 0x2710 PUSH1 0xB SLOAD LT ISZERO DUP1 PUSH2 0xB6A JUMPI JUMPDEST PUSH2 0xB59 JUMPI PUSH1 0x1 SLOAD PUSH1 0x40 MLOAD PUSH4 0x23B872DD PUSH1 0xE0 SHL DUP2 MSTORE CALLER PUSH1 0x4 DUP3 ADD MSTORE ADDRESS PUSH1 0x24 DUP3 ADD MSTORE PUSH1 0x44 DUP2 ADD DUP4 SWAP1 MSTORE SWAP1 PUSH1 0x20 SWAP1 DUP3 SWAP1 PUSH1 0x64 SWAP1 DUP3 SWAP1 PUSH1 0x0 SWAP1 PUSH1 0x1 PUSH1 0x1 PUSH1 0xA0 SHL SUB AND GAS CALL SWAP1 DUP2 ISZERO PUSH2 0xB4D JUMPI PUSH1 0x0 SWAP2 PUSH2 0xB1E JUMPI JUMPDEST POP ISZERO PUSH2 0xB0D JUMPI CALLER PUSH1 0x0 MSTORE PUSH1 0xC PUSH1 0x20 MSTORE PUSH1 0x40 PUSH1 0x0 KECCAK256 SWAP1 PUSH1 0x5 DUP3 ADD PUSH1 0xFF DUP2 SLOAD AND ISZERO PUSH2 0xABC JUMPI JUMPDEST PUSH2 0xA61 DUP3 DUP5 SLOAD PUSH2 0x1E8E JUMP JUMPDEST DUP4 SSTORE PUSH2 0x100 PUSH2 0xFF00 NOT DUP3 SLOAD AND OR SWAP1 SSTORE PUSH2 0xA7C DUP2 PUSH1 0x7 SLOAD PUSH2 0x1E8E JUMP JUMPDEST PUSH1 0x7 SSTORE PUSH1 0x40 MLOAD SWAP1 DUP2 MSTORE TIMESTAMP PUSH1 0x20 DUP3 ADD MSTORE PUSH32 0x90890809C654F11D6E72A28FA60149770A0D11EC6C92319D6CEB2BB0A4EA1A15 PUSH1 0x40 CALLER SWAP3 LOG2 PUSH1 0x1 NUMBER SWAP2 ADD SSTORE PUSH1 0x0 DUP1 RETURN JUMPDEST PUSH1 0xB SLOAD PUSH1 0x1 PUSH1 0x40 SHL DUP2 LT ISZERO PUSH2 0x50B JUMPI DUP1 PUSH1 0x1 PUSH2 0xADB SWAP3 ADD PUSH1 0xB SSTORE PUSH2 0x1E73 JUMP JUMPDEST DUP2 SLOAD PUSH1 0x1 PUSH1 0x1 PUSH1 0xA0 SHL SUB PUSH1 0x3 SWAP3 SWAP1 SWAP3 SHL SWAP2 DUP3 SHL NOT AND CALLER SWAP1 SWAP2 SHL OR SWAP1 SSTORE DUP1 SLOAD PUSH1 0xFF NOT AND PUSH1 0x1 OR DUP2 SSTORE TIMESTAMP PUSH1 0x4 DUP5 ADD SSTORE PUSH2 0xA56 JUMP JUMPDEST PUSH4 0xF45377A9 PUSH1 0xE0 SHL PUSH1 0x0 MSTORE PUSH1 0x4 PUSH1 0x0 REVERT JUMPDEST PUSH2 0xB40 SWAP2 POP PUSH1 0x20 RETURNDATASIZE PUSH1 0x20 GT PUSH2 0xB46 JUMPI JUMPDEST PUSH2 0xB38 DUP2 DUP4 PUSH2 0x1D95 JUMP JUMPDEST DUP2 ADD SWAP1 PUSH2 0x1FBC JUMP JUMPDEST DUP3 PUSH2 0xA32 JUMP JUMPDEST POP RETURNDATASIZE PUSH2 0xB2E JUMP JUMPDEST PUSH1 0x40 MLOAD RETURNDATASIZE PUSH1 0x0 DUP3 RETURNDATACOPY RETURNDATASIZE SWAP1 REVERT JUMPDEST PUSH4 0x4F26E789 PUSH1 0xE0 SHL PUSH1 0x0 MSTORE PUSH1 0x4 PUSH1 0x0 REVERT JUMPDEST POP CALLER PUSH1 0x0 MSTORE PUSH1 0xC PUSH1 0x20 MSTORE PUSH1 0xFF PUSH1 0x5 PUSH1 0x40 PUSH1 0x0 KECCAK256 ADD SLOAD AND ISZERO PUSH2 0x9E3 JUMP JUMPDEST PUSH1 0x40 MLOAD PUSH3 0x461BCD PUSH1 0xE5 SHL DUP2 MSTORE PUSH1 0x20 PUSH1 0x4 DUP3 ADD MSTORE PUSH1 0xE PUSH1 0x24 DUP3 ADD MSTORE PUSH14 0x125B9D985B1A5908185B5BDD5B9D PUSH1 0x92 SHL PUSH1 0x44 DUP3 ADD MSTORE PUSH1 0x64 SWAP1 REVERT JUMPDEST CALLVALUE PUSH2 0x2DE JUMPI PUSH1 0x0 CALLDATASIZE PUSH1 0x3 NOT ADD SLT PUSH2 0x2DE JUMPI PUSH1 0x20 PUSH1 0xA SLOAD PUSH1 0x40 MLOAD SWAP1 DUP2 MSTORE RETURN JUMPDEST CALLVALUE PUSH2 0x2DE JUMPI PUSH1 0x20 CALLDATASIZE PUSH1 0x3 NOT ADD SLT PUSH2 0x2DE JUMPI PUSH1 0x1 PUSH1 0x1 PUSH1 0xA0 SHL SUB PUSH2 0xBFB PUSH2 0x1E00 JUMP JUMPDEST AND PUSH1 0x0 MSTORE PUSH1 0xC PUSH1 0x20 MSTORE PUSH1 0xE0 PUSH1 0x40 PUSH1 0x0 KECCAK256 PUSH1 0xFF DUP2 SLOAD SWAP2 PUSH1 0x1 DUP2 ADD SLOAD SWAP1 PUSH1 0x2 DUP2 ADD SLOAD PUSH1 0x3 DUP3 ADD SLOAD SWAP1 PUSH1 0x5 PUSH1 0x4 DUP5 ADD SLOAD SWAP4 ADD SLOAD SWAP4 PUSH1 0x40 MLOAD SWAP7 DUP8 MSTORE PUSH1 0x20 DUP8 ADD MSTORE PUSH1 0x40 DUP7 ADD MSTORE PUSH1 0x60 DUP6 ADD MSTORE PUSH1 0x80 DUP5 ADD MSTORE DUP2 DUP2 AND ISZERO ISZERO PUSH1 0xA0 DUP5 ADD MSTORE PUSH1 0x8 SHR AND ISZERO ISZERO PUSH1 0xC0 DUP3 ADD MSTORE RETURN JUMPDEST CALLVALUE PUSH2 0x2DE JUMPI PUSH1 0x0 CALLDATASIZE PUSH1 0x3 NOT ADD SLT PUSH2 0x2DE JUMPI PUSH2 0xC76 PUSH2 0x23AF JUMP JUMPDEST PUSH2 0x5A8 PUSH2 0x22B4 JUMP JUMPDEST CALLVALUE PUSH2 0x2DE JUMPI PUSH1 0x0 CALLDATASIZE PUSH1 0x3 NOT ADD SLT PUSH2 0x2DE JUMPI PUSH1 0x0 DUP1 PUSH1 0xB SLOAD SWAP1 JUMPDEST DUP2 DUP2 LT PUSH2 0xDBF JUMPI POP PUSH2 0xCC1 PUSH2 0xCAB DUP4 PUSH2 0x229C JUMP JUMPDEST SWAP3 PUSH2 0xCB9 PUSH1 0x40 MLOAD SWAP5 DUP6 PUSH2 0x1D95 JUMP JUMPDEST DUP1 DUP5 MSTORE PUSH2 0x229C JUMP JUMPDEST PUSH1 0x20 DUP4 ADD SWAP2 SWAP1 PUSH1 0x1F NOT ADD CALLDATASIZE DUP4 CALLDATACOPY PUSH1 0x0 SWAP1 PUSH1 0x0 JUMPDEST DUP2 DUP2 LT PUSH2 0xD29 JUMPI DUP4 DUP6 PUSH1 0x40 MLOAD SWAP2 DUP3 SWAP2 PUSH1 0x20 DUP4 ADD SWAP1 PUSH1 0x20 DUP5 MSTORE MLOAD DUP1 SWAP2 MSTORE PUSH1 0x40 DUP4 ADD SWAP2 SWAP1 PUSH1 0x0 JUMPDEST DUP2 DUP2 LT PUSH2 0xD07 JUMPI POP POP POP SUB SWAP1 RETURN JUMPDEST DUP3 MLOAD PUSH1 0x1 PUSH1 0x1 PUSH1 0xA0 SHL SUB AND DUP5 MSTORE DUP6 SWAP5 POP PUSH1 0x20 SWAP4 DUP5 ADD SWAP4 SWAP1 SWAP3 ADD SWAP2 PUSH1 0x1 ADD PUSH2 0xCF9 JUMP JUMPDEST PUSH2 0xD32 DUP2 PUSH2 0x1E73 JUMP JUMPDEST PUSH1 0x1 DUP1 PUSH1 0xA0 SHL SUB SWAP2 SLOAD SWAP1 PUSH1 0x3 SHL SHR AND PUSH1 0x0 MSTORE PUSH1 0xC PUSH1 0x20 MSTORE PUSH1 0xFF PUSH1 0x5 PUSH1 0x40 PUSH1 0x0 KECCAK256 ADD SLOAD PUSH1 0x8 SHR AND PUSH2 0xD65 JUMPI JUMPDEST PUSH1 0x1 ADD PUSH2 0xCD4 JUMP JUMPDEST SWAP2 PUSH2 0xD6F DUP4 PUSH2 0x1E73 JUMP JUMPDEST SWAP1 SLOAD DUP7 MLOAD PUSH1 0x3 SWAP3 SWAP1 SWAP3 SHL SHR PUSH1 0x1 PUSH1 0x1 PUSH1 0xA0 SHL SUB AND SWAP1 DUP3 LT ISZERO PUSH2 0xDA9 JUMPI DUP2 PUSH2 0xDA1 SWAP2 PUSH1 0x20 PUSH1 0x1 SWAP5 PUSH1 0x5 SHL DUP10 ADD ADD MSTORE PUSH2 0x228D JUMP JUMPDEST SWAP3 SWAP1 POP PUSH2 0xD5D JUMP JUMPDEST PUSH4 0x4E487B71 PUSH1 0xE0 SHL PUSH1 0x0 MSTORE PUSH1 0x32 PUSH1 0x4 MSTORE PUSH1 0x24 PUSH1 0x0 REVERT JUMPDEST PUSH2 0xDC8 DUP2 PUSH2 0x1E73 JUMP JUMPDEST PUSH1 0x1 DUP1 PUSH1 0xA0 SHL SUB SWAP2 SLOAD SWAP1 PUSH1 0x3 SHL SHR AND PUSH1 0x0 MSTORE PUSH1 0xC PUSH1 0x20 MSTORE PUSH1 0xFF PUSH1 0x5 PUSH1 0x40 PUSH1 0x0 KECCAK256 ADD SLOAD PUSH1 0x8 SHR AND PUSH2 0xDFB JUMPI JUMPDEST PUSH1 0x1 ADD PUSH2 0xC97 JUMP JUMPDEST SWAP2 PUSH2 0xE07 PUSH1 0x1 SWAP2 PUSH2 0x228D JUMP JUMPDEST SWAP3 SWAP1 POP PUSH2 0xDF3 JUMP JUMPDEST CALLVALUE PUSH2 0x2DE JUMPI PUSH1 0x0 CALLDATASIZE PUSH1 0x3 NOT ADD SLT PUSH2 0x2DE JUMPI PUSH1 0x20 PUSH1 0x11 SLOAD PUSH1 0x40 MLOAD SWAP1 DUP2 MSTORE RETURN JUMPDEST CALLVALUE PUSH2 0x2DE JUMPI PUSH1 0x20 CALLDATASIZE PUSH1 0x3 NOT ADD SLT PUSH2 0x2DE JUMPI PUSH32 0x5DD7B309B7BC5010D9C96159EE535A428121D6803CB847792402FFFCCAF1569A PUSH1 0x40 PUSH1 0x4 CALLDATALOAD PUSH2 0xE6C PUSH2 0x23AF JUMP JUMPDEST PUSH1 0xE SLOAD SWAP1 DUP1 PUSH1 0xE SSTORE DUP3 MLOAD SWAP2 DUP3 MSTORE PUSH1 0x20 DUP3 ADD MSTORE LOG1 STOP JUMPDEST CALLVALUE PUSH2 0x2DE JUMPI PUSH1 0x0 CALLDATASIZE PUSH1 0x3 NOT ADD SLT PUSH2 0x2DE JUMPI PUSH1 0x20 PUSH1 0x8 SLOAD PUSH1 0x40 MLOAD SWAP1 DUP2 MSTORE RETURN JUMPDEST CALLVALUE PUSH2 0x2DE JUMPI PUSH1 0x0 CALLDATASIZE PUSH1 0x3 NOT ADD SLT PUSH2 0x2DE JUMPI PUSH1 0x0 DUP1 MLOAD PUSH1 0x20 PUSH2 0x25EE DUP4 CODECOPY DUP2 MLOAD SWAP2 MSTORE SLOAD PUSH1 0x40 MLOAD PUSH1 0x1 PUSH1 0x1 PUSH1 0xA0 SHL SUB SWAP1 SWAP2 AND DUP2 MSTORE PUSH1 0x20 SWAP1 RETURN JUMPDEST CALLVALUE PUSH2 0x2DE JUMPI PUSH1 0x0 CALLDATASIZE PUSH1 0x3 NOT ADD SLT PUSH2 0x2DE JUMPI PUSH1 0x20 PUSH1 0x15 SLOAD PUSH1 0x40 MLOAD SWAP1 DUP2 MSTORE RETURN JUMPDEST CALLVALUE PUSH2 0x2DE JUMPI PUSH1 0x20 CALLDATASIZE PUSH1 0x3 NOT ADD SLT PUSH2 0x2DE JUMPI PUSH1 0x40 PUSH2 0xF16 PUSH2 0xF11 PUSH2 0x1E00 JUMP JUMPDEST PUSH2 0x214B JUMP JUMPDEST DUP3 MLOAD SWAP2 DUP3 MSTORE PUSH1 0x20 DUP3 ADD MSTORE RETURN JUMPDEST CALLVALUE PUSH2 0x2DE JUMPI PUSH1 0x20 CALLDATASIZE PUSH1 0x3 NOT ADD SLT PUSH2 0x2DE JUMPI PUSH1 0x1 PUSH1 0x1 PUSH1 0xA0 SHL SUB PUSH2 0xF43 PUSH2 0x1E00 JUMP JUMPDEST AND PUSH1 0x0 MSTORE PUSH1 0xD PUSH1 0x20 MSTORE PUSH1 0x20 PUSH1 0x40 PUSH1 0x0 KECCAK256 SLOAD PUSH1 0x40 MLOAD SWAP1 DUP2 MSTORE RETURN JUMPDEST CALLVALUE PUSH2 0x2DE JUMPI PUSH1 0x20 CALLDATASIZE PUSH1 0x3 NOT ADD SLT PUSH2 0x2DE JUMPI PUSH1 0x0 DUP1 MLOAD PUSH1 0x20 PUSH2 0x25EE DUP4 CODECOPY DUP2 MLOAD SWAP2 MSTORE SLOAD PUSH1 0x1 PUSH1 0x1 PUSH1 0xA0 SHL SUB AND CALLER SUB PUSH2 0x8CC JUMPI PUSH1 0x4 CALLDATALOAD PUSH1 0xE SSTORE STOP JUMPDEST CALLVALUE PUSH2 0x2DE JUMPI PUSH1 0x0 CALLDATASIZE PUSH1 0x3 NOT ADD SLT PUSH2 0x2DE JUMPI PUSH2 0xFAD PUSH2 0x23AF JUMP JUMPDEST PUSH1 0x0 DUP1 MLOAD PUSH1 0x20 PUSH2 0x25EE DUP4 CODECOPY DUP2 MLOAD SWAP2 MSTORE DUP1 SLOAD PUSH1 0x1 PUSH1 0x1 PUSH1 0xA0 SHL SUB NOT DUP2 AND SWAP1 SWAP2 SSTORE PUSH1 0x0 SWAP1 PUSH1 0x1 PUSH1 0x1 PUSH1 0xA0 SHL SUB AND PUSH32 0x8BE0079C531659141344CD1FD0A4F28419497F9722A3DAAFE3B4186F6B6457E0 DUP3 DUP1 LOG3 STOP JUMPDEST CALLVALUE PUSH2 0x2DE JUMPI PUSH1 0x60 CALLDATASIZE PUSH1 0x3 NOT ADD SLT PUSH2 0x2DE JUMPI PUSH1 0x44 CALLDATALOAD PUSH1 0x24 CALLDATALOAD PUSH1 0x4 CALLDATALOAD PUSH2 0x1020 PUSH2 0x23AF JUMP JUMPDEST DUP2 DUP2 GT PUSH2 0x1086 JUMPI PUSH1 0x32 DUP4 GT PUSH2 0x1086 JUMPI PUSH2 0x1081 PUSH32 0x81376037ED87033D6B5601A7C8806A8A7A2649525C23FE62315EB82C39C7E247 SWAP4 DUP3 PUSH1 0x3 SSTORE DUP4 PUSH1 0x4 SSTORE DUP1 PUSH1 0x5 SSTORE TIMESTAMP PUSH1 0x6 SSTORE PUSH1 0x40 MLOAD SWAP4 DUP5 SWAP4 DUP5 PUSH1 0x40 SWAP2 SWAP5 SWAP4 SWAP3 PUSH1 0x60 DUP3 ADD SWAP6 DUP3 MSTORE PUSH1 0x20 DUP3 ADD MSTORE ADD MSTORE JUMP JUMPDEST SUB SWAP1 LOG1 STOP JUMPDEST PUSH4 0x1A671641 PUSH1 0xE2 SHL PUSH1 0x0 MSTORE PUSH1 0x4 PUSH1 0x0 REVERT JUMPDEST CALLVALUE PUSH2 0x2DE JUMPI PUSH1 0x40 CALLDATASIZE PUSH1 0x3 NOT ADD SLT PUSH2 0x2DE JUMPI PUSH1 0x0 DUP1 MLOAD PUSH1 0x20 PUSH2 0x25EE DUP4 CODECOPY DUP2 MLOAD SWAP2 MSTORE SLOAD PUSH1 0x4 CALLDATALOAD SWAP1 PUSH1 0x24 CALLDATALOAD SWAP1 PUSH1 0x1 PUSH1 0x1 PUSH1 0xA0 SHL SUB AND CALLER SUB PUSH2 0x8CC JUMPI PUSH2 0x3E8 DUP3 GT PUSH2 0x111B JUMPI PUSH2 0x3E8 DUP2 GT PUSH2 0x111B JUMPI DUP2 PUSH1 0x40 SWAP2 PUSH32 0x5C6323BF1C2D7AAEA2C091A4751C1C87AF7F2864650C336507A77D0557AF37A1 SWAP4 PUSH1 0x10 SSTORE DUP1 PUSH1 0x11 SSTORE DUP3 MLOAD SWAP2 DUP3 MSTORE PUSH1 0x20 DUP3 ADD MSTORE LOG1 STOP JUMPDEST PUSH4 0xAC98D7E1 PUSH1 0xE0 SHL PUSH1 0x0 MSTORE PUSH1 0x4 PUSH1 0x0 REVERT JUMPDEST CALLVALUE PUSH2 0x2DE JUMPI PUSH1 0x0 CALLDATASIZE PUSH1 0x3 NOT ADD SLT PUSH2 0x2DE JUMPI PUSH2 0x1145 PUSH2 0x23AF JUMP JUMPDEST PUSH2 0x5A8 PUSH2 0x20E9 JUMP JUMPDEST CALLVALUE PUSH2 0x2DE JUMPI PUSH1 0x0 CALLDATASIZE PUSH1 0x3 NOT ADD SLT PUSH2 0x2DE JUMPI PUSH1 0x20 PUSH1 0x40 MLOAD PUSH1 0x32 DUP2 MSTORE RETURN JUMPDEST CALLVALUE PUSH2 0x2DE JUMPI PUSH1 0x0 CALLDATASIZE PUSH1 0x3 NOT ADD SLT PUSH2 0x2DE JUMPI PUSH2 0x1182 PUSH2 0x23AF JUMP JUMPDEST PUSH2 0x5A8 PUSH2 0x2052 JUMP JUMPDEST CALLVALUE PUSH2 0x2DE JUMPI PUSH1 0x20 CALLDATASIZE PUSH1 0x3 NOT ADD SLT PUSH2 0x2DE JUMPI PUSH2 0x11A3 PUSH2 0x1E00 JUMP JUMPDEST PUSH1 0x0 PUSH1 0xC0 PUSH1 0x40 MLOAD PUSH2 0x11B3 DUP2 PUSH2 0x1D79 JUMP JUMPDEST DUP3 DUP2 MSTORE DUP3 PUSH1 0x20 DUP3 ADD MSTORE DUP3 PUSH1 0x40 DUP3 ADD MSTORE DUP3 PUSH1 0x60 DUP3 ADD MSTORE DUP3 PUSH1 0x80 DUP3 ADD MSTORE DUP3 PUSH1 0xA0 DUP3 ADD MSTORE ADD MSTORE PUSH1 0x1 DUP1 PUSH1 0xA0 SHL SUB AND PUSH1 0x0 MSTORE PUSH1 0xC PUSH1 0x20 MSTORE PUSH1 0xE0 PUSH1 0x40 PUSH1 0x0 KECCAK256 PUSH1 0x40 MLOAD SWAP1 PUSH2 0x11FA DUP3 PUSH2 0x1D79 JUMP JUMPDEST DUP1 SLOAD SWAP2 DUP3 DUP2 MSTORE PUSH1 0x1 DUP3 ADD SLOAD SWAP2 PUSH1 0x20 DUP3 ADD SWAP3 DUP4 MSTORE PUSH1 0x2 DUP2 ADD SLOAD PUSH1 0x40 DUP4 ADD SWAP1 DUP2 MSTORE PUSH1 0x3 DUP3 ADD SLOAD SWAP1 PUSH1 0x60 DUP5 ADD SWAP2 DUP3 MSTORE PUSH1 0x5 PUSH1 0x4 DUP5 ADD SLOAD SWAP4 PUSH1 0x80 DUP7 ADD SWAP5 DUP6 MSTORE ADD SLOAD SWAP5 PUSH1 0xFF PUSH1 0xC0 PUSH1 0xA0 DUP8 ADD SWAP7 DUP3 DUP10 AND ISZERO ISZERO DUP9 MSTORE ADD SWAP7 PUSH1 0x8 SHR AND ISZERO ISZERO DUP7 MSTORE PUSH1 0x40 MLOAD SWAP7 DUP8 MSTORE MLOAD PUSH1 0x20 DUP8 ADD MSTORE MLOAD PUSH1 0x40 DUP7 ADD MSTORE MLOAD PUSH1 0x60 DUP6 ADD MSTORE MLOAD PUSH1 0x80 DUP5 ADD MSTORE MLOAD ISZERO ISZERO PUSH1 0xA0 DUP4 ADD MSTORE MLOAD ISZERO ISZERO PUSH1 0xC0 DUP3 ADD MSTORE RETURN JUMPDEST CALLVALUE PUSH2 0x2DE JUMPI PUSH1 0x0 CALLDATASIZE PUSH1 0x3 NOT ADD SLT PUSH2 0x2DE JUMPI PUSH1 0x1 SLOAD PUSH1 0x40 MLOAD PUSH1 0x1 PUSH1 0x1 PUSH1 0xA0 SHL SUB SWAP1 SWAP2 AND DUP2 MSTORE PUSH1 0x20 SWAP1 RETURN JUMPDEST CALLVALUE PUSH2 0x2DE JUMPI PUSH1 0x0 CALLDATASIZE PUSH1 0x3 NOT ADD SLT PUSH2 0x2DE JUMPI PUSH1 0x0 SLOAD PUSH1 0x40 MLOAD PUSH1 0x8 SWAP2 SWAP1 SWAP2 SHR PUSH1 0x1 PUSH1 0x1 PUSH1 0xA0 SHL SUB AND DUP2 MSTORE PUSH1 0x20 SWAP1 RETURN JUMPDEST CALLVALUE PUSH2 0x2DE JUMPI PUSH1 0x0 CALLDATASIZE PUSH1 0x3 NOT ADD SLT PUSH2 0x2DE JUMPI PUSH1 0x20 PUSH1 0xFF PUSH32 0xCD5ED15C6E187E77E9AEE88184C21F4F2182AB5827CB3B7E07FBEDCD63F03300 SLOAD AND PUSH1 0x40 MLOAD SWAP1 ISZERO ISZERO DUP2 MSTORE RETURN JUMPDEST CALLVALUE PUSH2 0x2DE JUMPI PUSH1 0x0 CALLDATASIZE PUSH1 0x3 NOT ADD SLT PUSH2 0x2DE JUMPI PUSH1 0x20 PUSH1 0xFF PUSH1 0xF SLOAD AND PUSH1 0x40 MLOAD SWAP1 ISZERO ISZERO DUP2 MSTORE RETURN JUMPDEST CALLVALUE PUSH2 0x2DE JUMPI PUSH1 0x0 CALLDATASIZE PUSH1 0x3 NOT ADD SLT PUSH2 0x2DE JUMPI PUSH1 0x80 PUSH1 0x3 SLOAD PUSH1 0x4 SLOAD PUSH1 0x5 SLOAD PUSH1 0x6 SLOAD SWAP2 PUSH1 0x40 MLOAD SWAP4 DUP5 MSTORE PUSH1 0x20 DUP5 ADD MSTORE PUSH1 0x40 DUP4 ADD MSTORE PUSH1 0x60 DUP3 ADD MSTORE RETURN JUMPDEST CALLVALUE PUSH2 0x2DE JUMPI PUSH1 0x0 CALLDATASIZE PUSH1 0x3 NOT ADD SLT PUSH2 0x2DE JUMPI PUSH2 0x138D PUSH2 0x23AF JUMP JUMPDEST PUSH1 0x14 SLOAD PUSH2 0x139B DUP2 ISZERO ISZERO PUSH2 0x1F86 JUMP JUMPDEST PUSH1 0x0 PUSH1 0x14 DUP2 SWAP1 SSTORE DUP1 SLOAD PUSH1 0x12 SLOAD PUSH1 0x40 MLOAD PUSH4 0xA9059CBB PUSH1 0xE0 SHL DUP2 MSTORE PUSH1 0x1 PUSH1 0x1 PUSH1 0xA0 SHL SUB SWAP2 DUP3 AND PUSH1 0x4 DUP3 ADD MSTORE PUSH1 0x24 DUP2 ADD DUP6 SWAP1 MSTORE SWAP3 PUSH1 0x20 SWAP3 DUP5 SWAP3 PUSH1 0x44 SWAP3 DUP5 SWAP3 SWAP1 SWAP2 PUSH1 0x8 SWAP2 SWAP1 SWAP2 SHR AND GAS CALL DUP1 ISZERO PUSH2 0xB4D JUMPI PUSH2 0x13F9 SWAP2 PUSH1 0x0 SWAP2 PUSH2 0x1434 JUMPI JUMPDEST POP PUSH2 0x1FD4 JUMP JUMPDEST PUSH1 0x12 SLOAD PUSH1 0x40 MLOAD SWAP2 DUP3 MSTORE PUSH1 0x1 PUSH1 0x1 PUSH1 0xA0 SHL SUB AND SWAP1 PUSH32 0x1D1349746D782D6DFC3EE165BA93BABD914B7585E3D3E5497614F9FE0EB3FC1C SWAP1 PUSH1 0x20 SWAP1 LOG2 STOP JUMPDEST PUSH2 0x144D SWAP2 POP PUSH1 0x20 RETURNDATASIZE PUSH1 0x20 GT PUSH2 0xB46 JUMPI PUSH2 0xB38 DUP2 DUP4 PUSH2 0x1D95 JUMP JUMPDEST DUP4 PUSH2 0x13F3 JUMP JUMPDEST CALLVALUE PUSH2 0x2DE JUMPI PUSH1 0x0 CALLDATASIZE PUSH1 0x3 NOT ADD SLT PUSH2 0x2DE JUMPI PUSH1 0x2 SLOAD PUSH1 0x40 MLOAD PUSH1 0x1 PUSH1 0x1 PUSH1 0xA0 SHL SUB SWAP1 SWAP2 AND DUP2 MSTORE PUSH1 0x20 SWAP1 RETURN JUMPDEST CALLVALUE PUSH2 0x2DE JUMPI PUSH1 0x0 CALLDATASIZE PUSH1 0x3 NOT ADD SLT PUSH2 0x2DE JUMPI PUSH1 0x20 PUSH1 0xE SLOAD PUSH1 0x40 MLOAD SWAP1 DUP2 MSTORE RETURN JUMPDEST CALLVALUE PUSH2 0x2DE JUMPI PUSH1 0x0 CALLDATASIZE PUSH1 0x3 NOT ADD SLT PUSH2 0x2DE JUMPI CALLER PUSH1 0x0 MSTORE PUSH1 0xC PUSH1 0x20 MSTORE PUSH1 0xFF PUSH1 0x5 PUSH1 0x40 PUSH1 0x0 KECCAK256 ADD SLOAD PUSH1 0x8 SHR AND ISZERO DUP1 ISZERO PUSH2 0x179D JUMPI JUMPDEST PUSH2 0x178C JUMPI PUSH1 0xFF PUSH1 0x0 SLOAD AND PUSH1 0x3 DUP2 LT ISZERO PUSH2 0x818 JUMPI PUSH1 0x2 EQ DUP1 DUP1 PUSH2 0x177F JUMPI JUMPDEST PUSH2 0x176E JUMPI CALLER PUSH1 0x0 MSTORE PUSH1 0xC PUSH1 0x20 MSTORE PUSH1 0x40 PUSH1 0x0 KECCAK256 DUP1 SLOAD SWAP2 DUP3 ISZERO PUSH2 0x175D JUMPI ISZERO PUSH1 0x0 DUP2 DUP1 PUSH2 0x1752 JUMPI JUMPDEST PUSH2 0x172B JUMPI JUMPDEST POP PUSH2 0x1615 JUMPI JUMPDEST DUP1 PUSH1 0x0 PUSH1 0x5 SWAP3 SSTORE ADD PUSH2 0xFF00 NOT DUP2 SLOAD AND SWAP1 SSTORE PUSH2 0x1535 DUP2 PUSH1 0x7 SLOAD PUSH2 0x2045 JUMP JUMPDEST PUSH1 0x7 SSTORE DUP1 PUSH1 0xFF PUSH1 0x0 SLOAD AND PUSH1 0x3 DUP2 LT ISZERO PUSH2 0x818 JUMPI PUSH1 0x2 EQ ISZERO DUP1 PUSH2 0x160A JUMPI JUMPDEST PUSH2 0x15D9 JUMPI JUMPDEST POP PUSH1 0x1 SLOAD PUSH1 0x40 MLOAD PUSH4 0xA9059CBB PUSH1 0xE0 SHL DUP2 MSTORE CALLER PUSH1 0x4 DUP3 ADD MSTORE PUSH1 0x24 DUP2 ADD DUP4 SWAP1 MSTORE SWAP1 PUSH1 0x20 SWAP1 DUP3 SWAP1 PUSH1 0x44 SWAP1 DUP3 SWAP1 PUSH1 0x0 SWAP1 PUSH1 0x1 PUSH1 0x1 PUSH1 0xA0 SHL SUB AND GAS CALL DUP1 ISZERO PUSH2 0xB4D JUMPI PUSH2 0x15A5 SWAP2 PUSH1 0x0 SWAP2 PUSH2 0x1434 JUMPI POP PUSH2 0x1FD4 JUMP JUMPDEST PUSH1 0x40 MLOAD SWAP1 DUP2 MSTORE TIMESTAMP PUSH1 0x20 DUP3 ADD MSTORE PUSH32 0xF279E6A1F5E320CCA91135676D9CB6E44CA8A08C0B88342BCDB1144F6511B568 PUSH1 0x40 CALLER SWAP3 LOG2 STOP JUMPDEST SWAP1 POP PUSH2 0x1601 PUSH2 0x15F8 PUSH2 0x2710 PUSH2 0x15F0 PUSH1 0x10 SLOAD DUP6 PUSH2 0x2012 JUMP JUMPDEST DIV DUP1 SWAP4 PUSH2 0x2045 JUMP JUMPDEST SWAP2 PUSH1 0x13 SLOAD PUSH2 0x1E8E JUMP JUMPDEST PUSH1 0x13 SSTORE DUP2 PUSH2 0x1557 JUMP JUMPDEST POP PUSH1 0x10 SLOAD ISZERO ISZERO PUSH2 0x1552 JUMP JUMPDEST PUSH2 0x161E CALLER PUSH2 0x23E5 JUMP JUMPDEST PUSH1 0x2 DUP2 ADD SWAP1 DUP2 SLOAD SWAP2 DUP3 PUSH2 0x1634 JUMPI JUMPDEST POP SWAP1 POP PUSH2 0x1518 JUMP JUMPDEST PUSH2 0x167E PUSH2 0x2710 PUSH2 0x1646 PUSH1 0x11 SLOAD DUP7 PUSH2 0x2012 JUMP JUMPDEST DIV SWAP4 PUSH1 0x0 PUSH2 0x1654 DUP7 DUP4 PUSH2 0x2045 JUMP JUMPDEST SWAP4 SSTORE PUSH1 0x3 DUP5 ADD PUSH2 0x1665 DUP5 DUP3 SLOAD PUSH2 0x1E8E JUMP JUMPDEST SWAP1 SSTORE PUSH2 0x1673 DUP6 PUSH1 0x14 SLOAD PUSH2 0x1E8E JUMP JUMPDEST PUSH1 0x14 SSTORE PUSH1 0x9 SLOAD PUSH2 0x1E8E JUMP JUMPDEST PUSH1 0x9 SSTORE PUSH1 0x0 DUP1 SLOAD PUSH1 0x40 MLOAD PUSH4 0xA9059CBB PUSH1 0xE0 SHL DUP2 MSTORE CALLER PUSH1 0x4 DUP3 ADD MSTORE PUSH1 0x24 DUP2 ADD DUP5 SWAP1 MSTORE SWAP5 SWAP2 PUSH1 0x20 SWAP2 DUP7 SWAP2 PUSH1 0x44 SWAP2 DUP4 SWAP2 SWAP1 PUSH1 0x8 SHR PUSH1 0x1 PUSH1 0x1 PUSH1 0xA0 SHL SUB AND GAS CALL SWAP4 DUP5 ISZERO PUSH2 0xB4D JUMPI PUSH1 0x5 SWAP5 PUSH2 0x16D5 SWAP2 PUSH1 0x0 SWAP2 PUSH2 0x170C JUMPI POP PUSH2 0x1FD4 JUMP JUMPDEST PUSH1 0x40 MLOAD SWAP2 DUP3 MSTORE PUSH1 0x20 DUP3 ADD MSTORE PUSH32 0xEB6DDAF71011472A18676020A53F58D8146F6997849D9B61AFE146FE79AB0BD9 PUSH1 0x40 CALLER SWAP3 LOG2 DUP4 PUSH2 0x162C JUMP JUMPDEST PUSH2 0x1725 SWAP2 POP PUSH1 0x20 RETURNDATASIZE PUSH1 0x20 GT PUSH2 0xB46 JUMPI PUSH2 0xB38 DUP2 DUP4 PUSH2 0x1D95 JUMP JUMPDEST DUP8 PUSH2 0x13F3 JUMP JUMPDEST PUSH2 0x173C PUSH1 0x4 DUP5 ADD SLOAD PUSH1 0xE SLOAD SWAP1 PUSH2 0x1E8E JUMP JUMPDEST TIMESTAMP LT ISZERO PUSH2 0x1512 JUMPI PUSH4 0x1958598B PUSH1 0xE0 SHL DUP2 MSTORE PUSH1 0x4 SWAP1 REVERT JUMPDEST POP PUSH1 0xE SLOAD ISZERO ISZERO PUSH2 0x150D JUMP JUMPDEST PUSH4 0x8339C1AD PUSH1 0xE0 SHL PUSH1 0x0 MSTORE PUSH1 0x4 PUSH1 0x0 REVERT JUMPDEST PUSH4 0x3435875F PUSH1 0xE1 SHL PUSH1 0x0 MSTORE PUSH1 0x4 PUSH1 0x0 REVERT JUMPDEST POP PUSH1 0xFF PUSH1 0xF SLOAD AND ISZERO PUSH2 0x14E8 JUMP JUMPDEST PUSH4 0x27B95979 PUSH1 0xE0 SHL PUSH1 0x0 MSTORE PUSH1 0x4 PUSH1 0x0 REVERT JUMPDEST POP CALLER PUSH1 0x0 MSTORE PUSH1 0xC PUSH1 0x20 MSTORE PUSH1 0x40 PUSH1 0x0 KECCAK256 SLOAD ISZERO PUSH2 0x14CB JUMP JUMPDEST CALLVALUE PUSH2 0x2DE JUMPI PUSH1 0x0 CALLDATASIZE PUSH1 0x3 NOT ADD SLT PUSH2 0x2DE JUMPI PUSH1 0xFF PUSH1 0x0 SLOAD AND PUSH1 0x3 DUP2 LT ISZERO PUSH2 0x818 JUMPI PUSH2 0x807 JUMPI PUSH2 0x17E0 CALLER PUSH2 0x23E5 JUMP JUMPDEST CALLER PUSH1 0x0 MSTORE PUSH1 0xC PUSH1 0x20 MSTORE PUSH1 0x40 PUSH1 0x0 KECCAK256 PUSH1 0x2 DUP2 ADD SWAP1 DUP2 SLOAD SWAP1 DUP2 ISZERO PUSH2 0x19A1 JUMPI PUSH2 0x2710 PUSH2 0x180B PUSH1 0x11 SLOAD DUP5 PUSH2 0x2012 JUMP JUMPDEST DIV SWAP2 PUSH2 0x1817 DUP4 DUP3 PUSH2 0x2045 JUMP JUMPDEST PUSH1 0x0 SLOAD PUSH1 0x40 MLOAD PUSH4 0x70A08231 PUSH1 0xE0 SHL DUP2 MSTORE ADDRESS PUSH1 0x4 DUP3 ADD MSTORE SWAP2 SWAP6 SWAP2 SWAP1 PUSH1 0x20 SWAP1 DUP3 SWAP1 PUSH1 0x24 SWAP1 DUP3 SWAP1 PUSH1 0x8 SHR PUSH1 0x1 PUSH1 0x1 PUSH1 0xA0 SHL SUB AND GAS STATICCALL DUP1 ISZERO PUSH2 0xB4D JUMPI DUP7 SWAP2 PUSH1 0x0 SWAP2 PUSH2 0x196C JUMPI JUMPDEST POP LT PUSH2 0x1927 JUMPI PUSH2 0x1883 SWAP3 PUSH1 0x0 PUSH1 0x3 SWAP3 SSTORE ADD PUSH2 0x1875 DUP6 DUP3 SLOAD PUSH2 0x1E8E JUMP JUMPDEST SWAP1 SSTORE PUSH2 0x1673 DUP4 PUSH1 0x14 SLOAD PUSH2 0x1E8E JUMP JUMPDEST PUSH1 0x9 SSTORE PUSH1 0x0 DUP1 SLOAD PUSH1 0x40 MLOAD PUSH4 0xA9059CBB PUSH1 0xE0 SHL DUP2 MSTORE CALLER PUSH1 0x4 DUP3 ADD MSTORE PUSH1 0x24 DUP2 ADD DUP6 SWAP1 MSTORE SWAP2 PUSH1 0x20 SWAP2 DUP4 SWAP2 PUSH1 0x44 SWAP2 DUP4 SWAP2 SWAP1 PUSH1 0x8 SHR PUSH1 0x1 PUSH1 0x1 PUSH1 0xA0 SHL SUB AND GAS CALL DUP1 ISZERO PUSH2 0xB4D JUMPI PUSH2 0x18D5 SWAP2 PUSH1 0x0 SWAP2 PUSH2 0x1908 JUMPI POP PUSH2 0x1FD4 JUMP JUMPDEST PUSH1 0x40 MLOAD SWAP2 DUP3 MSTORE PUSH1 0x20 DUP3 ADD MSTORE PUSH32 0xEB6DDAF71011472A18676020A53F58D8146F6997849D9B61AFE146FE79AB0BD9 PUSH1 0x40 CALLER SWAP3 LOG2 STOP JUMPDEST PUSH2 0x1921 SWAP2 POP PUSH1 0x20 RETURNDATASIZE PUSH1 0x20 GT PUSH2 0xB46 JUMPI PUSH2 0xB38 DUP2 DUP4 PUSH2 0x1D95 JUMP JUMPDEST DUP5 PUSH2 0x13F3 JUMP JUMPDEST PUSH1 0x40 MLOAD PUSH3 0x461BCD PUSH1 0xE5 SHL DUP2 MSTORE PUSH1 0x20 PUSH1 0x4 DUP3 ADD MSTORE PUSH1 0x1D PUSH1 0x24 DUP3 ADD MSTORE PUSH32 0x496E73756666696369656E7420636F6E74726163742062616C616E6365000000 PUSH1 0x44 DUP3 ADD MSTORE PUSH1 0x64 SWAP1 REVERT JUMPDEST SWAP2 POP POP PUSH1 0x20 DUP2 RETURNDATASIZE PUSH1 0x20 GT PUSH2 0x1999 JUMPI JUMPDEST DUP2 PUSH2 0x1988 PUSH1 0x20 SWAP4 DUP4 PUSH2 0x1D95 JUMP JUMPDEST DUP2 ADD SUB SLT PUSH2 0x2DE JUMPI DUP6 SWAP1 MLOAD DUP8 PUSH2 0x1859 JUMP JUMPDEST RETURNDATASIZE SWAP2 POP PUSH2 0x197B JUMP JUMPDEST PUSH1 0x40 MLOAD PUSH3 0x461BCD PUSH1 0xE5 SHL DUP2 MSTORE PUSH1 0x20 PUSH1 0x4 DUP3 ADD MSTORE PUSH1 0xA PUSH1 0x24 DUP3 ADD MSTORE PUSH10 0x4E6F2072657761726473 PUSH1 0xB0 SHL PUSH1 0x44 DUP3 ADD MSTORE PUSH1 0x64 SWAP1 REVERT JUMPDEST CALLVALUE PUSH2 0x2DE JUMPI PUSH1 0x0 CALLDATASIZE PUSH1 0x3 NOT ADD SLT PUSH2 0x2DE JUMPI PUSH1 0x20 PUSH1 0x14 SLOAD PUSH1 0x40 MLOAD SWAP1 DUP2 MSTORE RETURN JUMPDEST CALLVALUE PUSH2 0x2DE JUMPI PUSH1 0x0 CALLDATASIZE PUSH1 0x3 NOT ADD SLT PUSH2 0x2DE JUMPI PUSH2 0x1A0A PUSH2 0x23AF JUMP JUMPDEST PUSH1 0x13 SLOAD PUSH2 0x1A18 DUP2 ISZERO ISZERO PUSH2 0x1F86 JUMP JUMPDEST PUSH1 0x0 PUSH1 0x13 DUP2 SWAP1 SSTORE PUSH1 0x1 SLOAD PUSH1 0x12 SLOAD PUSH1 0x40 MLOAD PUSH4 0xA9059CBB PUSH1 0xE0 SHL DUP2 MSTORE PUSH1 0x1 PUSH1 0x1 PUSH1 0xA0 SHL SUB SWAP2 DUP3 AND PUSH1 0x4 DUP3 ADD MSTORE PUSH1 0x24 DUP2 ADD DUP6 SWAP1 MSTORE SWAP3 PUSH1 0x20 SWAP3 DUP5 SWAP3 PUSH1 0x44 SWAP3 DUP5 SWAP3 SWAP1 SWAP2 AND GAS CALL DUP1 ISZERO PUSH2 0xB4D JUMPI PUSH2 0x1A70 SWAP2 PUSH1 0x0 SWAP2 PUSH2 0x1434 JUMPI POP PUSH2 0x1FD4 JUMP JUMPDEST PUSH1 0x12 SLOAD PUSH1 0x40 MLOAD SWAP2 DUP3 MSTORE PUSH1 0x1 PUSH1 0x1 PUSH1 0xA0 SHL SUB AND SWAP1 PUSH32 0x1E2E6257AC7187B1133B17D3E1E24C28BC4F84273E03229E9FAC633C1705DC5F SWAP1 PUSH1 0x20 SWAP1 LOG2 STOP JUMPDEST CALLVALUE PUSH2 0x2DE JUMPI PUSH1 0x60 CALLDATASIZE PUSH1 0x3 NOT ADD SLT PUSH2 0x2DE JUMPI PUSH1 0x24 CALLDATALOAD PUSH1 0x4 CALLDATALOAD PUSH2 0x1ACA PUSH2 0x1E16 JUMP JUMPDEST SWAP2 PUSH1 0x0 DUP1 MLOAD PUSH1 0x20 PUSH2 0x260E DUP4 CODECOPY DUP2 MLOAD SWAP2 MSTORE SLOAD PUSH1 0xFF DUP2 PUSH1 0x40 SHR AND SWAP1 DUP2 ISZERO PUSH2 0x1BAD JUMPI JUMPDEST POP PUSH2 0x553 JUMPI PUSH1 0x2 PUSH8 0xFFFFFFFFFFFFFFFF NOT PUSH1 0x0 DUP1 MLOAD PUSH1 0x20 PUSH2 0x260E DUP4 CODECOPY DUP2 MLOAD SWAP2 MSTORE SLOAD AND OR PUSH1 0x0 DUP1 MLOAD PUSH1 0x20 PUSH2 0x260E DUP4 CODECOPY DUP2 MLOAD SWAP2 MSTORE SSTORE PUSH1 0xFF PUSH1 0x40 SHL NOT PUSH1 0x0 DUP1 MLOAD PUSH1 0x20 PUSH2 0x260E DUP4 CODECOPY DUP2 MLOAD SWAP2 MSTORE SLOAD AND SWAP3 PUSH2 0x3E8 DUP4 GT PUSH2 0x111B JUMPI PUSH2 0x3E8 DUP3 GT PUSH2 0x111B JUMPI PUSH1 0x1 PUSH1 0x1 PUSH1 0xA0 SHL SUB AND SWAP2 DUP3 ISZERO PUSH2 0x8BB JUMPI PUSH1 0x10 SSTORE PUSH1 0x11 SSTORE PUSH1 0x1 PUSH1 0x1 PUSH1 0x60 SHL SUB PUSH1 0xA0 SHL PUSH1 0x12 SLOAD AND OR PUSH1 0x12 SSTORE PUSH1 0x0 DUP1 MLOAD PUSH1 0x20 PUSH2 0x260E DUP4 CODECOPY DUP2 MLOAD SWAP2 MSTORE SSTORE PUSH32 0xC7F505B2F371AE2175EE4913F4499E1F2633A7B5936321EED1CDAEB6115181D2 PUSH1 0x20 PUSH1 0x40 MLOAD PUSH1 0x2 DUP2 MSTORE LOG1 STOP JUMPDEST PUSH1 0x2 SWAP2 POP PUSH8 0xFFFFFFFFFFFFFFFF AND LT ISZERO DUP5 PUSH2 0x1AEA JUMP JUMPDEST CALLVALUE PUSH2 0x2DE JUMPI PUSH1 0x20 CALLDATASIZE PUSH1 0x3 NOT ADD SLT PUSH2 0x2DE JUMPI PUSH1 0x40 PUSH2 0x1BE6 PUSH2 0x1BE1 PUSH2 0x1E00 JUMP JUMPDEST PUSH2 0x1EB1 JUMP JUMPDEST DUP3 MLOAD SWAP2 ISZERO ISZERO DUP3 MSTORE PUSH1 0x20 DUP3 ADD MSTORE RETURN JUMPDEST CALLVALUE PUSH2 0x2DE JUMPI PUSH1 0x0 CALLDATASIZE PUSH1 0x3 NOT ADD SLT PUSH2 0x2DE JUMPI PUSH1 0x20 PUSH1 0x13 SLOAD PUSH1 0x40 MLOAD SWAP1 DUP2 MSTORE RETURN JUMPDEST CALLVALUE PUSH2 0x2DE JUMPI PUSH1 0x0 CALLDATASIZE PUSH1 0x3 NOT ADD SLT PUSH2 0x2DE JUMPI PUSH2 0x1C52 PUSH1 0x40 MLOAD PUSH2 0x1C34 PUSH1 0x40 DUP3 PUSH2 0x1D95 JUMP JUMPDEST PUSH1 0x5 DUP2 MSTORE PUSH5 0x322E302E3 PUSH1 0xDC SHL PUSH1 0x20 DUP3 ADD MSTORE PUSH1 0x40 MLOAD SWAP2 DUP3 SWAP2 DUP3 PUSH2 0x1DB7 JUMP JUMPDEST SUB SWAP1 RETURN JUMPDEST CALLVALUE PUSH2 0x2DE JUMPI PUSH1 0x0 CALLDATASIZE PUSH1 0x3 NOT ADD SLT PUSH2 0x2DE JUMPI PUSH2 0x1C52 PUSH1 0x40 MLOAD PUSH2 0x1C78 PUSH1 0x40 DUP3 PUSH2 0x1D95 JUMP JUMPDEST PUSH1 0x17 DUP2 MSTORE PUSH32 0x50726F706F7274696F6E616C20546F6B656E204661726D000000000000000000 PUSH1 0x20 DUP3 ADD MSTORE PUSH1 0x40 MLOAD SWAP2 DUP3 SWAP2 DUP3 PUSH2 0x1DB7 JUMP JUMPDEST CALLVALUE PUSH2 0x2DE JUMPI PUSH1 0x20 CALLDATASIZE PUSH1 0x3 NOT ADD SLT PUSH2 0x2DE JUMPI PUSH1 0x4 CALLDATALOAD PUSH1 0x1 PUSH1 0x1 PUSH1 0xA0 SHL SUB DUP2 AND SWAP1 DUP2 SWAP1 SUB PUSH2 0x2DE JUMPI PUSH2 0x1CDC PUSH2 0x23AF JUMP JUMPDEST DUP1 ISZERO PUSH2 0x1086 JUMPI PUSH1 0x40 PUSH32 0xE4CEC16B1A7E6B7979E923DA619A8B1E5FD0F0FB6E5C1CF647F350430EE61CA9 SWAP2 PUSH1 0x2 SLOAD SWAP1 DUP1 PUSH1 0x1 PUSH1 0x1 PUSH1 0x60 SHL SUB PUSH1 0xA0 SHL DUP4 AND OR PUSH1 0x2 SSTORE DUP3 MLOAD SWAP2 PUSH1 0x1 DUP1 PUSH1 0xA0 SHL SUB AND DUP3 MSTORE PUSH1 0x20 DUP3 ADD MSTORE LOG1 STOP JUMPDEST CALLVALUE PUSH2 0x2DE JUMPI PUSH1 0x0 CALLDATASIZE PUSH1 0x3 NOT ADD SLT PUSH2 0x2DE JUMPI PUSH1 0x10 SLOAD PUSH1 0x11 SLOAD PUSH1 0x13 SLOAD PUSH1 0x14 SLOAD PUSH1 0x12 SLOAD SWAP4 DUP6 MSTORE PUSH1 0x20 DUP6 ADD SWAP3 SWAP1 SWAP3 MSTORE PUSH1 0x40 DUP5 ADD MSTORE PUSH1 0x60 DUP4 ADD MSTORE PUSH1 0x1 PUSH1 0x1 PUSH1 0xA0 SHL SUB AND PUSH1 0x80 DUP3 ADD MSTORE PUSH1 0xA0 SWAP1 RETURN JUMPDEST PUSH1 0xE0 DUP2 ADD SWAP1 DUP2 LT PUSH8 0xFFFFFFFFFFFFFFFF DUP3 GT OR PUSH2 0x50B JUMPI PUSH1 0x40 MSTORE JUMP JUMPDEST SWAP1 PUSH1 0x1F DUP1 NOT SWAP2 ADD AND DUP2 ADD SWAP1 DUP2 LT PUSH8 0xFFFFFFFFFFFFFFFF DUP3 GT OR PUSH2 0x50B JUMPI PUSH1 0x40 MSTORE JUMP JUMPDEST SWAP2 SWAP1 SWAP2 PUSH1 0x20 DUP2 MSTORE DUP3 MLOAD DUP1 PUSH1 0x20 DUP4 ADD MSTORE PUSH1 0x0 JUMPDEST DUP2 DUP2 LT PUSH2 0x1DEA JUMPI POP PUSH1 0x40 SWAP3 SWAP4 POP PUSH1 0x0 DUP4 DUP3 DUP5 ADD ADD MSTORE PUSH1 0x1F DUP1 NOT SWAP2 ADD AND ADD ADD SWAP1 JUMP JUMPDEST DUP1 PUSH1 0x20 DUP1 SWAP3 DUP8 ADD ADD MLOAD PUSH1 0x40 DUP3 DUP7 ADD ADD MSTORE ADD PUSH2 0x1DC9 JUMP JUMPDEST PUSH1 0x4 CALLDATALOAD SWAP1 PUSH1 0x1 PUSH1 0x1 PUSH1 0xA0 SHL SUB DUP3 AND DUP3 SUB PUSH2 0x2DE JUMPI JUMP JUMPDEST PUSH1 0x44 CALLDATALOAD SWAP1 PUSH1 0x1 PUSH1 0x1 PUSH1 0xA0 SHL SUB DUP3 AND DUP3 SUB PUSH2 0x2DE JUMPI JUMP JUMPDEST CALLVALUE PUSH2 0x2DE JUMPI PUSH1 0x0 CALLDATASIZE PUSH1 0x3 NOT ADD SLT PUSH2 0x2DE JUMPI PUSH1 0x20 PUSH1 0x40 MLOAD PUSH2 0x3E8 DUP2 MSTORE RETURN JUMPDEST CALLVALUE PUSH2 0x2DE JUMPI PUSH1 0x0 CALLDATASIZE PUSH1 0x3 NOT ADD SLT PUSH2 0x2DE JUMPI PUSH1 0x20 PUSH1 0x40 MLOAD PUSH2 0x2710 DUP2 MSTORE RETURN JUMPDEST SWAP1 PUSH1 0x3 DUP3 LT ISZERO PUSH2 0x818 JUMPI MSTORE JUMP JUMPDEST PUSH1 0xB SLOAD DUP2 LT ISZERO PUSH2 0xDA9 JUMPI PUSH1 0xB PUSH1 0x0 MSTORE PUSH1 0x20 PUSH1 0x0 KECCAK256 ADD SWAP1 PUSH1 0x0 SWAP1 JUMP JUMPDEST SWAP2 SWAP1 DUP3 ADD DUP1 SWAP3 GT PUSH2 0x1E9B JUMPI JUMP JUMPDEST PUSH4 0x4E487B71 PUSH1 0xE0 SHL PUSH1 0x0 MSTORE PUSH1 0x11 PUSH1 0x4 MSTORE PUSH1 0x24 PUSH1 0x0 REVERT JUMPDEST PUSH1 0x1 DUP1 PUSH1 0xA0 SHL SUB AND PUSH1 0x0 MSTORE PUSH1 0xC PUSH1 0x20 MSTORE PUSH1 0x40 PUSH1 0x0 KECCAK256 PUSH1 0xC0 PUSH1 0x40 MLOAD PUSH2 0x1ED4 DUP2 PUSH2 0x1D79 JUMP JUMPDEST DUP3 SLOAD SWAP1 DUP2 DUP2 MSTORE PUSH1 0x1 DUP5 ADD SLOAD PUSH1 0x20 DUP3 ADD MSTORE PUSH1 0x2 DUP5 ADD SLOAD PUSH1 0x40 DUP3 ADD MSTORE PUSH1 0x3 DUP5 ADD SLOAD PUSH1 0x60 DUP3 ADD MSTORE PUSH1 0xFF PUSH1 0x5 PUSH1 0x4 DUP7 ADD SLOAD SWAP6 PUSH1 0x80 DUP5 ADD SWAP7 DUP8 MSTORE ADD SLOAD DUP2 DUP2 AND ISZERO ISZERO PUSH1 0xA0 DUP5 ADD MSTORE PUSH1 0x8 SHR AND ISZERO SWAP1 DUP2 ISZERO SWAP4 DUP5 SWAP2 ADD MSTORE SWAP2 PUSH2 0x1F7D JUMPI JUMPDEST POP PUSH2 0x1F74 JUMPI PUSH1 0xFF PUSH1 0x0 SLOAD AND PUSH1 0x3 DUP2 LT ISZERO PUSH2 0x818 JUMPI PUSH1 0x2 EQ PUSH2 0x1F67 JUMPI PUSH1 0xE SLOAD DUP1 ISZERO PUSH2 0x1F5D JUMPI PUSH2 0x1F56 SWAP2 MLOAD PUSH2 0x1E8E JUMP JUMPDEST TIMESTAMP DUP2 GT ISZERO SWAP2 JUMP JUMPDEST POP POP PUSH1 0x1 SWAP1 PUSH1 0x0 SWAP1 JUMP JUMPDEST POP PUSH1 0xFF PUSH1 0xF SLOAD AND SWAP1 PUSH1 0x0 SWAP1 JUMP JUMPDEST POP PUSH1 0x0 SWAP1 PUSH1 0x0 SWAP1 JUMP JUMPDEST SWAP1 POP ISZERO CODESIZE PUSH2 0x1F28 JUMP JUMPDEST ISZERO PUSH2 0x1F8D JUMPI JUMP JUMPDEST PUSH1 0x40 MLOAD PUSH3 0x461BCD PUSH1 0xE5 SHL DUP2 MSTORE PUSH1 0x20 PUSH1 0x4 DUP3 ADD MSTORE PUSH1 0x7 PUSH1 0x24 DUP3 ADD MSTORE PUSH7 0x4E6F2066656573 PUSH1 0xC8 SHL PUSH1 0x44 DUP3 ADD MSTORE PUSH1 0x64 SWAP1 REVERT JUMPDEST SWAP1 DUP2 PUSH1 0x20 SWAP2 SUB SLT PUSH2 0x2DE JUMPI MLOAD DUP1 ISZERO ISZERO DUP2 SUB PUSH2 0x2DE JUMPI SWAP1 JUMP JUMPDEST ISZERO PUSH2 0x1FDB JUMPI JUMP JUMPDEST PUSH1 0x40 MLOAD PUSH3 0x461BCD PUSH1 0xE5 SHL DUP2 MSTORE PUSH1 0x20 PUSH1 0x4 DUP3 ADD MSTORE PUSH1 0xF PUSH1 0x24 DUP3 ADD MSTORE PUSH15 0x151C985B9CD9995C8819985A5B1959 PUSH1 0x8A SHL PUSH1 0x44 DUP3 ADD MSTORE PUSH1 0x64 SWAP1 REVERT JUMPDEST DUP2 DUP2 MUL SWAP3 SWAP2 DUP2 ISZERO SWAP2 DUP5 DIV EQ OR ISZERO PUSH2 0x1E9B JUMPI JUMP JUMPDEST DUP2 ISZERO PUSH2 0x202F JUMPI DIV SWAP1 JUMP JUMPDEST PUSH4 0x4E487B71 PUSH1 0xE0 SHL PUSH1 0x0 MSTORE PUSH1 0x12 PUSH1 0x4 MSTORE PUSH1 0x24 PUSH1 0x0 REVERT JUMPDEST SWAP2 SWAP1 DUP3 SUB SWAP2 DUP3 GT PUSH2 0x1E9B JUMPI JUMP JUMPDEST PUSH1 0xFF PUSH1 0x0 SLOAD AND PUSH1 0x3 DUP2 LT ISZERO PUSH2 0x818 JUMPI PUSH1 0x2 DUP2 EQ PUSH2 0x20E6 JUMPI PUSH1 0x40 PUSH32 0xE8A97EA87E4388FA22D496B95A8ED5CED6717F49790318DE2B928AAF37A021D8 SWAP2 PUSH1 0x2 PUSH1 0xFF NOT PUSH1 0x0 SLOAD AND OR PUSH1 0x0 SSTORE PUSH2 0x20B9 PUSH1 0xFF PUSH1 0x0 SLOAD AND PUSH2 0x20AF DUP5 MLOAD DUP1 SWAP5 PUSH2 0x1E66 JUMP JUMPDEST PUSH1 0x20 DUP4 ADD SWAP1 PUSH2 0x1E66 JUMP JUMPDEST LOG1 PUSH32 0x1E8AC57E9803840915F0284B77B570A882FB2DB69108AC8EBA578BB30FCAF152 PUSH1 0x20 PUSH1 0x40 MLOAD TIMESTAMP DUP2 MSTORE LOG1 JUMP JUMPDEST POP JUMP JUMPDEST PUSH1 0xFF PUSH1 0x0 SLOAD AND PUSH1 0x3 DUP2 LT ISZERO PUSH2 0x818 JUMPI DUP1 ISZERO PUSH2 0x20E6 JUMPI PUSH1 0x0 PUSH1 0x2 DUP3 EQ PUSH2 0x7F8 JUMPI DUP1 SLOAD PUSH1 0xFF NOT AND SWAP1 SSTORE PUSH1 0x40 DUP1 MLOAD PUSH32 0xE8A97EA87E4388FA22D496B95A8ED5CED6717F49790318DE2B928AAF37A021D8 SWAP3 PUSH2 0x2148 SWAP1 PUSH1 0x0 SWAP1 PUSH2 0x20AF SWAP1 DUP5 SWAP1 PUSH2 0x1E66 JUMP JUMPDEST LOG1 JUMP JUMPDEST SWAP1 PUSH1 0x1 DUP1 PUSH1 0xA0 SHL SUB DUP3 AND PUSH1 0x0 MSTORE PUSH1 0xC PUSH1 0x20 MSTORE PUSH1 0x40 PUSH1 0x0 KECCAK256 PUSH1 0x40 MLOAD PUSH2 0x216E DUP2 PUSH2 0x1D79 JUMP JUMPDEST DUP2 SLOAD DUP2 MSTORE PUSH1 0x1 DUP3 ADD SLOAD DUP1 PUSH1 0x20 DUP4 ADD MSTORE PUSH1 0x2 DUP4 ADD SLOAD PUSH1 0xFF PUSH1 0x5 PUSH1 0x40 DUP6 ADD SWAP6 DUP4 DUP8 MSTORE PUSH1 0x3 DUP2 ADD SLOAD PUSH1 0x60 DUP8 ADD MSTORE PUSH1 0x4 DUP2 ADD SLOAD PUSH1 0x80 DUP8 ADD MSTORE ADD SLOAD DUP2 DUP2 AND ISZERO ISZERO PUSH1 0xA0 DUP7 ADD MSTORE PUSH1 0x8 SHR AND ISZERO DUP1 ISZERO SWAP1 DUP2 PUSH1 0xC0 DUP7 ADD MSTORE SWAP1 PUSH2 0x2283 JUMPI JUMPDEST PUSH2 0x2278 JUMPI POP SWAP1 PUSH2 0x21D4 PUSH1 0x20 SWAP3 NUMBER PUSH2 0x2045 JUMP JUMPDEST PUSH1 0x2 SLOAD SWAP2 MLOAD PUSH1 0x7 SLOAD PUSH1 0x3 SLOAD PUSH1 0x4 DUP1 SLOAD PUSH1 0x40 MLOAD PUSH4 0xA0ACBEC3 PUSH1 0xE0 SHL DUP2 MSTORE SWAP2 DUP3 ADD SWAP6 SWAP1 SWAP6 MSTORE PUSH1 0x24 DUP2 ADD SWAP4 SWAP1 SWAP4 MSTORE PUSH1 0x44 DUP4 ADD SWAP2 SWAP1 SWAP2 MSTORE PUSH1 0x64 DUP3 ADD MSTORE PUSH1 0x84 DUP2 ADD SWAP2 SWAP1 SWAP2 MSTORE PUSH1 0x1 PUSH1 0x1 PUSH1 0xA0 SHL SUB SWAP6 DUP7 AND PUSH1 0xA4 DUP3 ADD MSTORE SWAP5 DUP6 SWAP2 PUSH1 0xC4 SWAP2 DUP4 SWAP2 AND GAS STATICCALL SWAP3 DUP4 ISZERO PUSH2 0xB4D JUMPI PUSH1 0x0 SWAP4 PUSH2 0x2244 JUMPI JUMPDEST POP MLOAD SWAP2 SWAP1 JUMP JUMPDEST SWAP1 SWAP3 POP PUSH1 0x20 DUP2 RETURNDATASIZE PUSH1 0x20 GT PUSH2 0x2270 JUMPI JUMPDEST DUP2 PUSH2 0x2260 PUSH1 0x20 SWAP4 DUP4 PUSH2 0x1D95 JUMP JUMPDEST DUP2 ADD SUB SLT PUSH2 0x2DE JUMPI MLOAD SWAP2 CODESIZE PUSH2 0x223E JUMP JUMPDEST RETURNDATASIZE SWAP2 POP PUSH2 0x2253 JUMP JUMPDEST SWAP5 POP PUSH1 0x0 SWAP4 SWAP3 POP POP POP JUMP JUMPDEST POP PUSH1 0x7 SLOAD ISZERO PUSH2 0x21C2 JUMP JUMPDEST PUSH1 0x0 NOT DUP2 EQ PUSH2 0x1E9B JUMPI PUSH1 0x1 ADD SWAP1 JUMP JUMPDEST PUSH8 0xFFFFFFFFFFFFFFFF DUP2 GT PUSH2 0x50B JUMPI PUSH1 0x5 SHL PUSH1 0x20 ADD SWAP1 JUMP JUMPDEST PUSH1 0xFF PUSH1 0x0 SLOAD AND PUSH1 0x3 DUP2 LT ISZERO PUSH2 0x818 JUMPI PUSH1 0x1 DUP2 EQ PUSH2 0x20E6 JUMPI PUSH1 0x40 PUSH32 0xE8A97EA87E4388FA22D496B95A8ED5CED6717F49790318DE2B928AAF37A021D8 SWAP2 PUSH1 0x1 PUSH1 0xFF NOT PUSH1 0x0 SLOAD AND OR PUSH1 0x0 SSTORE PUSH2 0x2148 PUSH1 0xFF PUSH1 0x0 SLOAD AND PUSH2 0x20AF DUP5 MLOAD DUP1 SWAP5 PUSH2 0x1E66 JUMP JUMPDEST PUSH1 0x7 SLOAD DUP1 ISZERO PUSH2 0x2379 JUMPI PUSH2 0x2329 PUSH1 0x3 SLOAD PUSH1 0x4 SLOAD SWAP1 PUSH2 0x1E8E JUMP JUMPDEST PUSH1 0x1 SHR SWAP1 PUSH2 0x1770 DUP3 MUL SWAP2 DUP1 DUP4 DIV PUSH2 0x1770 EQ DUP2 ISZERO OR ISZERO PUSH2 0x1E9B JUMPI PUSH3 0x216AB0 DUP2 MUL SWAP3 DUP1 DUP5 DIV PUSH2 0x16D EQ SWAP1 ISZERO OR ISZERO PUSH2 0x1E9B JUMPI PUSH4 0xD0DACC0 MUL SWAP2 DUP1 DUP4 DIV PUSH1 0x64 EQ SWAP1 ISZERO OR ISZERO PUSH2 0x1E9B JUMPI PUSH2 0x2376 SWAP2 PUSH2 0x2025 JUMP JUMPDEST SWAP1 JUMP JUMPDEST POP PUSH1 0x0 SWAP1 JUMP JUMPDEST PUSH1 0x1 PUSH1 0x1 PUSH1 0xA0 SHL SUB DUP2 AND ISZERO PUSH2 0x2399 JUMPI PUSH2 0x2397 SWAP1 PUSH2 0x2460 JUMP JUMPDEST JUMP JUMPDEST PUSH4 0x1E4FBDF7 PUSH1 0xE0 SHL PUSH1 0x0 MSTORE PUSH1 0x0 PUSH1 0x4 MSTORE PUSH1 0x24 PUSH1 0x0 REVERT JUMPDEST PUSH1 0x0 DUP1 MLOAD PUSH1 0x20 PUSH2 0x25EE DUP4 CODECOPY DUP2 MLOAD SWAP2 MSTORE SLOAD PUSH1 0x1 PUSH1 0x1 PUSH1 0xA0 SHL SUB AND CALLER SUB PUSH2 0x23D0 JUMPI JUMP JUMPDEST PUSH4 0x118CDAA7 PUSH1 0xE0 SHL PUSH1 0x0 MSTORE CALLER PUSH1 0x4 MSTORE PUSH1 0x24 PUSH1 0x0 REVERT JUMPDEST PUSH1 0x1 DUP1 PUSH1 0xA0 SHL SUB AND PUSH1 0x0 MSTORE PUSH1 0xC PUSH1 0x20 MSTORE PUSH1 0x40 PUSH1 0x0 KECCAK256 PUSH1 0x1 DUP2 ADD SWAP1 DUP2 SLOAD DUP1 NUMBER GT DUP1 PUSH2 0x2456 JUMPI JUMPDEST PUSH2 0x2413 JUMPI POP POP POP JUMP JUMPDEST PUSH1 0x2 PUSH2 0x2445 PUSH2 0x243C PUSH2 0x2434 PUSH2 0x242B PUSH2 0x244F SWAP6 NUMBER PUSH2 0x2045 JUMP JUMPDEST PUSH1 0x15 SLOAD SWAP1 PUSH2 0x2012 JUMP JUMPDEST DUP6 SLOAD SWAP1 PUSH2 0x2012 JUMP JUMPDEST PUSH1 0x7 SLOAD SWAP1 PUSH2 0x2025 JUMP JUMPDEST SWAP3 ADD SWAP2 DUP3 SLOAD PUSH2 0x1E8E JUMP JUMPDEST SWAP1 SSTORE NUMBER SWAP1 SSTORE JUMP JUMPDEST POP DUP2 SLOAD ISZERO ISZERO PUSH2 0x240A JUMP JUMPDEST PUSH1 0x0 DUP1 MLOAD PUSH1 0x20 PUSH2 0x25EE DUP4 CODECOPY DUP2 MLOAD SWAP2 MSTORE DUP1 SLOAD PUSH1 0x1 PUSH1 0x1 PUSH1 0xA0 SHL SUB SWAP3 DUP4 AND PUSH1 0x1 PUSH1 0x1 PUSH1 0xA0 SHL SUB NOT DUP3 AND DUP2 OR SWAP1 SWAP3 SSTORE SWAP1 SWAP2 AND PUSH32 0x8BE0079C531659141344CD1FD0A4F28419497F9722A3DAAFE3B4186F6B6457E0 PUSH1 0x0 DUP1 LOG3 JUMP JUMPDEST PUSH1 0x1 DUP1 PUSH1 0xA0 SHL SUB DUP2 AND PUSH1 0x0 MSTORE PUSH1 0xC PUSH1 0x20 MSTORE PUSH1 0x40 PUSH1 0x0 KECCAK256 SWAP1 PUSH1 0x1 DUP3 ADD SWAP2 DUP3 SLOAD DUP1 NUMBER GT DUP1 ISZERO SWAP1 PUSH2 0x25B5 JUMPI JUMPDEST DUP1 ISZERO PUSH2 0x25AC JUMPI JUMPDEST PUSH2 0x25A6 JUMPI PUSH2 0x24F6 PUSH1 0x20 SWAP2 NUMBER PUSH2 0x2045 JUMP JUMPDEST PUSH1 0x2 SLOAD DUP4 SLOAD PUSH1 0x7 SLOAD PUSH1 0x3 SLOAD PUSH1 0x4 DUP1 SLOAD PUSH1 0x40 MLOAD PUSH4 0xA0ACBEC3 PUSH1 0xE0 SHL DUP2 MSTORE SWAP2 DUP3 ADD SWAP7 SWAP1 SWAP7 MSTORE PUSH1 0x24 DUP2 ADD SWAP4 SWAP1 SWAP4 MSTORE PUSH1 0x44 DUP4 ADD SWAP2 SWAP1 SWAP2 MSTORE PUSH1 0x64 DUP3 ADD MSTORE PUSH1 0x84 DUP2 ADD SWAP3 SWAP1 SWAP3 MSTORE PUSH1 0x1 PUSH1 0x1 PUSH1 0xA0 SHL SUB SWAP5 DUP6 AND PUSH1 0xA4 DUP4 ADD MSTORE SWAP1 SWAP4 DUP5 SWAP2 PUSH1 0xC4 SWAP2 DUP4 SWAP2 AND GAS STATICCALL SWAP2 DUP3 ISZERO PUSH2 0xB4D JUMPI PUSH1 0x0 SWAP3 PUSH2 0x2571 JUMPI JUMPDEST POP PUSH1 0x2 PUSH2 0x244F SWAP2 ADD SWAP2 DUP3 SLOAD PUSH2 0x1E8E JUMP JUMPDEST SWAP1 SWAP2 POP PUSH1 0x20 DUP2 RETURNDATASIZE PUSH1 0x20 GT PUSH2 0x259E JUMPI JUMPDEST DUP2 PUSH2 0x258D PUSH1 0x20 SWAP4 DUP4 PUSH2 0x1D95 JUMP JUMPDEST DUP2 ADD SUB SLT PUSH2 0x2DE JUMPI MLOAD SWAP1 PUSH1 0x2 PUSH2 0x2561 JUMP JUMPDEST RETURNDATASIZE SWAP2 POP PUSH2 0x2580 JUMP JUMPDEST POP POP POP POP JUMP JUMPDEST POP DUP2 SLOAD ISZERO PUSH2 0x24E6 JUMP JUMPDEST POP PUSH1 0x7 SLOAD ISZERO PUSH2 0x24DF JUMP JUMPDEST PUSH1 0xFF PUSH1 0x0 DUP1 MLOAD PUSH1 0x20 PUSH2 0x260E DUP4 CODECOPY DUP2 MLOAD SWAP2 MSTORE SLOAD PUSH1 0x40 SHR AND ISZERO PUSH2 0x25DC JUMPI JUMP JUMPDEST PUSH4 0x1AFCD79F PUSH1 0xE3 SHL PUSH1 0x0 MSTORE PUSH1 0x4 PUSH1 0x0 REVERT INVALID SWAP1 AND 0xD0 SWAP14 PUSH19 0xD40FDAE2FD8CEAC6B6234C7706214FD39C1CD1 0xE6 MULMOD LOG0 MSTORE DUP13 NOT SWAP4 STOP CREATE 0xC5 PUSH31 0x16840DF040F15088DC2F81FE391C3923BEC73E23A9662EFC9C229C6A00A264 PUSH10 0x706673582212204CE0A3 DUP3 DUP12 RETURN 0xB5 DUP12 CALLDATACOPY 0xC6 GT JUMPI INVALID 0xD0 PUSH23 0xD480B23B75EFF009DCC797B27A80DF779164736F6C6343 STOP ADDMOD SHR STOP CALLER "
        },
        "methodIdentifiers": {
          "BASIS_POINTS()": "e1f1c4a7",
          "MAX_CLAIM_FEE()": "46800f75",
          "MAX_FEE_PERCENT()": "67d81740",
          "MAX_STAKERS()": "910956aa",
          "MAX_WITHDRAW_FEE()": "d4b0de2f",
          "MIN_DEPOSIT()": "e1e158a5",
          "canWithdraw(address)": "19262d30",
          "claimFee()": "99d32fc4",
          "claimRewards()": "372500ab",
          "collectedDappFees()": "26712743",
          "collectedFees()": "9003adfe",
          "collectedLpFees()": "1568b169",
          "dappToken()": "5eb186f8",
          "deposit(uint256)": "b6b55f25",
          "distributeRewardsAll()": "db03e227",
          "emergencyStop()": "63a599a4",
          "emergencyWithdrawEnabled()": "5747e69f",
          "farmStartBlock()": "b507d70f",
          "farmState()": "ce2040c8",
          "feeCollector()": "c415b95c",
          "getActiveStakers()": "9fb82db9",
          "getContractStats()": "dfe6b5d6",
          "getEstimatedAPY()": "ccaad55d",
          "getFeeInfo()": "0002eab7",
          "getUserInfo(address)": "6386c1c7",
          "getVersion()": "0d8e6e2c",
          "initialize(address,address,address,address)": "f8c8765e",
          "initializeV2(uint256,uint256,address)": "1f51bf0c",
          "lockPeriod()": "3fd8b02f",
          "lpToken()": "5fcbd285",
          "name()": "06fdde03",
          "owner()": "8da5cb5b",
          "pauseFarm()": "a113601b",
          "paused()": "5c975abb",
          "renounceOwnership()": "715018a6",
          "resumeFarm()": "6c7ecb78",
          "rewardConfig()": "4e94c285",
          "rewardPerBlock()": "8ae39cac",
          "rewardStrategy()": "44c4aea9",
          "setEmergencyWithdrawEnabled(bool)": "c74ad493",
          "setLockPeriod(uint256)": "779972da",
          "setRewardPerBlock(uint256)": "bb872b4a",
          "simulateRewards(address)": "7bbfffa5",
          "stakerIndex(address)": "78d60a5b",
          "stakers(uint256)": "fd5e6dd1",
          "stakersData(address)": "acb422c5",
          "totalRewardsDistributed()": "ee172546",
          "totalStakingBalance()": "e766c835",
          "transferOwnership(address)": "f2fde38b",
          "updateFeeCollector(address)": "d2c35ce8",
          "updateFees(uint256,uint256)": "6db79437",
          "updateLockPeriod(uint256)": "91db7b0d",
          "updateRewardConfig(uint256,uint256,uint256)": "6f3ba889",
          "updateRewardStrategy(address)": "06309e4b",
          "withdraw()": "3ccfd60b",
          "withdrawFee()": "e941fa78",
          "withdrawFees()": "476343ee",
          "withdrawLpFees()": "25b500eb"
        }
      },
      "storageLayout": {
        "storage": [
          {
            "astId": 2921,
            "contract": "contracts/TokenFarmV2.sol:TokenFarmV2",
            "label": "farmState",
            "offset": 0,
            "slot": "0",
            "type": "t_enum(FarmState)2821"
          },
          {
            "astId": 2924,
            "contract": "contracts/TokenFarmV2.sol:TokenFarmV2",
            "label": "dappToken",
            "offset": 1,
            "slot": "0",
            "type": "t_contract(DappToken)2630"
          },
          {
            "astId": 2927,
            "contract": "contracts/TokenFarmV2.sol:TokenFarmV2",
            "label": "lpToken",
            "offset": 0,
            "slot": "1",
            "type": "t_contract(LPToken)2669"
          },
          {
            "astId": 2930,
            "contract": "contracts/TokenFarmV2.sol:TokenFarmV2",
            "label": "rewardStrategy",
            "offset": 0,
            "slot": "2",
            "type": "t_contract(IRewardStrategy)2839"
          },
          {
            "astId": 2942,
            "contract": "contracts/TokenFarmV2.sol:TokenFarmV2",
            "label": "rewardConfig",
            "offset": 0,
            "slot": "3",
            "type": "t_struct(RewardConfig)2939_storage"
          },
          {
            "astId": 2944,
            "contract": "contracts/TokenFarmV2.sol:TokenFarmV2",
            "label": "totalStakingBalance",
            "offset": 0,
            "slot": "7",
            "type": "t_uint256"
          },
          {
            "astId": 2946,
            "contract": "contracts/TokenFarmV2.sol:TokenFarmV2",
            "label": "collectedFees",
            "offset": 0,
            "slot": "8",
            "type": "t_uint256"
          },
          {
            "astId": 2948,
            "contract": "contracts/TokenFarmV2.sol:TokenFarmV2",
            "label": "totalRewardsDistributed",
            "offset": 0,
            "slot": "9",
            "type": "t_uint256"
          },
          {
            "astId": 2950,
            "contract": "contracts/TokenFarmV2.sol:TokenFarmV2",
            "label": "farmStartBlock",
            "offset": 0,
            "slot": "10",
            "type": "t_uint256"
          },
          {
            "astId": 2968,
            "contract": "contracts/TokenFarmV2.sol:TokenFarmV2",
            "label": "stakers",
            "offset": 0,
            "slot": "11",
            "type": "t_array(t_address)dyn_storage"
          },
          {
            "astId": 2973,
            "contract": "contracts/TokenFarmV2.sol:TokenFarmV2",
            "label": "stakersData",
            "offset": 0,
            "slot": "12",
            "type": "t_mapping(t_address,t_struct(Staker)2965_storage)"
          },
          {
            "astId": 2977,
            "contract": "contracts/TokenFarmV2.sol:TokenFarmV2",
            "label": "stakerIndex",
            "offset": 0,
            "slot": "13",
            "type": "t_mapping(t_address,t_uint256)"
          },
          {
            "astId": 2988,
            "contract": "contracts/TokenFarmV2.sol:TokenFarmV2",
            "label": "lockPeriod",
            "offset": 0,
            "slot": "14",
            "type": "t_uint256"
          },
          {
            "astId": 2990,
            "contract": "contracts/TokenFarmV2.sol:TokenFarmV2",
            "label": "emergencyWithdrawEnabled",
            "offset": 0,
            "slot": "15",
            "type": "t_bool"
          },
          {
            "astId": 4469,
            "contract": "contracts/TokenFarmV2.sol:TokenFarmV2",
            "label": "withdrawFee",
            "offset": 0,
            "slot": "16",
            "type": "t_uint256"
          },
          {
            "astId": 4471,
            "contract": "contracts/TokenFarmV2.sol:TokenFarmV2",
            "label": "claimFee",
            "offset": 0,
            "slot": "17",
            "type": "t_uint256"
          },
          {
            "astId": 4473,
            "contract": "contracts/TokenFarmV2.sol:TokenFarmV2",
            "label": "feeCollector",
            "offset": 0,
            "slot": "18",
            "type": "t_address"
          },
          {
            "astId": 4475,
            "contract": "contracts/TokenFarmV2.sol:TokenFarmV2",
            "label": "collectedLpFees",
            "offset": 0,
            "slot": "19",
            "type": "t_uint256"
          },
          {
            "astId": 4477,
            "contract": "contracts/TokenFarmV2.sol:TokenFarmV2",
            "label": "collectedDappFees",
            "offset": 0,
            "slot": "20",
            "type": "t_uint256"
          },
          {
            "astId": 4479,
            "contract": "contracts/TokenFarmV2.sol:TokenFarmV2",
            "label": "rewardPerBlock",
            "offset": 0,
            "slot": "21",
            "type": "t_uint256"
          }
        ],
        "types": {
          "t_address": {
            "encoding": "inplace",
            "label": "address",
            "numberOfBytes": "20"
          },
          "t_array(t_address)dyn_storage": {
            "base": "t_address",
            "encoding": "dynamic_array",
            "label": "address[]",
            "numberOfBytes": "32"
          },
          "t_bool": {
            "encoding": "inplace",
            "label": "bool",
            "numberOfBytes": "1"
          },
          "t_contract(DappToken)2630": {
            "encoding": "inplace",
            "label": "contract DappToken",
            "numberOfBytes": "20"
          },
          "t_contract(IRewardStrategy)2839": {
            "encoding": "inplace",
            "label": "contract IRewardStrategy",
            "numberOfBytes": "20"
          },
          "t_contract(LPToken)2669": {
            "encoding": "inplace",
            "label": "contract LPToken",
            "numberOfBytes": "20"
          },
          "t_enum(FarmState)2821": {
            "encoding": "inplace",
            "label": "enum FarmState",
            "numberOfBytes": "1"
          },
          "t_mapping(t_address,t_struct(Staker)2965_storage)": {
            "encoding": "mapping",
            "key": "t_address",
            "label": "mapping(address => struct TokenFarm.Staker)",
            "numberOfBytes": "32",
            "value": "t_struct(Staker)2965_storage"
          },
          "t_mapping(t_address,t_uint256)": {
            "encoding": "mapping",
            "key": "t_address",
            "label": "mapping(address => uint256)",
            "numberOfBytes": "32",
            "value": "t_uint256"
          },
          "t_struct(RewardConfig)2939_storage": {
            "encoding": "inplace",
            "label": "struct TokenFarm.RewardConfig",
            "members": [
              {
                "astId": 2932,
                "contract": "contracts/TokenFarmV2.sol:TokenFarmV2",
                "label": "minPerBlock",
                "offset": 0,
                "slot": "0",
                "type": "t_uint256"
              },
              {
                "astId": 2934,
                "contract": "contracts/TokenFarmV2.sol:TokenFarmV2",
                "label": "maxPerBlock",
                "offset": 0,
                "slot": "1",
                "type": "t_uint256"
              },
              {
                "astId": 2936,
                "contract": "contracts/TokenFarmV2.sol:TokenFarmV2",
                "label": "feePercent",
                "offset": 0,
                "slot": "2",
                "type": "t_uint256"
              },
              {
                "astId": 2938,
                "contract": "contracts/TokenFarmV2.sol:TokenFarmV2",
                "label": "lastUpdate",
                "offset": 0,
                "slot": "3",
                "type": "t_uint256"
              }
            ],
            "numberOfBytes": "128"
          },
          "t_struct(Staker)2965_storage": {
            "encoding": "inplace",
            "label": "struct TokenFarm.Staker",
            "members": [
              {
                "astId": 2952,
                "contract": "contracts/TokenFarmV2.sol:TokenFarmV2",
                "label": "balance",
                "offset": 0,
                "slot": "0",
                "type": "t_uint256"
              },
              {
                "astId": 2954,
                "contract": "contracts/TokenFarmV2.sol:TokenFarmV2",
                "label": "checkpoint",
                "offset": 0,
                "slot": "1",
                "type": "t_uint256"
              },
              {
                "astId": 2956,
                "contract": "contracts/TokenFarmV2.sol:TokenFarmV2",
                "label": "pendingRewards",
                "offset": 0,
                "slot": "2",
                "type": "t_uint256"
              },
              {
                "astId": 2958,
                "contract": "contracts/TokenFarmV2.sol:TokenFarmV2",
                "label": "totalClaimed",
                "offset": 0,
                "slot": "3",
                "type": "t_uint256"
              },
              {
                "astId": 2960,
                "contract": "contracts/TokenFarmV2.sol:TokenFarmV2",
                "label": "depositTimestamp",
                "offset": 0,
                "slot": "4",
                "type": "t_uint256"
              },
              {
                "astId": 2962,
                "contract": "contracts/TokenFarmV2.sol:TokenFarmV2",
                "label": "hasStaked",
                "offset": 0,
                "slot": "5",
                "type": "t_bool"
              },
              {
                "astId": 2964,
                "contract": "contracts/TokenFarmV2.sol:TokenFarmV2",
                "label": "isStaking",
                "offset": 1,
                "slot": "5",
                "type": "t_bool"
              }
            ],
            "numberOfBytes": "192"
          },
          "t_uint256": {
            "encoding": "inplace",
            "label": "uint256",
            "numberOfBytes": "32"
          }
        }
      }
    }
  }
}