{
  "contracts/TokenFarm.sol": {
    "ProportionalVariableStrategy": {
      "abi": [
        {
          "inputs": [
            {
              "internalType": "uint256",
              "name": "blocks",
              "type": "uint256"
            },
            {
              "internalType": "uint256",
              "name": "userBalance",
              "type": "uint256"
            },
            {
              "internalType": "uint256",
              "name": "totalBalance",
              "type": "uint256"
            },
            {
              "internalType": "uint256",
              "name": "minReward",
              "type": "uint256"
            },
            {
              "internalType": "uint256",
              "name": "maxReward",
              "type": "uint256"
            },
            {
              "internalType": "address",
              "name": "",
              "type": "address"
            }
          ],
          "name": "calculateReward",
          "outputs": [
            {
              "internalType": "uint256",
              "name": "",
              "type": "uint256"
            }
          ],
          "stateMutability": "pure",
          "type": "function"
        }
      ],
      "evm": {
        "bytecode": {
          "linkReferences": {},
          "object": "60808060405234601557610172908161001b8239f35b600080fdfe6080604052600436101561001257600080fd5b60003560e01c63a0acbec31461002757600080fd5b3461006b5760c036600319011261006b5760a4356001600160a01b0381160361006b576020610063608435606435604435602435600435610099565b604051908152f35b600080fd5b8181029291811591840414171561008357565b634e487b7160e01b600052601160045260246000fd5b929391908115808015610134575b61012957620f4240851161011e575b670de0b6b3a7640000820291808304670de0b6b3a76400001490151715610083576101085704908301809311610083576100ff61010492670de0b6b3a76400009460011c610070565b610070565b0490565b634e487b7160e01b600052601260045260246000fd5b620f424094506100b6565b505050505050600090565b5081156100a756fea2646970667358221220486d7fab26644b3b1c4550c93b6661ef65abd8774f31a36808ff2eb7ce4c167a64736f6c634300081c0033",
          "opcodes": "PUSH1 0x80 DUP1 PUSH1 0x40 MSTORE CALLVALUE PUSH1 0x15 JUMPI PUSH2 0x172 SWAP1 DUP2 PUSH2 0x1B DUP3 CODECOPY RETURN JUMPDEST PUSH1 0x0 DUP1 REVERT INVALID PUSH1 0x80 PUSH1 0x40 MSTORE PUSH1 0x4 CALLDATASIZE LT ISZERO PUSH2 0x12 JUMPI PUSH1 0x0 DUP1 REVERT JUMPDEST PUSH1 0x0 CALLDATALOAD PUSH1 0xE0 SHR PUSH4 0xA0ACBEC3 EQ PUSH2 0x27 JUMPI PUSH1 0x0 DUP1 REVERT JUMPDEST CALLVALUE PUSH2 0x6B JUMPI PUSH1 0xC0 CALLDATASIZE PUSH1 0x3 NOT ADD SLT PUSH2 0x6B JUMPI PUSH1 0xA4 CALLDATALOAD PUSH1 0x1 PUSH1 0x1 PUSH1 0xA0 SHL SUB DUP2 AND SUB PUSH2 0x6B JUMPI PUSH1 0x20 PUSH2 0x63 PUSH1 0x84 CALLDATALOAD PUSH1 0x64 CALLDATALOAD PUSH1 0x44 CALLDATALOAD PUSH1 0x24 CALLDATALOAD PUSH1 0x4 CALLDATALOAD PUSH2 0x99 JUMP JUMPDEST PUSH1 0x40 MLOAD SWAP1 DUP2 MSTORE RETURN JUMPDEST PUSH1 0x0 DUP1 REVERT JUMPDEST DUP2 DUP2 MUL SWAP3 SWAP2 DUP2 ISZERO SWAP2 DUP5 DIV EQ OR ISZERO PUSH2 0x83 JUMPI JUMP JUMPDEST PUSH4 0x4E487B71 PUSH1 0xE0 SHL PUSH1 0x0 MSTORE PUSH1 0x11 PUSH1 0x4 MSTORE PUSH1 0x24 PUSH1 0x0 REVERT JUMPDEST SWAP3 SWAP4 SWAP2 SWAP1 DUP2 ISZERO DUP1 DUP1 ISZERO PUSH2 0x134 JUMPI JUMPDEST PUSH2 0x129 JUMPI PUSH3 0xF4240 DUP6 GT PUSH2 0x11E JUMPI JUMPDEST PUSH8 0xDE0B6B3A7640000 DUP3 MUL SWAP2 DUP1 DUP4 DIV PUSH8 0xDE0B6B3A7640000 EQ SWAP1 ISZERO OR ISZERO PUSH2 0x83 JUMPI PUSH2 0x108 JUMPI DIV SWAP1 DUP4 ADD DUP1 SWAP4 GT PUSH2 0x83 JUMPI PUSH2 0xFF PUSH2 0x104 SWAP3 PUSH8 0xDE0B6B3A7640000 SWAP5 PUSH1 0x1 SHR PUSH2 0x70 JUMP JUMPDEST PUSH2 0x70 JUMP JUMPDEST DIV SWAP1 JUMP JUMPDEST PUSH4 0x4E487B71 PUSH1 0xE0 SHL PUSH1 0x0 MSTORE PUSH1 0x12 PUSH1 0x4 MSTORE PUSH1 0x24 PUSH1 0x0 REVERT JUMPDEST PUSH3 0xF4240 SWAP5 POP PUSH2 0xB6 JUMP JUMPDEST POP POP POP POP POP POP PUSH1 0x0 SWAP1 JUMP JUMPDEST POP DUP2 ISZERO PUSH2 0xA7 JUMP INVALID LOG2 PUSH5 0x6970667358 0x22 SLT KECCAK256 BASEFEE PUSH14 0x7FAB26644B3B1C4550C93B6661EF PUSH6 0xABD8774F31A3 PUSH9 0x8FF2EB7CE4C167A64 PUSH20 0x6F6C634300081C00330000000000000000000000 "
        },
        "methodIdentifiers": {
          "calculateReward(uint256,uint256,uint256,uint256,uint256,address)": "a0acbec3"
        }
      },
      "storageLayout": {
        "storage": [],
        "types": null
      }
    }
  }
}