{
  "_format": "hh-sol-artifact-1",
  "contractName": "MyProxyAdmin",
  "sourceName": "contracts/ProxyAdmin.sol",
  "abi": [
    {
      "inputs": [
        {
          "internalType": "address",
          "name": "initialOwner",
          "type": "address"
        }
      ],
      "stateMutability": "nonpayable",
      "type": "constructor"
    },
    {
      "inputs": [
        {
          "internalType": "address",
          "name": "owner",
          "type": "address"
        }
      ],
      "name": "OwnableInvalidOwner",
      "type": "error"
    },
    {
      "inputs": [
        {
          "internalType": "address",
          "name": "account",
          "type": "address"
        }
      ],
      "name": "OwnableUnauthorizedAccount",
      "type": "error"
    },
    {
      "anonymous": false,
      "inputs": [
        {
          "indexed": true,
          "internalType": "address",
          "name": "previousOwner",
          "type": "address"
        },
        {
          "indexed": true,
          "internalType": "address",
          "name": "newOwner",
          "type": "address"
        }
      ],
      "name": "OwnershipTransferred",
      "type": "event"
    },
    {
      "inputs": [],
      "name": "UPGRADE_INTERFACE_VERSION",
      "outputs": [
        {
          "internalType": "string",
          "name": "",
          "type": "string"
        }
      ],
      "stateMutability": "view",
      "type": "function"
    },
    {
      "inputs": [],
      "name": "owner",
      "outputs": [
        {
          "internalType": "address",
          "name": "",
          "type": "address"
        }
      ],
      "stateMutability": "view",
      "type": "function"
    },
    {
      "inputs": [],
      "name": "renounceOwnership",
      "outputs": [],
      "stateMutability": "nonpayable",
      "type": "function"
    },
    {
      "inputs": [
        {
          "internalType": "address",
          "name": "newOwner",
          "type": "address"
        }
      ],
      "name": "transferOwnership",
      "outputs": [],
      "stateMutability": "nonpayable",
      "type": "function"
    },
    {
      "inputs": [
        {
          "internalType": "contract ITransparentUpgradeableProxy",
          "name": "proxy",
          "type": "address"
        },
        {
          "internalType": "address",
          "name": "implementation",
          "type": "address"
        },
        {
          "internalType": "bytes",
          "name": "data",
          "type": "bytes"
        }
      ],
      "name": "upgradeAndCall",
      "outputs": [],
      "stateMutability": "payable",
      "type": "function"
    },
    {
      "inputs": [
        {
          "internalType": "address",
          "name": "proxy",
          "type": "address"
        },
        {
          "internalType": "address",
          "name": "implementation",
          "type": "address"
        }
      ],
      "name": "upgradeProxy",
      "outputs": [],
      "stateMutability": "nonpayable",
      "type": "function"
    },
    {
      "inputs": [
        {
          "internalType": "address",
          "name": "proxy",
          "type": "address"
        },
        {
          "internalType": "address",
          "name": "implementation",
          "type": "address"
        }
      ],
      "name": "upgradeProxyAndInitialize",
      "outputs": [],
      "stateMutability": "nonpayable",
      "type": "function"
    }
  ],
  "bytecode": "0x60803460bc57601f61063c38819003918201601f19168301916001600160401b0383118484101760c15780849260209460405283398101031260bc57516001600160a01b0381169081900360bc57801560a657600080546001600160a01b031981168317825560405192916001600160a01b03909116907f8be0079c531659141344cd1fd0a4f28419497f9722a3daafe3b4186f6b6457e09080a361056490816100d88239f35b631e4fbdf760e01b600052600060045260246000fd5b600080fd5b634e487b7160e01b600052604160045260246000fdfe6080604052600436101561001257600080fd5b6000803560e01c80632af0b1f1146103a2578063715018a6146103485780638da5cb5b146103215780639623609d1461020d578063ad3cb1cc146101c0578063c19421c8146100f25763f2fde38b1461006a57600080fd5b346100ef5760203660031901126100ef5761008361045b565b61008b610505565b6001600160a01b031680156100db5781546001600160a01b03198116821783556001600160a01b03167f8be0079c531659141344cd1fd0a4f28419497f9722a3daafe3b4186f6b6457e08380a380f35b631e4fbdf760e01b82526004829052602482fd5b80fd5b50346100ef5760403660031901126100ef578061010d61045b565b610115610476565b61011d610505565b604051635cd8a76b60e01b6020820152600481529161013d60248461048c565b6001600160a01b03169161014f610505565b823b156101bb5761018e9284928360405180968195829463278f794360e11b845260018060a01b031660048401526040602484015260448301906104c4565b03925af180156101b05761019f5750f35b816101a99161048c565b6100ef5780f35b6040513d84823e3d90fd5b505050fd5b50346100ef57806003193601126100ef57506102096040516101e360408261048c565b60058152640352e302e360dc1b60208201526040519182916020835260208301906104c4565b0390f35b5060603660031901126100ef576004356001600160a01b03811691908290036100ef57610238610476565b916044359267ffffffffffffffff841161031d573660238501121561031d5783600401359367ffffffffffffffff85116103095783946020601f19601f8301160191610287604051938461048c565b81835236602483830101116103055781869260246020930183860137830101526102af610505565b823b156101bb576040805163278f794360e11b81526001600160a01b039093166004840152602483015290918391839190829081906102f29060448301906104c4565b039134905af180156101b05761019f5750f35b8580fd5b634e487b7160e01b84526041600452602484fd5b8280fd5b50346100ef57806003193601126100ef57546040516001600160a01b039091168152602090f35b50346100ef57806003193601126100ef57610361610505565b80546001600160a01b03198116825581906001600160a01b03167f8be0079c531659141344cd1fd0a4f28419497f9722a3daafe3b4186f6b6457e08280a380f35b50346100ef5760403660031901126100ef576103bc61045b565b816103c5610476565b916103ce610505565b60018060a01b0316916040516103e560208261048c565b8281526103f0610505565b833b1561031d5761042f9383928360405180978195829463278f794360e11b845260018060a01b031660048401526040602484015260448301906104c4565b03925af1801561044e576104405780f35b6104499161048c565b388180f35b50604051903d90823e3d90fd5b600435906001600160a01b038216820361047157565b600080fd5b602435906001600160a01b038216820361047157565b90601f8019910116810190811067ffffffffffffffff8211176104ae57604052565b634e487b7160e01b600052604160045260246000fd5b919082519283825260005b8481106104f0575050826000602080949584010152601f8019910116010190565b806020809284010151828286010152016104cf565b6000546001600160a01b0316330361051957565b63118cdaa760e01b6000523360045260246000fdfea26469706673582212205aef339670c044b7a68552628afc8081a0a563f676d1dffddddc9b139eec07a964736f6c634300081c0033",
  "linkReferences": {},
  "deployedLinkReferences": {}
}